:020000040800F2
:1010000048150020D51000084140000805380008A8
:1010100000000000000000000000000000000000D0
:101020000000000000000000000000009D400008DB
:10103000000000000000000043400008E3400008FA
:10104000E710000800000000E7100008E7100008A3
:10105000E7100008811A0008E7100008E7100008F0
:10106000000000005D1900086D190008E710000875
:10107000E7100008E7100008E71000080000000073
:10108000E71000080000000000000000E710000862
:1010900000000000E710000865410008E7100008A4
:1010A000E7100008E7100008E7100008E710000844
:1010B0006949000800000000000000000000000076
:1010C0000348854600F058FA00480047B555000827
:1010D000481500200448804704480047FEE7FEE723
:1010E000FEE7FEE7FEE7FEE755410008C1100008F5
:1010F00030B50B46014600202022012409E00D46B0
:10110000D5409D4205D31D469540491B2546954037
:1011100040191546521E002DF1DC30BD70B500247B
:101120002546002801DA01244042002901DA012580
:101130004942FFF7DDFFAC4200D04042002C00D016
:10114000494270BD03460B439B0703D009E008C921
:10115000121F08C0042AFAD203E00B780370401C67
:10116000491C521EF9D27047D2B201E00270401CF5
:10117000491EFBD270470022F6E710B513460A4617
:1011800004461946FFF7F0FF204610BDF0B51FB426
:101190000646002082B005464024019100901BE0E5
:1011A000019922460F46304600F008FA049A059B42
:1011B000801A994110D310461946224600F0EEF9E4
:1011C000361A8F410197224601200021009F00F02E
:1011D000E5F938184D4100902046641E0028DFDCF8
:1011E000019B00982946324607B0F0BDF0B507468E
:1011F0000846584087B0C00F049048000E4659007A
:1012000040084908BC1A884105D2384631461E4676
:1012100017460B4602465800400810434CD0300D8C
:10122000039040055900400D490D0590401A029069
:10123000402872DA18030121000B090508430190C8
:1012400004980092002805D001995242002088415C
:1012500000920190029840210A1A0199009800F02A
:101260009DF905460C466B4607CB00F0B8F9C0194E
:101270007141039A0E0D0023D71756401A467A4043
:10128000164344D0049A002A2DD0029A012A039AC8
:1012900015DC1205C01A914101263605001C71416A
:1012A000D20F059ED2070093019202962A4623464A
:1012B00000F0B5F907B0F0BD38463146FAE716053B
:1012C000224A0F46B218C01AB74101210905001C75
:1012D0004F4100187F41114618187941E20F104321
:1012E0006D19644113E0E2076D0815436408C207F5
:1012F0001443039A01261205C01A91413605001CB9
:101300007141CE07400830434908C01851412A4670
:10131000234600F077F9CDE7FFE70498012240006B
:10132000C117121A00238B4104983146C417381A8A
:10133000A141EEE730B40124E407634030BC55E737
:1013400030B40124E407614030BC4FE70000E0FF07
:10135000F0B51FB488B00B9909980024484009994A
:10136000C00F490049080991C0070B990090490036
:1013700049080B9109990898A64608431CD00B9977
:101380000A98084318D0099801244000420D4800EB
:10139000410D099824050003000B204309900B9888
:1013A0000003000B20430B9050181C4940180022EA
:1013B00001901446104605E0002001460DB0F0BD36
:1013C000032801DA034600E003239C46C11A0AAE53
:1013D0000AE05F0008ADED5B4F00F75B7D4300273F
:1013E000AA187C41491C5B1E6145F2DD410004AB3B
:1013F0005A522104120C0A43240C401C0828DFDB3B
:10140000019802900099704601910090059B049A02
:101410000799069800F003F9D0E700000DFCFFFFE4
:10142000F0B50C465C4085B0E40FE40703944C0033
:101430000026640859009446490802460296224351
:1014400021D062460A431ED06200570D4A000E03A7
:101450002303550D012402462C492405781B1B0B40
:10146000360B401823432643614600901C46501A11
:10147000B44103D30098401C009002E092180098F9
:101480005B41002803DA0020014605B0F0BD0020D2
:10149000012109050746864611E064461D46141BD6
:1014A000B54106D36546521BB341744607430C430E
:1014B000A646CD0740084908284392185B410546D7
:1014C0000D43EAD11046184313D0604619465040E8
:1014D0007140084306D06046101AB34106D201227B
:1014E000002306E000220123DB0702E00122D243B1
:1014F0005310009874460105381C6141029C039DFD
:101500000019694100F07EF8BFE70000FD0300000C
:101510004A0009030123090B1B0519430A4B10B5A7
:10152000520D9A4202DA0020014610BD064B3433B8
:101530009A4203DC9A1A00F041F810BD034BD2180E
:1015400000F02CF810BD0000FF030000CDFBFFFFF2
:1015500010B5002904DB0124E40740428C412146F8
:10156000002B04DB1C460123DB075242A3419942B6
:1015700000D1904210BD0000064C0125064E05E04A
:10158000E36807CC2B430C3C98471034B442F7D3A4
:10159000FFF79AFDB8700008D870000810B5202A2F
:1015A00004DB0146203A9140002010BD91402023E9
:1015B0009C1A0346E3401943904010BD10B5202A01
:1015C00004DB0846203AD040002110BD0B46D34032
:1015D000D0402024A21A91400843194610BD10B5EE
:1015E000202A06DBCB170846203A1041C1170B43CF
:1015F00006E00B461341D0402024A21A9140084334
:10160000194610BD10B5002B08DA0024401C6141BA
:1016100092185B411A4301D14008400010BDF0B55B
:101620001FB482B005460C0003D0084603F020FA30
:1016300002E003F01DFA20300246009021462846C1
:10164000FFF7ACFF049B059A04460F46184311436D
:10165000084314D0184610431BD0009840210A1AA2
:1016600018460599FFF7AAFF05460E46009A059908
:101670000498FFF793FF084305D0012004E02046BB
:10168000394607B0F0BD0020C11705430E432C4377
:10169000374300990E986305401A7905E40A002241
:1016A0000C43FD0A0A3002D500200146E9E7010596
:1016B000101969410C9C0D9D00196941FFF7A2FFAB
:1016C000DFE7000030B587B002F050FB1421684618
:1016D000FFF751FD1A48416B012421434163416BDF
:1016E00021400591426B08210A434263406B0094FC
:1016F00008400590022002900025052001956946CA
:10170000000700F033FB009401940E4C02956946EB
:101710000395204600F02AFB00220121204600F01C
:10172000CAFB0A2000F0F8FA01221146204600F018
:10173000C2FB0A2000F0F0FA002007B030BD000024
:1017400000100240000C0050F3B589B00024684638
:101750000475FF252D3505AA01235C213F4800951E
:10176000069400F0E1FC00281BD10194029403943C
:1017700001AA0F235D2139480095049400F04CFC28
:10178000002803D036A003F04FF90AE06846007B3A
:10179000102806D16846807907073F0F781E022877
:1017A00002D300200BB0F0BD002F55D033A003F0C2
:1017B0003BF9002401A8015D33A003F035F9641C56
:1017C0000F2CF7DB31A003F02FF9022F00D90227ED
:1017D0000620002400903DE0E000001B01AA8018D4
:1017E00040786946800908750098611C4843D31EFB
:1017F000C35C911E415C1B071D0D0D43115C521E05
:10180000825C1207160D0E4301A90231405C07905D
:10181000012C21DC21461EA003F006F9204A6000BD
:10182000115AB14205D181188988A94201D10221FA
:1018300000E0012106918118079B0B81FF234033B3
:1018400016525B1B8B80125A0998641C02800A98FE
:1018500089880180BC42BFDB0698A3E78C06002084
:10186000493243207772697465206F722072656116
:1018700064206572726F722E0A200000494943206D
:1018800072656164203A0000257820000A0000009B
:10189000746F7563682069643A25642C0A0000003F
:1018A0003C11002030B529488FB0C16B0225294377
:1018B000C163C06B002428400994079408940E90DB
:1018C0000A940B940C941C210D946846FFF753FC6A
:1018D00020481F4901603F218460416004611E4926
:1018E0008461C16001F064FA002801D000F0ECF8D6
:1018F00001200003079007A9164801F0D1FA00283B
:1019000001D000F0E1F8134801F0CCFB002801D031
:1019100000F0DAF80B940BA90E480D9401F018FAB8
:10192000002801D000F0D0F860200090192040017C
:1019300001900022694602950494064801F01EFBBE
:10194000002801D000F0C0F80FB030BD00100240F8
:1019500000040040EC070020E703000010B5024837
:1019600000F02CF910BD00005C0A002010B500F05A
:1019700037F8034800F022F9024800F01FF910BDC3
:10198000A4090020000A002010B50446006C094993
:101990008008800040186064207814210838FFF720
:1019A000A7FB04498031A164C106C90E012088400B
:1019B000E06410BD000802400179084B8906890ED9
:1019C0008A00D2180265054A4432491E42658A07D8
:1019D000920F01219140816570470000FC08024090
:1019E00070B5134B186813491C240D6C0222254056
:1019F0001646AE40304219D008680568AD0715D5C7
:101A000005680A26B54305605868096C21408A407C
:101A1000104358600848006881680906FCD410200B
:101A200005210907886105490020087070BD000084
:101A300000000240A4090020D8060020240600204F
:101A4000F8B516460F460446002502F0FDFA0028B8
:101A500002D1A068B0420CDA0120F8BD21682069EB
:101A6000405C78552068E168401CFFF757FB6D1C0F
:101A70002160B542F2DBA068801BA0600020F8BDA9
:101A800010B5012000F05CF9022000F059F910BDFA
:101A900010B50A46044602F0DEFA002804D1A16817
:101AA000E068401A012801DA012010BD6168206950
:101AB00042546068E168401CFFF730FB6160A06839
:101AC000401CA060002010BD72B6FEE7F0B50028F3
:101AD00008D0014620314A79022A05D00422C26387
:101AE000002008710120F0BD026813680E24A34392
:101AF0001360426C1468FF2301339C431460026836
:101B000014686408640014600C4E7268056C1C2430
:101B1000254001242746AF403A437260826CC56C71
:101B20005560026D002A05D015689D431560826DD1
:101B3000406D42604C7100200871F0BD0000024011
:101B4000F8B50024014620314A79022A03D0042145
:101B5000C16301242DE0026813680E25AB431360B6
:101B6000026813685B085B001360426C1368FF2512
:101B70000135AB431360104E7268056C1C231D4089
:101B800001231F46AF403A437260826CC56C5560BA
:101B9000026D002A06D016681D02AE431660426D23
:101BA000856D55604B7100220A71816B002900D050
:101BB00088472046F8BD000000000240F0B42C4DDC
:101BC0002B6801680A68046C1C273C400426A64068
:101BD0001E4211D056070FD50A68920603D40B682F
:101BE000042293430B606A68036C04213B409940D4
:101BF0000A436A60016B1CE00227A74006461F40AB
:101C00002036002F19D0970717D50A68920605D4F9
:101C10000A680A239A430A60012171716B68026C99
:101C20001C210A40022191400B436B60002131715D
:101C3000C16A00291AD0F0BC08470827A7401F42F4
:101C400014D0120712D50A680E239A430A606A68F4
:101C5000036C1C210B4001210C469C4022436A600E
:101C6000C163717100213171416BE2E7F0BC7047D3
:101C70000000024070B504003FD0254825681421BB
:101C80002818FFF735FA8000206402202646203607
:101C9000707128681F4908402860A168E06862697F
:101CA0000143206910430143A0690143E0690143F6
:101CB000206A014320680268114301602046FFF753
:101CC00063FE0121A06889030025884200D1656078
:101CD0002079616C8006800E0860A06CE16C416028
:101CE0006068401E03280AD82046FFF765FE206D75
:101CF0000560606DA16D416004E0012070BD256547
:101D00006565A565E563012070713571002070BDC2
:101D1000F8FFFDBF0F80FFFF70B5044600F0D2F85A
:101D20000546601C02D004480078241800F0CAF868
:101D3000401BA042FAD370BD00060020704700008F
:101D400070B5084D0446E868204203D0EC60204698
:101D500000F00AF82869204203D02C612046FFF7E2
:101D6000EDFF70BD0018024070470000F0B5002282
:101D70008EE0012595402B407ED00C79A407A40F5E
:101D8000012C01D0022C10D1866854000327A740F3
:101D9000BE43CF68A740374387604468AC430D79A2
:101DA000ED06ED0F9540254345600C79E443A4070B
:101DB00008D0C56854000326A640B5438E68A640E7
:101DC0002E43C6600C79A407A40F022C0CD1D408B2
:101DD000A40027183D6A5407E40E0F26A640B54319
:101DE0000E69A6402E433E62056854000326A640B5
:101DF000B5430E79B607B60FA6402E4306604C6871
:101E0000A403A40F43D09508244CAD002F193D6EB8
:101E10009407E40E0F26A640B54305263607B042C8
:101E200001D100260FE01E4EB04201D101260AE08A
:101E30001C4EB04201D1022605E01B4EB04201D13A
:101E4000032600E00526A6402E43144D3E662C686E
:101E50004E689C43F60200D51C432C606C684E68AB
:101E60009C43B60200D51C436C600C4D80356C68F9
:101E70004E689C43B60300E009E000D51C436C604B
:101E80002C684E689C43F60300D51C432C60521C02
:101E90000B681C46D44000D06BE7F0BD0018024030
:101EA0000004005000080050000C00500069084079
:101EB00000D001207047002A01D081617047816203
:101EC000704700000148806870470000000600204D
:101ED00070B5024640325378202B1CD11378012B69
:101EE00019D0012414702423537003681D68A5437E
:101EF0001D6003681D682603B5431D6003681D68E7
:101F00000D431D600068016821430160202050706E
:101F10000020107070BD022070BD70B502464032C6
:101F20005378202B1BD11378012B18D00125157065
:101F30002423537003681C68AC431C6003681C684E
:101F40000F263602B4430902214319600068016874
:101F500029430160202050700020107070BD0220C5
:101F600070BD000070B5040006D025464035687885
:101F70000026002802D005E0012070BD2E7020460A
:101F800000F05AF924206870206801684908490067
:101F900001600F2160680906884321680861206894
:101FA00082680121C9038A438260E0680128A06831
:101FB00008D021229202104322689060E068022833
:101FC00002D005E00843F7E701202268C002506014
:101FD000206842680F4B1A4342602068C2688A43F7
:101FE000C260616920690843A16909020843216848
:101FF000C860216AE06908432168086020680168B8
:102000000122114301606664202068702663AE706F
:10201000002070BD00800002FFB505460446403533
:10202000687881B0202878D12878012875D00120DF
:102030002870FFF747FF0746012200901923D103BC
:10204000204601F08FFC00283CD12220687010202F
:10205000A8700026666403986062049860856663D1
:10206000618D2F48FF2903D9FF22228500903BE094
:10207000618D218500903DE02046029901F05CFCD5
:1020800016E001F097FC00281CD12068406A616AC4
:102090000870606A401C6062208D401E80B22085FE
:1020A000618D491E6185618D002901D000280CD009
:1020B000608D0A9900283A462046E2D101F0C4FC1E
:1020C00000281CD0012005B0F0BD0097002280211F
:1020D00020460A9B01F046FC0028F3D1608DFF28C2
:1020E00005D9FF222285009601231B06C4E7608DD7
:1020F00020850096208D0123C2B25B06BCE72068D4
:102100002022C26120684168064B194041606A7014
:10211000AE702E700020D6E7FFE70220D3E7000064
:102120000024008000E800FEFFB505460446403567
:10213000687881B0202878D12878012875D00120CE
:102140002870FFF7BFFE0746012200901923D10334
:10215000204601F007FC00283CD1212068701020A7
:10216000A8700026666403986062049860856663C0
:10217000618D2F48FF2903D9FF22228500903BE083
:10218000618D218500903DE02046029901F0D4FB4D
:1021900016E001F07FFC00281CD1606A21680078FD
:1021A0008862606A401C6062608D401E6085208D80
:1021B000401E80B22085618D002901D000280CD0FE
:1021C000608D0A9900283A462046E2D101F03CFC95
:1021D00000281CD0012005B0F0BD0097002280210E
:1021E00020460A9B01F0BEFB0028F3D1608DFF283A
:1021F00005D9FF222285009601231B06C4E7608DC6
:1022000020850096208D0123C2B25B06BCE72068C2
:102210002022C26120684168064B194041606A7003
:10222000AE702E700020D6E7FFE70220D3E7000053
:102230000020008000E800FE10B586B0044614219E
:102240006846FEF798FF1249206888421ED1114C5B
:10225000606B012108436063606B084005900320B8
:10226000C0020090122001900020029003900620EE
:102270000490052069460007FFF778FDE16B012017
:1022800080050143E163E16B0140059106B010BD9B
:102290000058004000100240024881680278891806
:1022A000816070470006002010B5084800240168CE
:1022B000821511430160032000F00AF8002801D0C4
:1022C000012401E000F028F8204610BD0020024063
:1022D00070B50F4E002431780546002915D07D20B9
:1022E000C000FEF705FF01460A480068FEF700FF40
:1022F00000F016FD002808D1042D06D20022294640
:10230000401E00F02BF8756000E00124204670BDEF
:10231000000600200C06002008B5094801680122CB
:102320001143016000681040009005484038C26BBE
:1023300001040A43C263C06B0840009008BD00005E
:1023400040100240002805DBC106C90E012088406C
:10235000014908607047000000E100E010B502F09C
:10236000ABFB10BD10B50F4C216803225202914304
:1023700001432160C11FFF39FA390ED10A480621F5
:10238000006848430949FEF7B3FE401C02E00028FC
:1023900005D0401E61694905F9D4002010BD032015
:1023A00010BD0000007000400C06002040420F00ED
:1023B000FEB5044600250068524E2F46800359D5CD
:1023C000002001904F484038C06BC0000AD44D48EF
:1023D0004038C26B01040A43C263C06B08400090DE
:1023E0000120019048480168821511430160FFF700
:1023F00069FD009007E0FFF765FD0099401A02288B
:1024000001D903252CE040480068C005F3D5002D14
:1024100026D1F0690321090208400FD06169814289
:102420000CD0F06903210902F269884301210904F3
:102430000A43F261F2698A43F261F061C00759D040
:10244000FFF740FD009006E0FFF73CFD0099411AC0
:102450002E488142D5D8F0698007F5D5002D49D0A6
:102460002F460198002805D026484038C26B010449
:102470008A43C2632078C00705D07069616880080C
:102480008000084370612078800606D570690321BA
:1024900009038843A168084370612088400411D56E
:1024A00070692169800080080843706101212069FA
:1024B0008907884206D113484038C16801221204B6
:1024C0001143C1602088000512D57069032189037A
:1024D0008843E168084370610121E068890388420C
:1024E00006D108484038C168012212041143C16076
:1024F0003846FEBDF069032109028843616908433B
:10250000F061AEE740100240007000408813000008
:10251000F8B50D46040044D04D4800684007400F10
:10252000A84214D24A4F3868C008C0002843386017
:10253000FFF7C8FC064605E0FFF7C4FC811B4548D1
:10254000814260D838684007400FA842F4D1206823
:10255000414E81070DD5400704D5B0680721090316
:102560000843B060B0680F2109028843A16808439E
:10257000B0602078C00731D0606801280AD00228F6
:102580000BD000280FD03449403103280ED0C96940
:10259000890704E03168890301E031688901002975
:1025A00006DB0120F8BD31684905F8E7096AEFE765
:1025B000B168C908C9000143B160FFF783FC074651
:1025C00005E0FFF77FFCC11B224881421BD8B068A1
:1025D000382108406168C9008842F2D11C4801686E
:1025E0004907490FA94216D90168C908C9002943FA
:1025F0000160FFF767FC074607E0FFF763FCC11BBC
:102600001448814201D90320F8BD114800684007F1
:10261000400FA842F1D12078400706D5B1680720C5
:1026200000038143E0680143B16000F031F8B16814
:102630003C2289091140094A515CC906C90EC840AB
:102640000749086007480068FFF742FEF8BD000030
:10265000002002408813000000100240B86E0008FD
:102660000C06002004060020064807490068896817
:10267000064A4904490F8900515CC906C90EC84081
:10268000704700000C06002000100240F86E0008A1
:1026900010B5204CA068204A8006400F16D0A068D4
:1026A0008006410F501001290FD0A1688906490FFB
:1026B000022912D0A0688006400F042823D0A06809
:1026C0008006400F032821D0002010BD2068012182
:1026D0008004400F8140104612E0E1688B07E168FA
:1026E0009B0F4906490F491C032B00D01046FEF7EB
:1026F000FFFCE1684904490E4843E168490F491C61
:10270000FEF7F6FC10BD0120C00310BD7D200002C5
:1027100010BD0000001002400024F400F8B50400D1
:102720007ED020783827C007E74E002845D0B06813
:10273000F16838408907890F102802D008280AD08C
:1027400001E0032907D0012160680904884209D10A
:102750003068084314E0306880032ED56068002894
:10276000DED02AE0052301221B049204984230683F
:1027700002D110433060EBE788433060306890430B
:102780003060606800280CD0FFF79CFB054604E031
:10279000FFF798FB401B642873D830688003F7D597
:1027A0000BE0FFF78FFB054604E0FFF78BFB401BB8
:1027B0006428F1D830688003F7D42078800769D581
:1027C000B068F16838408A070721920FC9021028C3
:1027D00002D0002813D001E0022A10D0E0680028BF
:1027E00046D0306888432169084330603168FF2053
:1027F000013001433160FFF765FB05462CE032688C
:10280000520502D5E268002A8AD072687F231B0233
:102810009A4363691B021A437260002810D100E0DA
:102820008DE03068884321690843306030680121B9
:102830008004400F8140A548FEF75AFCA449086077
:10284000A4480068FFF744FD002878D122E0FFF794
:1028500039FB401B02289FD830684005F7D57068C7
:102860007F2109028843616909020843706011E011
:102870003168FF20013081433160FFF723FB0546BB
:1028800005E096E0FFF71EFB401B022884D8306865
:102890004005F7D42078904D00072ED5B06880060B
:1028A000400F03280AD0A0690028286A16D0012109
:1028B00008432862FFF706FB07460BE0286A8007FB
:1028C0001BD5A06900289FD017E0FFF7FBFAC01BBB
:1028D00002286ED8286A8007F7D50EE0400840002D
:1028E0002862FFF7EFFA074604E0FFF7EBFAC01B98
:1028F00002285ED8286A8007F7D4207840076AD576
:1029000000200090B0688006400F042818D0F06BBB
:10291000C00008D4F16B012000070143F163F16BA3
:102920000140012000906D480168C90518D4026873
:1029300081150A430260FFF7C5FA07460CE083E001
:10294000E869800747D5A06800287DD043E0FFF7FD
:10295000B9FAC01B02282CD860480068C005F6D51B
:10296000A068012810D004210528E86910D040088B
:102970004000E861E8698843E861A068002814D055
:10298000FFF7A0FA07460CE0E86901210843F3E7E6
:102990000843E861F8E7FFF795FAC11B5048814208
:1029A00065D8E8698007F6D50DE0FFF78BFA074692
:1029B00006E05CE0FFF786FAC11B4948814256D821
:1029C000E8698007F6D40098002804D0F16B012054
:1029D00000078143F163E069002873D0B16889067C
:1029E000490F02294DD001273F060228306805D043
:1029F000B8433060FFF766FA04463AE0B843306007
:102A0000FFF760FA054604E0FFF75CFA401B022876
:102A10002DD830688001F7D4616A206AA26A084321
:102A2000E16A120211430843216B0843F1682D4A01
:102A300011400843F060306838433060F06801218D
:102A400009070843F06000E03AE0FFF73BFA04466C
:102A500004E0FFF737FA001B022808D8306880012D
:102A6000F7D52FE0FFF72EFA001B022801D903202B
:102A7000F8BD30688001F5D4F0681B490840F0606B
:102A800020E00128F4D0F068226A8107890F914282
:102A900016D17021626A0140914211D17F21A26A50
:102AA00009020140120291420AD11F214904E26A3F
:102AB0000140914204D1400F216B4007884201D070
:102AC0000120F8BD0020F8BD001002400024F400F1
:102AD0000C06002004060020401002400070004058
:102AE000881300008C80C11FFCFFFEEFF8B50400C6
:102AF0000CD0606A002600280AD02661666125464F
:102B00004035A662687F002808D00BE00120F8BDA0
:102B10006168C81FFD38F2D0E661F0E72E772046E5
:102B200000F05CF802226A7720680168402399432C
:102B300001600723E1681B02994201D9002001E0EE
:102B4000012000030F273F02B94202D0994200D072
:102B5000A662FF236168053319402127A368BF02DD
:102B60003B40194323691340227D1943D207D20FFA
:102B700011430123A2695B021A401143E269382321
:102B80001A401143226A80231A401143A26A9B0112
:102B90001A40114322681160A1690422090C1140F6
:102BA000626A10231A401143626B08231A401143D2
:102BB0000F23E2681B021A40114301221203104046
:102BC0000143206841602068C16952109143C1618E
:102BD0002666012068770020F8BD0000F0B587B0B8
:102BE000044614216846FEF7C6FA454A216845485E
:102BF000022703250026914244D1424940310B6807
:102C0000821413430B60096811400591416B012246
:102C100011434163406B029610400590C220009022
:102C2000052069460197049603950007FFF79EF873
:102C3000364D3548AE601027EE6081C5EE602E61DE
:102C40006E618020AE61A8603048083DFFF712F841
:102C5000002801D0FEF738FFA5652B48AC622C4D4B
:102C600014302860AF601120EE6068606E61AE6164
:102C7000EE6180202E622861284639E06565AC62ED
:102C800007B0F0BD234A9142FAD1C16B121411432F
:102C9000C163C16B11400591416B39434163406B86
:102CA000019738400590101100900520049002967D
:102CB000039569461848FFF759F80120C0020090B3
:102CC000029669460197049603951348FFF74EF85C
:102CD0000D48124D14382860132068601020EE60F3
:102CE000A8606E61AE61EE6180202E622861284688
:102CF000FEF7C0FF0028C1D0FEF7E6FEBEE70000E9
:102D000000300140001002401C000240A4090020D5
:102D1000000A002000380040000400505C0A002037
:102D2000094910B5401E884201D9012010BD074C49
:102D300060610321081F01F0BFFE0020A061072091
:102D40002061002010BD0000FFFFFF0000E000E058
:102D5000F0B502462032137F012B23D001231377D5
:102D60000223537704686368A5680F4EB44204D108
:102D70000F273F05BB434F683B437027BB430F689A
:102D80001F4367600068B04202D0084B984204D1EC
:102D9000802389689D43294381600120507700206A
:102DA0001077F0BD0220F0BD002C0140000400406F
:102DB00070B5040005D025462035687F002802D074
:102DC00006E0012070BD00202877204600F016F8AC
:102DD00002206877211D206801F0D8F901224034D3
:102DE0002272AA77EA7722706270A270E270227172
:102DF0006271A271E2716A77002070BD08B5006847
:102E00000F4A1049904202D10A68C01412E00E4ADB
:102E1000904209D10B484038C26B02210A43C26379
:102E2000C06B0840009008BD084A9042FBD10A6878
:102E30000120400402430A6009680140009108BD76
:102E4000002C0140401002400004004000440140BA
:102E5000014620314A7F012A01D001207047022219
:102E60004A770168CB6801221343CB6000680949A7
:102E7000884202D00849884207D18168074B19402F
:102E8000062905D0DB1F994202D001681143016079
:102E900000207047002C01400004004007000100A2
:102EA000F8B5054604462035287F0026012817D0AE
:102EB00001272F7702206877206882682E4B1A40FE
:102EC000FF231B029A4382600868502836D00EDC2C
:102ED00020284DD006DC00284AD010281ED147E01B
:102EE0000220F8BD302843D0402817D138E06028B0
:102EF0002CD0702818D001221203801A0FD09042D3
:102F00000CD1CB684A688968206801F08AF920688A
:102F10008168012292031143816000E001266F77EE
:102F2000002028773046F8BDCB684A688968206859
:102F300001F077F9206881687722ECE7CA68496870
:102F4000206801F0D7FA5021206806E0CA68496875
:102F5000206801F0E0FA6021206801F06DF9DEE7F9
:102F6000CA684968206801F0C5FA40212068F4E782
:102F7000226801461046F0E788FFCEFFF8B5044608
:102F80000020264620360090307F0D4601280CD0C8
:102F90000120082730770C2A48D008DC002A10D0FE
:102FA000042A1ED0082A06D130E00220F8BD102ADB
:102FB00052D0142A60D00120009000203077009871
:102FC000F8BD206801F042F92068816939438161C8
:102FD00020688169042291438161206881692A699E
:102FE00011E0206801F070F9206881690122D202A5
:102FF0001143816120688169521091438161206889
:1030000081692A69120211438161D6E7206801F0C3
:103010009BF92068C1693943C1612068C1690422F4
:103020009143C1612068C1692A6912E0206801F0FA
:10303000CBF92068C1690122D2021143C161206825
:10304000C269012189028A43C2612068C1692A6973
:1030500012021143C161B0E7206801F0EBF920686A
:10306000416D394341652068426D04218A434265C0
:103070002068416D2A6912E0206801F009FA206891
:10308000416D0122D202114341652068426D012148
:1030900089028A4342652068416D2A691202114300
:1030A00041658AE770B5040005D025462035687F64
:1030B000002802D006E0012070BD002028772046BD
:1030C00000F016F802206877211D206801F05EF8F4
:1030D000012240342272AA77EA7722706270A270CD
:1030E000E27022716271A271E2716A77002070BD94
:1030F0007047000030B505462C462030403400298A
:103100000CD004290CD008290CD00C290CD0102983
:103110000CD0E278012A0BD0012030BD827FF9E784
:10312000C27FF7E72278F5E76278F3E7A278F1E764
:10313000022200292FD004292FD008292FD00C29B2
:103140002FD010292FD0E2700122286801F05CF8FE
:1031500016492868884205D0154A904202D0154A7F
:10316000904204D1426C0123DB031A434264286875
:103170000122884202D01049884207D181680F4B52
:103180001940062905D0DB1F994202D0016811437E
:103190000160002030BD8277D6E7C277D4E7227085
:1031A000D2E76270D0E7A270CEE70000002C0140A9
:1031B00000440140004801400004004007000100B5
:1031C00070B504460D460068002201F01DF81F4945
:1031D0001D4822688B10824205D01D48824202D0D1
:1031E0001C4882420AD1106A084207D1106A18426C
:1031F00004D1506C0126F603B04350642068026A83
:103200000A4206D1016A194203D1016849084900FE
:103210000160214620310120002D0BD0042D0BD060
:103220004034082D0AD00C2D0AD0102D0AD0E070A1
:10323000002070BD8877FBE7C877F9E72070F7E7D3
:103240006070F5E7A070F3E7002C01401111000059
:10325000004401400048014010B5014680310A7821
:10326000012A15D001220A7024224A6002681368DC
:10327000146864086400146001225207934300221A
:10328000426600680360202048600A70104610BD46
:10329000022010BD7047704770B504460546803463
:1032A000207801281AD0012020702420606028682E
:1032B0000668026852085200026028688268072384
:1032C0005B069A430A438260284601F037F9286872
:1032D0000660202060600020207070BD022070BD5C
:1032E00070B50446054680342078012819D00120A5
:1032F0002070242060602868066802685208520026
:10330000026028688268D200D2080A438260284698
:1033100001F014F928680660202060600020207009
:1033200070BD022070BD704770477047F8B50368E4
:103330000446D86919689A68B24D06462E4025465B
:103340008035002E75D0B04EB04F16400F40374339
:103350006ED0C70706D0CF0504D501271F62EB68E2
:103360003B43EB60830708D5D30706D027680223C9
:103370003B62EB6804273B43EB60430708D5D30768
:1033800006D0276804233B62EB6802273B43EB60CF
:10339000030709D520230B40334305D026680823B3
:1033A0003362EE681E43EE60030509D54B0107D575
:1033B00001232668DB023362EB6820263343EB608F
:1033C000EB68002B42D080060AD520200140C005C2
:1033D0000240114304D0216F002901D020468847C4
:1033E000E86821688968490602D42821084232D059
:1033F000204601F067F920688168490627D5EFF378
:103400001081012282F310888368402293438360F5
:1034100081F31088E06F002819D07D498163E06F47
:10342000FEF78EFB002811D0E06F816B0DE000E00D
:1034300017E0860615D5012720263F070E401740C6
:103440003E430ED0216FB1E020468847F8BD2046AC
:10345000FFF76BFFF8BD2046FFF767FF0020E8602D
:10346000F8BDE66E012E7DD1C6067BD5CE0679D598
:1034700010221A62206881682646490640360029D3
:1034800047DAE36F196849680904090CE8D0B78B7B
:103490008F42E5D9F18319680968890634D4EFF3BE
:1034A0001081012383F3108803681701BB43036075
:1034B00081F31088EFF31081012080F310882068D9
:1034C00083685B085B00836081F31088EFF31081F1
:1034D000012080F31088206883684027BB43836005
:1034E00081F310882020A8600020E066EFF31081AF
:1034F000012080F31088206803689343036081F300
:103500001088E06FFEF7E2FAB08BF18B401A81B2BF
:1035100033E0B18BF38BC91AF38B89B2002B9FD0A8
:1035200000299DD0EFF31083012686F310880668EA
:10353000FF272137BE43066083F31088EFF3108323
:10354000012080F31088206886682F4FFF433E409B
:10355000866083F310882020A8600020E066EFF3E7
:10356000108300E00DE02067012080F310882068C0
:1035700005689543056083F310882046FFF78AFEAF
:10358000F8BDC60208D5560206D50120000518620E
:103590002046FFF7C9FEF8BD06060BD50127802699
:1035A000FF050E403A40164304D0616F002900D059
:1035B0004AE7F8BD420614D54A0612D52046EFF375
:1035C0001081012282F310881A684024A2431A60F5
:1035D00081F31088202169600021416700F011F912
:1035E000F8BD020205D54A0003D52046FFF79BFE31
:1035F000F8BDC001FCD50029FADA2046FFF74BFEE2
:10360000F8BD00000F0800000100001020010004B8
:10361000B146000870B5040005D0254680356868BD
:10362000002802D006E0012070BD0020287020464E
:1036300000F026F8242068602068016849084900E5
:103640000160204601F070F80128EDD0A06A002842
:1036500002D0204600F094FF206841680922D2027F
:1036600091434160206881682A22914381602068EB
:103670000168012211430160204600F0E7FF70BDA0
:10368000F0B58DB0044614216846FDF774FD18218D
:1036900005A8FDF770FD22492068224C022700266C
:1036A000012588421CD105A806960595FEF780FEE7
:1036B000002801D0FEF708FA1A48403002680121BC
:1036C00089030A430260006808400B90606B28433E
:1036D0006063606BC007C00F0B900320400212E0D4
:1036E0001149884219D1E16B012040040143E16393
:1036F000E16B01400B91606B28436063606BC00716
:10370000C00F0B900C20009005200296694601978F
:10371000039604950007FEF729FB0DB0F0BD0000ED
:10372000003801400010024000440040FFB504464C
:1037300083B080300190406815460E4620285ED147
:10374000002E0AD0002D08D0A168C001814207D107
:103750002069002804D1F00702D0012007B0F0BD95
:103760000198007801284AD001980121017001993F
:103770000020C860019821214160FEF7A3FB274685
:1037800040370290BD82FD820120A1680003814282
:1037900002D12069002805D0354600260199002075
:1037A000087011E00025F9E700228021204601F091
:1037B00071F8002815D1002D15D02168287888626D
:1037C0006D1CF88A401EF882F88A029B0028069831
:1037D0000090E9D100224021204601F05BF800284A
:1037E00008D00320BAE730882168C005C00D886280
:1037F000B61CE6E70198202141600020AEE70220D8
:10380000ACE77047FEE701688A69D243920701D4AA
:1038100000228A6200688169C943C90703D08169AF
:103820000122114381617047F7B50446006882B0F8
:10383000816900262546C906403537460092002991
:1038400049DA1021C16136E00398401C33D0FEF7FD
:1038500039FB0099411A0398814201D800282AD1E6
:1038600020684168012292031140AA788369DB43F2
:103870001B041BD401239B03994217D0202A15D087
:10388000416819434160FEF71DFB00900EE0FEF712
:1038900019FB0099401A192808D9616C20200143AE
:1038A000616468700020A870287001262068806913
:1038B000C0438006EBD420688069C043800602D5EF
:1038C000002EC1D004E0002E02D121682020C86162
:1038D00004200743012621688869C20504D5012216
:1038E00017431202CA610126410505D508210F437D
:1038F0002268C901D1610126800506D5022007434F
:1039000021680002C861012601E0002E0FD0204688
:10391000FFF779FF20684168064A11404160606CFA
:1039200038436064202068700020A87028703046FA
:1039300005B0F0BD00E800FE10B58905890D120440
:103940001143029C19430068214349004268490819
:10395000630D034C23439A430A43426010BD0000A9
:10396000FF63FF03F8B51C4617460E46054609E0FF
:10397000601C07D0FEF7A6FA0699401AA0420BD8A1
:10398000002C09D028688169304688430FD0002078
:10399000B842EDD00020F8BD696C20200143696475
:1039A000403568700020A87028700120F8BD012003
:1039B000EEE70000F7B5002705460E460446403501
:1039C00032E031462046029AFFF72EFF002801D050
:1039D0000120FEBD20688069C04380061CD4206899
:1039E0008169C943490702D4218D002921D1816908
:1039F000C943C90604D41021C1610420606400E0F9
:103A0000676420682022C261206841680D4B19401C
:103A100041606A70AF7013E0FEF754FA0299401AE1
:103A2000B04208D8002E06D020688069C043400705
:103A3000C7D40020FEBD616C202001436164687022
:103A40002F70C5E700E800FE70B516460D46044627
:103A50000FE0324629462046FFF7E6FE002801D057
:103A6000012070BDFEF72EFA801BA84208D8002D59
:103A700006D020688069C0438006EAD4002070BD6B
:103A8000616C202001436164403460700020A070AC
:103A90002070E5E770B516460C46054611E0324643
:103AA00021462846FFF7C0FE002801D0012070BD46
:103AB000601C06D0FEF706FA801BA04208D8002C36
:103AC00006D028688069C0438007E8D4002070BD14
:103AD000696C202001436964403568700020A8703B
:103AE0002870E3E7F0B587B014216846FDF743FB83
:103AF0001B48416B012529434163416B29400591D6
:103B0000426B02210A434263406BCE01084000240D
:103B1000052700963F070590029469460195039496
:103B20003846FEF723F903200294039480030D4CDA
:103B30000090694601952046FEF718F9012291038D
:103B40002046FEF7B8F90122D1032046FEF7B3F96B
:103B5000012231463846FEF7AEF9002007B0F0BD2D
:103B6000001002400004005010B5FFF7DFFD10BD4B
:103B700070B50D460446164611462846FDF7FBFA79
:103B8000002060602060E6602561A06070BD0000DC
:103B90000A48C16B02151143C163094801688215C7
:103BA00011430160084907480860BFF34F8F084977
:103BB0000648C860BFF34F8F00BFFDE7001002400A
:103BC0000070004055AA55AA00B100400400FA0553
:103BD00000ED00E008B5FF23FF22002100904133F3
:103BE000E132084608F0C8FA08BD000010B501240B
:103BF000074B24039C626100996106498A68920719
:103C0000FCD5087388680006FCD49C6110BD0000D8
:103C1000000400500038004010B50124074B240375
:103C20009C626100996206498A689207FCD5087314
:103C300088680006FCD49C6110BD000000040050A0
:103C40000038004001494860704700002806002005
:103C5000F0B587B014216846FDF78DFA3E48426BF7
:103C600004210A434263426B0A400592416B0125DD
:103C700029434163416B29400591416B0226314341
:103C80004163416B31400591426B08210A43426315
:103C9000406B324F0840059005200022394600074E
:103CA000FEF709F90321002209032D48FEF703F965
:103CB000002240212B48FEF7FEF8012211462A4837
:103CC000FEF7F9F8680300246A4631C269462548C0
:103CD000FEF74CF83120000401900520009569465C
:103CE00002950007FEF742F8052002946946000796
:103CF000009701950394FEF739F803200003009024
:103D000002946946019503941548FEF72FF8402068
:103D1000009002946946019503941248FEF726F834
:103D2000009502946946104801950394FEF71EF829
:103D30001120000401906946009602940A48FEF79B
:103D400015F8002201210520FEF708FB0520FEF7EB
:103D5000F9FA07B0F0BD000000100240108000002A
:103D60000004005000080050000C005010B513482B
:103D70001149016012494160002181600161416186
:103D800081610122C161C2600162FEF7EBF8002887
:103D900001D072B6FEE700210848FEF799F8002826
:103DA00001D072B6FEE700210448FEF7B6F80028FD
:103DB00001D072B6FEE710BD005800408C0600200E
:103DC0005B3D300010B511480F490160FF210531FE
:103DD000416000210722816012020161C2604161DD
:103DE000C161012201625202416282618162072245
:103DF000C262016308214163FEF778FE002801D00A
:103E000072B6FEE710BD000000300140D806002069
:103E100010B511480F490160FF21053141600021B3
:103E20000722816012020161C2604161C161012209
:103E3000016252024162826181620722C2620163B1
:103E400008214163FEF752FE002801D072B6FEE75A
:103E500010BD0000003800403C07002008B51348A2
:103E60000268012189040A430260006800220840B8
:103E7000009010480E4901603F21826041600E4968
:103E80000261C16080218161FEF792FF002801D0AC
:103E9000FDF71AFE002211461620FEF75FFA1620E3
:103EA000FEF750FA0348FEF7D3FF08BD401002406A
:103EB00000480140B80A0020E703000010B588B0B0
:103EC0000024009401941649164802940394049423
:103ED0000594069412C004608460C46012490461B1
:103EE00041600838FEF764FF002801D072B6FEE793
:103EF00001200003009069460A48FEF7D1FF002820
:103F000001D072B6FEE70494059404A9054806940E
:103F1000FEF71EFF002801D072B6FEE708B010BD04
:103F2000002C0140A0070020FFFF000010B588B062
:103F30000024009401941748029403940494059477
:103F40001349069401603F21846041600461124975
:103F50008461C160FEF72CFF002801D072B6FEE735
:103F600001200003009069460A48FEF799FF0028E7
:103F700001D072B6FEE78020069004A9049405489B
:103F8000FEF7E6FE002801D072B6FEE708B010BDCD
:103F900000040040EC070020E703000010B51848BB
:103FA00016490160E1214902416000218160C16040
:103FB00001618161C16101620C22416242618162E1
:103FC000FFF728FB002801D072B6FEE700210C485D
:103FD000FFF786F9002801D072B6FEE700210848F5
:103FE000FFF75AF9002801D072B6FEE70448FFF740
:103FF00033F9002801D072B6FEE710BD0038014049
:104000008408002010B50D480B490160E121090327
:10401000416000218160C16001618161C161016213
:104020000C22416242618162FFF7F4FA002801D05C
:1040300072B6FEE710BD00000044004014090020E5
:10404000FEE77047806870478068002801D0002034
:104050007047012070478168C068814201D101200A
:10406000704700207047000030B5034600200A4C1E
:104070000FE01A781202504000225B1C050402D5A2
:104080004000604000E04000521CD2B280B2082ADA
:10409000F4D3491EEDD230BD21100000704770B539
:1040A000012604464518F60301F0E8FF204601F01A
:1040B000BDFF01F06FFFC007FBD1A419AC42F3D3E1
:1040C00070BD70B514460D46064601F0D7FF224676
:1040D0002946304601F078FF01F05CFFC007FBD1B4
:1040E00070BD10B5FEF7D8F810BD30B591B03421D1
:1040F0006846FDF740F8002401200D940E940F94BB
:1041000040021094FEF72EF90225E8010390009575
:104110004020059008200A9080030B90079500032B
:1041200004940C90089509946846FEF7F7FA002865
:1041300001D072B6FEE707200D900F9402210E9574
:1041400010940DA8FEF7E4F9002801D072B6FEE73E
:1041500011B030BD01200249C006886070470000E0
:1041600000ED00E00748012201681204914201D9E4
:1041700000210160491C0160034901200968C04316
:104180000861704710060020B80A002070B5026868
:10419000184C194EA04201D0B04204D113467025EC
:1041A0004A68AB431A43154B154DA04208D0B042A4
:1041B00006D0144EB04203D0984201D0A84204D198
:1041C00003263602B243CE6832438026B2434E699C
:1041D000324302608A68C2620A688262A04203D0E7
:1041E000984201D0A84201D10969016301214161CE
:1041F00070BD0000002C014000040040004401405C
:10420000004801400020004010B5C906C90E012336
:10421000046A8B409C430462036A8A40134303622E
:1042200010BD30B58468FF252D021B021343AC433B
:104230000B432343836030BD8268034B1A400A431B
:1042400007210A43826070478FFFCFFFF0B5026AF3
:10425000520852000262056A43688269164C174E82
:10426000224092080C6892001443022295438A6807
:10427000134F2A43B04204D0B84202D0114DA84295
:1042800006D10825AA43CD681543042295432A4642
:10429000B04204D0B84202D00A4DA84206D103254C
:1042A0002D02AB434D691D438B692B4343608461F1
:1042B000496841630262F0BD8FFFFEFF002C0140A0
:1042C0000044014000480140F0B5026A10239A43BF
:1042D0000262046A43688269174D184E2A4003251A
:1042E0002D02AA430D682D021543202294438A68AB
:1042F00012012243B04207D11446CA688027BC434A
:10430000120122434024A243B04205D00C4CA042EB
:1043100002D00C4CA04208D10324A402A3434C6950
:10432000A4001C438B699B0023434360856149685B
:1043300081630262F0BD0000FF8FFFFE002C014090
:104340000044014000480140F0B5026AFF230133F8
:104350009A430262046A4368C269174D174E2A40A5
:1043600092080D68920015430122520294438A6814
:1043700012022243B04207D11446CA68C714BC4394
:10438000120222430415A243B04205D00C4CA042B5
:1043900002D00C4CA04208D103242403A3434C694F
:1043A00024011C438B691B0123434360C561496899
:1043B000C1630262F0BD00008FFFFEFF002C0140D0
:1043C000004401400048014070B5026A01231B030C
:1043D0009A430262046A4268C369124D2B40032566
:1043E0002D02AB430D682D021D4301235B039C434B
:1043F0008B681E030C4B2643984205D00B4B98420A
:1044000002D00B4B984206D101241346A4034A69FB
:10441000A34392011A434260C56149680164066280
:1044200070BD0000FF8FFFFE002C014000440140E2
:104430000048014070B5026A01263604B2430262A8
:10444000036A4268446D0E4D2C400D68254374008C
:10445000A3430C8924041C430A4B984205D00A4B01
:10446000984202D0094B984204D113464A69B3439B
:1044700012021A434260456549688165046270BD55
:104480008FFFFEFF002C0140004401400048014026
:1044900070B5026A01231B059A430262036A4268EF
:1044A000446D104D2C400D682D02254301246405F8
:1044B000A3430C8924051C430B4B984205D00B4B9E
:1044C000984202D00A4B984206D101261346B60400
:1044D0004A69B34392021A43426045654968C1651F
:1044E000046270BDFF8FFFFE002C014000440140BC
:1044F0000048014030B5036A046A6408640004623D
:104500008469F025AC43120122430A24A3430B43E0
:104510008261036230BD30B5036A1024A343036295
:104520008369046A0F252D031203AB431A43A023AA
:104530009C43090121438261016230BDF8B5044604
:10454000416E4034002915D00068816880680901F7
:104550004D0F0A4E400F3746315C083F385CC000B3
:10456000FCF7C6FD6085785D715DC000FCF7C0FD9D
:104570002085F8BD01206085FAE70000B06E0008D4
:1045800010B5018DC90707D001684A6801235B0493
:104590009A43C36A1A434A60018D890707D50168A7
:1045A0004A6801231B049A43036B1A434A60018D36
:1045B000490707D501684A6801239B049A43436B66
:1045C0001A434A60018D090707D501684A6801232B
:1045D000DB039A43836B1A434A60018DC90607D5F2
:1045E00001688A6801231B039A43C36B1A438A60DC
:1045F000018D890607D501688A6801235B039A4308
:10460000036C1A438A60018D490612D501684B6814
:1046100001221205446C934323434B60416C914249
:1046200007D101684A6803235B059A43836C1A43E8
:104630004A60018D090607D501684A680123DB0439
:10464000C06C9A4302434A6010BD0000FEB50546A7
:10465000002680350446EE60FDF734FC01902068AA
:104660000068124F000709D5012100970022490573
:104670002046019B00F00EF900280DD1206800684B
:1046800040070BD501210097002289052046019B98
:1046900000F000F9002801D00320FEBD2020686052
:1046A000A860E6662E700020FEBD0000FFFFFF013F
:1046B00010B5806A002201464031CA83CA82FEF7E3
:1046C00034FE10BD10B5EFF31082012181F3108884
:1046D00001680B68FF242134A3430B6082F3108828
:1046E000EFF31082012181F3108801688B680D4C73
:1046F00023408B6082F31088C16E01290AD1EFF349
:10470000108281F3108801680B681024A3430B60AA
:1047100082F31088202288210A500021C166016797
:1047200010BD0000FEFFFFEFF8B504468168006988
:10473000E269014360690025104301432068026873
:104740004C4B1A400A43026020684168032212035E
:104750009143E26811434160216AA06901432068E6
:104760008268454B1A400A4382602068C16A626AC7
:10477000090909011143C1624049206888420FD1EB
:104780003F4840698007800F10D0012804D00228DC
:104790000CD0032809D101E0042007E0082005E03F
:1047A0003849884201D1002000E010200122E3694D
:1047B000D2033549354E364F93422AD1002806D0D0
:1047C000022807D0042807D0082843D108E0FDF7C5
:1047D0004BFF03E00A4603E0FDF75AFF02003ED01C
:1047E000606A4000315A1046FCF782FC6168400064
:1047F0004A088018FCF77CFC01461039B94229D8D8
:104800002349491C01400007420F20680A43C26047
:1048100025E0002806D0022807D0042807D0082861
:1048200018D108E0FDF720FF03E00A4603E0FDF79A
:104830002FFF020013D0606A4000315A1046FCF787
:1048400057FC61684A088018FCF752FC0146103991
:10485000B94201D9012502E0216880B2C860204632
:10486000012140304185018500202067606728468E
:10487000F8BD0000F369FFCFFFF4FF1100380140DD
:1048800040100240004400400024F400906E0008F4
:10489000EFFF0000FFB581B005460F4604468035A6
:1048A0000A9E54E0701C52D0FDF70CFB0499401A8C
:1048B000B0422FD8002E2DD020680168490746D578
:1048C000C069C043000542D401202168C0020862CB
:1048D000EFF31081012080F3108820680268FF2325
:1048E000A1339A43026081F31088EFF31081012015
:1048F00080F310882068826852085200826081F339
:10490000108820206860A860E860002028700320DC
:1049100005B0F0BDEFF31081012080F3108820680E
:104920000268FF23A1339A43026081F31088EFF3FA
:104930001081012080F3108820688268520852009C
:10494000826081F3108820206860A860DDE720681D
:10495000C1693846884305D0002003998842A1D018
:104960000020D5E70120F8E710B5094C2068016860
:10497000890609D5406AC1B20648FDF789F8206862
:1049800001682022114301600148FEF7CFFC10BDF1
:10499000140900202811002010B5417801290BD1FD
:1049A0000078094901280CD0002806D0042803D13A
:1049B0004870092009F0BCFA10BD48780428FBD0E3
:1049C0000020487010BD00006B06002010B5417833
:1049D00001290BD100781349012808D0002809D0FB
:1049E000042803D10870002009F0A2FA10BD0120AC
:1049F000087010BD08780428FBD00A4C002008700D
:104A0000241D207A401CC0B220726168884201D9FE
:104A100020782072022009F0EDF9217A02F051F895
:104A200010BD0000780600200FB410B503A9044B98
:104A3000044A029800F02CF910BC08BC04B01847D6
:104A4000B5540008880600200FB410B504A9074B20
:104A500002AA039800F01CF9044602A9002000F005
:104A6000B3FC204610BC08BC04B01847C95300086A
:104A70002021020C01D010211046020A01D010465C
:104A80000839020901D01046091F820801D01046DA
:104A9000891E420801D0881E7047081A704730B43A
:104AA0007446641E2578641CAB4200D21D46635DCB
:104AB0005B00E31830BC18478307FF22DB0E9A40E7
:104AC0008907090E9940002808DB830809489B00E4
:104AD0001818036893430B43036070470007000FE7
:104AE0000838830804489B001818C36993430B4394
:104AF000C361704700E400E000ED00E002E008C898
:104B0000121F08C1002AFAD170477047002001E047
:104B100001C1121F002AFBD170470000F0B51FB47D
:104B200086B00998089A030D0021024314D0514819
:104B3000514A1818504305141198012810981AD09A
:104B4000281A401C00264D4F4D49009601910490B3
:104B5000002812DA444211E01198012449A30128E7
:104B600001D11098C1430698119A84600360C26015
:104B700041600BB0F0BD4042E4E70446210500204F
:104B80003F4A001C51410391029012E0E00707D018
:104B900032463B4601990098FCF7DAFB0191009000
:104BA00032463B4610461946FCF7D2FB06460F46F6
:104BB0006410002CEAD10498039B0028029A0999FA
:104BC000089806DAFCF7C4FB019B009AFCF7C0FBCF
:104BD00005E0FCF725FC019B009AFCF721FC04464C
:104BE0000E460022284BFCF7B3FC03D80020C0433C
:104BF000014607E00022254B20463146FCF7F6FA35
:104C0000FCF786FC102409E0002C0ADB0A220023B2
:104C1000FCF7BCFA079B30321A55641E02460A4361
:104C2000F2D11122641C079B121B1C19119B012B32
:104C300003D0012308430ED10AE0084304D0112019
:104C400010900020119077E71098151A6D1E0BE058
:104C50001098824202DD00236D1C03E0824201DADB
:104C600000236D1E002BEED0069811998260C16062
:104C700030C07EE701FCFFFF104D00000000144033
:104C80000000F03F300000000000F0430000E03F73
:104C9000FFB597B00646002518E2252877D10024F5
:104CA0002746FD49049400E00443761C3278012035
:104CB000203A90400842F7D130782A280ED00222BC
:104CC000307801463039092916D804990A23594306
:104CD000303940181443761C0490F1E7189802C844
:104CE00004911890002904DA01204003044348424B
:104CF000049002200443761C30782E2814D104201E
:104D000004437078761C2A2809D11898761C80C82C
:104D1000189009E00A214F43303FC719761C3078BC
:104D2000014630390929F5D930786C2810D006DCD5
:104D30004C281AD068280ED06A2817D104E07428AD
:104D400013D07A2812D110E00120400504430CE072
:104D50000121090501E0032109050C437178814215
:104D600003D1012000052418761C761C30781190A0
:104D700066280BD013DC58287DD009DC00287BD0B6
:104D80004528F6D04628F4D047281AD1A5E118E0E6
:104D9000632835D0642870D0652812D19DE1702831
:104DA0006CD008DC6728F1D069287BD06E280DD044
:104DB0006F2806D1BAE073282ED0752871D07828D4
:104DC00059D01A9A199990476D1C7EE16002400FE4
:104DD000022809D003280DD00428189801680DD0A6
:104DE0000D60001D189070E11898EA1701680D60B9
:104DF0004A60F6E7189801680D80F2E70D70F0E759
:104E000018986A4601781172001D1890002050729F
:104E100002A80090012005E0189802C81890002010
:104E20000091C04361070DD5002101E00199491CA3
:104E30000191B94212DA8142F8DB009A515C0029F3
:104E4000F4D10BE0002101E00199491C019181425C
:104E5000FADB019A0099895C0029F5D1019904983F
:104E60001A9B471A21463846199A00F097FA019979
:104E7000401945180BE04FE02CE113E04EE000989C
:104E800000990078491C00911A9A19999047019845
:104E9000401E0190401CF2D1214638461A9B199AB7
:104EA00010E137E00A200021009001916002410FDB
:104EB000022907D0189A01CA1892C21794460329EA
:104EC00008D00AE01898C01DC108C90005C918918A
:104ED000944607E000B2C2179446042902D140B2BA
:104EE000C1178C4600226146944506DA0A46002125
:104EF000404291418C462D2102E0210504D52B2111
:104F00006A461173012103E0E10701D02021F7E790
:104F1000029155E00A200AE0102008E010200090DD
:104F20000021042004430191082703E00820002108
:104F3000019100906002410F022907D0189A01CA1E
:104F4000189200229446032908D008E01898C01D42
:104F5000C108C90005C91891944603E080B204292C
:104F600000D1C0B200210291210729D511997029E1
:104F700006D0009A1021019B4A401A4305D00EE04A
:104F800040216A461173012108E06146014306D0C1
:104F900030216A4611731199517302210291009ACE
:104FA0000821019B4A401A430AD16146014301D1BD
:104FB000610705D530216A46117301217F1E0291D8
:104FC0001199582904D035A10E910DA90D910DE02C
:104FD00037A1F9E76146019B009AFCF7D7F80E9BD1
:104FE0008C469B5C0D9A521E0D92137061460143D4
:104FF000F0D10D9805A9081A20300190600703D55B
:1050000001200004844300E001270198874201DD6C
:10501000381A00E000200199009041180298091800
:105020000498401A0490E00306D421461A9B199A6A
:10503000049800F0B3F94519002706E003A81A9A6E
:10504000C05D199990476D1C7F1C02988742F5DB63
:10505000E0030CD521461A9B199A049800F09EF99A
:10506000451904E01A9A3020199990476D1C00994F
:10507000481E00900029F5DC08E00D980D99007895
:10508000491C0D911A9A199990476D1C0199481E57
:1050900001900029F1DC63E109280100303132334D
:1050A0003435363738396162636465660000000064
:1050B000303132333435363738394142434445464E
:1050C0000000000000F05AF94519761C30780028DD
:1050D00000D0E2E528461BB0F0BD600700D40627EB
:1050E0001898C01DC108C90048680A680831C30F74
:1050F000DB071891190001D09CA108E0210501D51A
:105100009BA104E0E10701D09AA100E09AA143002D
:1051100011985B08109165280CD006DC452809D051
:1051200046281DD0472841D141E0662818D067287D
:105130003CD13CE00021112F01DB112000E0781C64
:105140000191009008A911A8FFF7E8FC13990591B7
:105150000021119A15927F1C12980197009150E03E
:105160000120C00703900120019008A9009711A811
:10517000FFF7D4FC139A149905920022119B009218
:1051800012981593059A0192002901D0104602E069
:10519000791C40180190381A01D5019804E040426A
:1051A000401E0090781C0190C01B029043E0012F2C
:1051B00000DA01270021112F01DD112000E038461F
:1051C0000191009008A911A8FFF7A8FC1399059177
:1051D000119A0021129815920091019721070CD481
:1051E0000599B94201DB019900E00191012904DD33
:1051F000159A491E515C302906D0B84201DA011DCA
:1052000005DA0121029115E00199491EEDE7002818
:1052100005DC0099411800910199091A03E0019AEF
:10522000411C914200DD01910099401A401C0290FE
:105230000120C0070390200706D4029901988142FB
:1052400002DB0020C043029000206946C87707AF08
:10525000012103980337C907884224D00220119006
:105260002B201290039800280CDA404203902D2046
:10527000129007E00A210398FBF73AFF30317F1EB6
:10528000039039701199481E11900029F2DC03989F
:105290000028EFD1791E129808703078202108403C
:1052A0004530BF1E387006A8C01BC01D0390109863
:1052B0000078002800D00120019941180298C017F9
:1052C0000918039809180498401A401E0490E00336
:1052D00006D421461A9B199A049800F05FF84519E4
:1052E00010980078002803D01A9A199990476D1CDD
:1052F000E00324D521461A9B199A049800F04EF831
:1053000045191CE00098002807DB009905988842A1
:1053100003DD1598405C199901E0199930201A9A1B
:10532000904700986D1C401C00900298401E02900F
:10533000002804D11A9A2E20199990476D1C0199C2
:10534000481E01900029DDDC05E038781A9A7F1CA0
:10535000199990476D1C0399481E03900029F4DCAD
:1053600021461A9B199A0498ACE600002D00000013
:105370002B0000002000000000000000F8B50446EB
:1053800000251E461746880404D405E0394620202F
:10539000B0476D1C641EF9D52846F8BDFFB504461C
:1053A000002581B01E46C80301D5302700E0202724
:1053B000880404D505E038460399B0476D1C641E87
:1053C000F9D5284605B0F0BD0A68531C0B60107073
:1053D000704770477047000010B5FCF773F902A0E2
:1053E000FFF722FB012010BD696E697420657665A8
:1053F0006E743A4354500A001FB5FCF763FD1A4C13
:105400002168401A1E281AD9FCF75CFD206003A908
:1054100002A8FCF799F9002811D0144909680091F5
:1054200069468A89098913040B4301930F4B0128AC
:105430001B7807D0022808D003280ED010E00020E7
:1054400004B010BD0AA0009304E0FF33FF33023321
:105450000CA00093FFF7E8FA02E0FF33013300935A
:10546000684609F051F9EAE714060020186F0008B1
:10547000746F7563686420646F776E3A25642C25B9
:10548000640A0000746F7563686D206D6F76653A0D
:1054900025642C25640A0000102005210907886175
:1054A0000348006801684022114301607047000012
:1054B000D806002038B50446684604700023DB4354
:1054C000012269460248FEF731F9204638BD000046
:1054D00014090020704710B5FEF7E1FD10BD000073
:1054E00001480078704700002406002010B5FEF740
:1054F000E8FD10BD024801780029FCD1704700008A
:1055000024060020014800687047000010060020B3
:1055100070B50178124D0446012908D000290CD03D
:10552000032914D0042912D0052910D011E001203C
:10553000287008F07BFC68700BE008F077FC697855
:10554000884202D02878022808D0002000E00220FB
:1055500028706968002901D02046884770BD000086
:105560002806002010B5C181002109F0EFFE10BD12
:1055700070470000074A084910B58818FEF7F8FA86
:105580001C20FCF7DFFE054800680168202211435B
:10559000016010BD12020000160F00201409002047
:1055A00010B5040003D02168002900D088472046A8
:1055B00010BD000008B523492148886062B6FCF799
:1055C00073FEFEF792FDFEF743FB1F48816B01223D
:1055D00011438163806B1040002200901146092026
:1055E000FCF7BCFE0920FCF7ADFE002211460A20A4
:1055F000FCF7B4FE0A20FCF7A5FEFEF797FCFEF7C9
:10560000E1FBFEF705FCFEF7FDFCFEF757FC10483A
:105610000E4901603F2141600021816001610D4A16
:105620004161C2608161FDF7C3FB002801D072B601
:10563000FEE7FEF7B3FC01F04DFA01F0CDFAFCE70E
:105640000010000800ED00E000100240004401409E
:1056500038080020E703000010B58EB0044634225D
:1056600008496846FBF76EFD08F0E0FB0D2806D2FE
:1056700008F0DCFB800069460958204688470EB0D8
:1056800010BD00008470000830B58DB00C46054692
:10569000342209496846FBF755FD08F0C7FB0D2881
:1056A00007D208F0C3FB800069460A582146284605
:1056B00090470DB030BD00001C700008704700001E
:1056C00010B58EB00446342207496846FBF73AFD10
:1056D00008F0ACFB0D2804D2A0006946095820460A
:1056E00088470EB010BD0000E86F000830B58DB0DF
:1056F0000C460546342209496846FBF723FD08F0AD
:1057000095FB0D2807D208F091FB800069460A58E6
:105710002146284690470DB030BD0000507000086B
:1057200030B58DB00C460546342209496846FBF772
:1057300009FD08F07BFB0D2807D208F077FB8000FD
:1057400069460A582146284690470DB030BD0000F2
:10575000B46F0008F8B500F00FFC284D0446A87897
:10576000A04221D0AC70214625A0FFF75DF9A878B2
:105770000026FF280CD02878002836D16C70012034
:1057800028706A46107054702146AE8020A027E031
:105790002E70684606706978417022A0FFF744F9C0
:1057A000FF206870AE801DE0287801281DD1A888F0
:1057B000401C80B2A8805F280CD0B42816D00146C7
:1057C000FF39193911D105206A4610706978517076
:1057D00019A005E003206A461070697851701CA07A
:1057E000FFF722F96846FFF793FEF8BD04206A46EA
:1057F0001070697851701CA0F2E700005C06002070
:105800007363616E206B65793A25780D0A0000009C
:1058100070726F63206B657920646F776E3A2564D0
:105820000D0A000070726F63206B65792075703A05
:1058300025640D0A0000000070726F63206B6579AB
:10584000206B6565702033733A25640D0A000000F3
:1058500070726F63206B6579206B656570203173A2
:105860003A25640D0A00000070726F63206B657941
:10587000206B6565702032733A25640D0A000000C4
:1058800010B5012801D100F007F810BD10B50128AE
:1058900001D1FFF75FFF10BD1FB52648FEF7D2FB11
:1058A000042845DB012269462248FCF7C9F868460E
:1058B0000178AA2901D020A009E0014601221D4853
:1058C000FCF7BEF868460178552903D01EA0FFF703
:1058D000ABF8E2E7014604221648FCF7B1F81E488F
:1058E000009901606846008840BA00281AD0012853
:1058F0001BD00228D1D1042202A90E48FCF7A0F83F
:105900006846007A0028C8D16846407A0128C4D188
:105910006846807A0228C0D16846C07A0328BCD184
:10592000FEF736F900F01AF8B7E700F049F9B4E7E6
:105930001FBD0000281100206E6F7420686561642F
:10594000303A2578200A00006E6F74206865616423
:10595000313A2578200A0000040F0020F0B5FFB08E
:105960008CB083A00068009082A00068029082A0A2
:105970000068019000240E2203A98048FCF760F81B
:105980006846008B03AE45BA0ECE7D480EC010218E
:105990001038FEF769FB80B2854203D00123032251
:1059A00001A9DCE00598002500BA070A6846C07D19
:1059B0003F0207432E46889700F0B4FAC1B215396A
:1059C00070480B00FFF76BF8050B0406080A0B0084
:1059D0006D4804E06D4802E06D4800E06D48874284
:1059E00001D96DA01FE028468899FFF774FD634830
:1059F000FEF728FB024603A96048FCF721F8852141
:105A0000890003A8FBF7B7FB012303226946664818
:105A1000FEF7AAF844A802308990761C6348B6B213
:105A2000864205D962A0FEF7FFFF7FB00CB0F0BD43
:105A30005248FEF707FB021E75DD8898A91808304A
:105A4000814203D24120C00082426CDB412000260B
:105A5000C000824236DD024603A94848FBF7F0FF4A
:105A60006846008A03AA41BA5018C3798779180298
:105A7000384347BA901C091DFEF7F6FA80B28742F8
:105A800037D1FF27013704A900243A4602312846BE
:105A9000FFF72CFD3A46E8198999FFF727FD69467B
:105AA000887B4870C87BFF35887001230322FF354F
:105AB0003D48023547E04872C87B887201230322C3
:105AC00002A93FE003A92D48FBF7BAFF6846008A08
:105AD00003AA47BAD019C17983790802184341BA99
:105AE0008A91391D901CFEF7BFFA8A9980B28142D3
:105AF00009D0641C6946E4B2887B032CDBD9487169
:105B0000C87B88714AE7FF220024013297420BD9F3
:105B100004A902312846FFF7E9FCFA1FF93AE81D0B
:105B2000F930899904E01EE004A93A46023128467A
:105B3000FFF7DCFC6946887B4870ED19C87B0123C0
:105B4000887003221848FEF70FF88898854200D223
:105B500063E7FF20694648700123887003221248DA
:105B6000FEF702F861E70120FCF7D6F855E70000E0
:105B7000A2000000E0000000E10000002811002069
:105B8000080F002000F01F0000F03F0000F07F0031
:105B900000F0FF0000F0FF0166696C652073697A10
:105BA00065206F7665720A0014090020B80B0000AA
:105BB0007570646174652074696D656F75740A0031
:105BC000F0B5C1B000263446042201A92A48FBF7EB
:105BD00037FF019800BA070A6846C0793F020743B9
:105BE000394626A0FEF720FF39460020FFF773FC58
:105BF00028A0FEF719FF2D48761C864201D92CA05B
:105C000031E01D48FEF71EFA051E30DD6019002642
:105C10000090B84201D2FF2D29DD294628A0FEF7C9
:105C200003FFFF2D11DDFF2501352A4601A912488A
:105C3000FBF706FF2A4601A92046FFF757FC641927
:105C4000214621A0FEF7F0FE0AE02A4601A90A48F3
:105C5000FBF7F6FE2A4601A92046FFF747FC009C09
:105C6000BC42C8D31AA0FEF7DFFE41B0F0BD012050
:105C7000FCF752F8BFE7000028110020737461722E
:105C8000742073696D706C657570646174653A2514
:105C900064200A00666F726D617420666C617368BF
:105CA000207375636573730A00000000B80B000071
:105CB0007570646174652074696D656F75740A0030
:105CC0005B25645D000000002D25640A00000000D3
:105CD0007570646174652073756365737321212128
:105CE0000A000000F0B5102305242407A362444DE8
:105CF00003232B73434B040C1E6834731C68A66883
:105D0000B607FCD5060A26731C68A668B607FCD53C
:105D100020733D4C0026002A21D0012A18D0022AE7
:105D20000FD0032A06D018688768BF07FCD5077B09
:105D30006770067318688768BF07FCD5077B6770B4
:105D4000067318688768BF07FCD5077B6770067302
:105D500018688768BF07FCD5077B67700673012A40
:105D600004D0022A05D0032A09D105E01868007B77
:105D700060701868007B60701868007B607088181D
:105D8000001F1BE0AF68BF07FCD52F7B0F702E7381
:105D9000491CAF68BF07FCD52F7B0F702E73491CC1
:105DA000AF68BF07FCD52F7B0F702E73491CAF68FF
:105DB000BF07FCD52F7B0F702E73491C471A032F8A
:105DC000E0DC06E0AF68BF07FCD52F7B0F702E73B9
:105DD000491C8142F6D3186883681B06FCD4102046
:105DE00005231B079861042A00D30422002003E046
:105DF0002B7B0B70401C491C9042F9DB2670F0BDD8
:105E000000300140D806002024060020F0B594465A
:105E10003F4A01241470102205231B079A623D4B50
:105E200003221D682A731A689568AD07FCD5050C16
:105E300015731A689568AD07FCD5050A15731A68BD
:105E40009568AD07FCD51073186882681206FCD4FB
:105E5000027B027B027B027B426803256D03AA431F
:105E600042601868426801252D032A4342602A488F
:105E7000026815686D086D001560284D6F68026C2A
:105E80001C2632402646964037436F6006686246BD
:105E900072601A6806680C32B2600268D1600768E6
:105EA0003A680C26B2433A6007683A6802263243E1
:105EB0003A60006802682243026018684268224320
:105EC00042601748026816687608760016606F68A8
:105ED000026C1C2632402646964037436F600568A8
:105EE00062466A601A6805680C32AA600268D1606E
:105EF000006801682143016018680168402211436D
:105F0000016018684168022211434160F0BD000041
:105F100024060020D8060020A4090020000002402A
:105F2000000A002030B5102205231B079A62114990
:105F30009F200C68207308688468A407FCD500249F
:105F4000047308688568AD07FCD504730868856824
:105F5000AD07FCD50473086881680906FCD49A6112
:105F6000017B037B027B017B180412021043084370
:105F700030BD0000D806002010B502210448FBF710
:105F800095FF002801D0FF2010BD012010BD0000AA
:105F9000000C005010B5102205231B079A62094C13
:105FA000052021680873206881688907FCD50021D5
:105FB0000173206881680906FCD49A61017B007B2B
:105FC00010BD0000D8060020F0B5102305242407DA
:105FD000A362154D02262F683E732E68B768BF076F
:105FE000FCD5070C37732E68B768BF07FCD5070AC6
:105FF00037732E68B768BF07FCD5307306E0866834
:10600000B607FCD50E780673491C521E2868002A74
:10601000F5D181680906FCD4A36100E0017B8168A9
:10602000C907FBD1F0BD0000D806002030B5102212
:1060300005231B079A62104CD82125682973216813
:106040000D7B8D68AD07FCD5050C0D7321688D683F
:10605000AD07FCD5050A0D7321688D68AD07FCD529
:106060000873206881680906FCD49A61017B017B72
:10607000017B007B30BD0000D806002010B5102247
:1060800005231B079A6205480621046821730068EE
:1060900081680906FCD49A61007B10BDD8060020F7
:1060A00010B504493C20486300210348FDF788F8F7
:1060B00010BD000000040040EC07002010B50549A9
:1060C0000348486300210448FDF714F810BD0000A0
:1060D0001F03000000040040EC0700201CB5FBF784
:1060E000F1FE08490A68821A0A2A0AD90860486833
:1060F000401C48600449096801900091684608F016
:1061000003FB1CBD1C060020206F00087047000028
:1061100010B507A0FEF788FCFBF7D4FE084C206002
:1061200008A0FEF781FC00206060012010BD000087
:1061300074696D65725F696E6974200A0000000001
:106140001C06002074696D65725F696E6974203287
:106150003232320A000000007047000010B50446D9
:10616000002907D1022007F045FEA04202D102A07B
:10617000FEF75AFC10BD00004149525F427574742D
:106180006F6E3120646F776E0A00000005480C21A5
:10619000017010214170142181701621C1701821E5
:1061A000017170476206002070B504460D46032059
:1061B00007F020FEA04203D1294602A0FEF734FCDE
:1061C00070BD00004149525F50726F677265737312
:1061D000426172313A25640A000000001CB508468D
:1061E0003221FAF785FF00295AD12E4C2078401C25
:1061F000C0B220706178491C6170A178891CA170BF
:10620000E178C91CE1702179C91C21711E21FAF7BE
:106210006FFF0A4624A16846FEF716FC052007F02A
:10622000E9FD694608F06EF860782821FAF760FF0A
:106230000A461DA16846FEF707FC062007F0DAFDB6
:10624000694608F05FF8A0783C21FAF751FF0A464A
:1062500015A16846FEF7F8FB082007F0CBFD69465C
:1062600008F050F8E0783C21FAF742FF0A460EA108
:106270006846FEF7E9FB072007F0BCFD694608F019
:1062800041F820795A21FAF733FF0A4606A16846F9
:10629000FEF7DAFB092007F0ADFD694608F032F899
:1062A0001CBD0000620600202530326400000000A2
:1062B0007047000010B5044600290ED1022007F0F7
:1062C00099FDA04201D10CA005E0032007F092FD4A
:1062D000A04203D10DA0FEF7A7FB10BD062007F0DA
:1062E00089FDA04201D10EA0F5E7072007F082FD4D
:1062F000A042F2D10FA0EEE7434F4646455F4275FC
:1063000074746F6E3120646F776E0A00434F464697
:10631000455F427574746F6E3220646F776E0A0049
:10632000434F4646455F427574746F6E3320646F09
:10633000776E0A00434F4646455F427574746F6E30
:106340003420646F776E0A0001493220087070476C
:10635000670600207CB504460D46042007F04AFD80
:10636000A0421AD10D4C2078642804D12A460CA1F1
:106370006846FEF769FB2078642808D22020694629
:10638000087000A82A4607A10130FEF75DFB08202F
:1063900007F030FD694607F0B5FF7CBD67060020B9
:1063A00025336400253264001CB508466421FAF7E1
:1063B0009FFE002927D1144C2078401CC2B22270C5
:1063C000642A02D93220207008E0642A03D10FA188
:1063D0006846FEF739FB2078642808D220206946F9
:1063E000087000A822780AA10130FEF72DFB0920D1
:1063F00007F000FD694607F085FF052007F0FAFC6D
:10640000217808F089FC1CBD670600202533640054
:106410002532640010B50446022007F0EBFCA042D0
:1064200004D1022007F0E6FC06F094FE10BD000047
:1064300010B50446002907D1032007F0DBFCA04279
:1064400002D102A0FEF7F0FA10BD0000434F46460D
:1064500045574F524B5F427574746F6E3120646FB5
:10646000776E0A0008B50648694600780870002073
:106470004870062007F0BEFC694607F043FF08BDE0
:10648000680600207047000008B508466421FAF746
:106490002FFE002914D10B490878312801D3401C64
:1064A0000870C0B2322801D93120087069460870DE
:1064B00000204870062007F09DFC694607F022FF87
:1064C00008BD0000680600207047000010B50446B3
:1064D00000290ED1022007F08DFCA04201D105A0B9
:1064E00005E0032007F086FCA04202D106A0FEF7DB
:1064F0009BFA10BD434F4F4B5F427574746F6E3102
:1065000020646F776E0A0000434F4F4B5F427574F3
:10651000746F6E3220646F776E0A000070477047A8
:106520007047704770B50446002911D1022007F06A
:1065300061FCA04201D10BA008E0032007F05AFC47
:106540000E4DA04205D1002068700DA0FEF76CFA38
:1065500070BD042007F04EFCA042F9D10120687004
:106560000DA0F3E7434F4F4B574F524B5F427574AB
:10657000746F6E3120646F776E0A00006906002028
:10658000434F4F4B574F524B5F427574746F6E328F
:1065900020646F776E0A0000434F4F4B574F524BAA
:1065A0005F427574746F6E3320646F776E0A0000FB
:1065B00001493C20087070476906002070470000C0
:1065C0007CB508463221FAF793FD002924D1134CFB
:1065D0006078002820D020783C25002802D0801E3A
:1065E000207000E0257022780DA16846FEF72CFA95
:1065F000062007F0FFFB694607F084FE20780A2199
:10660000281A48430621FAF789FD84B2052007F0CD
:10661000F1FB214608F080FB7CBD000069060020EC
:1066200025303264000000007047704710B5024802
:10663000FDF708FB10BD00009949000870470000F5
:1066400010B508466421FAF753FD002922D11249FA
:106650000878401C0870C0070DD0092007F0CAFB5D
:106660002B21FEF77FFF0A2007F0C4FB2C21FEF749
:1066700079FF0AA00CE0092007F0BCFB2C21FEF7F3
:1066800071FF0A2007F0B6FB2B21FEF76BFF0EA06F
:10669000FEF7CAF910BD00006B06002055495F5295
:1066A00045535F494D4147455F594F5559414E4A02
:1066B000495F494D414745535F594F5559414E3206
:1066C000325F32320A00000055495F5245535F493C
:1066D0004D4147455F594F5559414E4A495F494DD4
:1066E000414745535F594F5559414E32325F32331E
:1066F0000A000000704700007CB50446002944D120
:10670000217827A0FEF790F92078801E0300FEF77D
:10671000C6F9090808080842420642423C0024A083
:106720003AE028A0FEF780F920782B4D042802D00B
:10673000032805D014E0E878002826D0401E03E0A6
:10674000E878172821D2401CC2B2EA7023A168461B
:10675000FEF77AF90C2007F04DFB694607F0D2FDF1
:106760002078052812D002280FD128793B280CD296
:10677000401CC2B22A7119A16846FEF765F90D20C6
:1067800007F038FB694607F0BDFD7CBD287900287D
:10679000FBD0401EEDE713A0FEF746F97CBD0000DC
:1067A000627574746F6E2D3E69643A25640A000048
:1067B0004F494C5F427574746F6E3120646F776E11
:1067C0000A0000004F494C5F427574746F6E322DA1
:1067D0003520646F776E0A006F0600202530326422
:1067E000000000004F494C5F427574746F6E362D87
:1067F0003920646F776E0A000C2104480022017072
:1068000042708270C1700171704700006F060020F5
:10681000704700001CB508466421FAF769FC00299E
:106820002DD1174900228878401CC0B288703C28BE
:1068300003D38A704878401C487048783C2803D3BA
:106840004A700878401C08700878182800D30A702D
:106850000B480A78801E03789A4203D14B7844781B
:10686000A3420CD002704B78437006A16846FEF735
:10687000EBF80B2007F0BEFA694607F043FD1CBD9C
:106880006F060020253032643A2530326400000063
:106890007047000010B5044600290ED1022007F011
:1068A000A9FAA04201D105A005E0032007F0A2FA51
:1068B000A04202D106A0FEF7B7F810BD52494345E9
:1068C0005F427574746F6E3120646F776E0A0000DA
:1068D000524943455F427574746F6E3220646F771E
:1068E0006E0A0000704770477047704770B50446E5
:1068F000002907D1022007F07DFAA04203D110A0A1
:10690000FEF792F870BD032007F074FA124DA04212
:1069100005D112A0FEF788F83C20687070BD0420F5
:1069200007F068FAA042F9D112A0FEF77DF82878A6
:10693000002802D00020287070BD0120FBE7000075
:1069400052494345574F524B5F427574746F6E31D5
:1069500020646F776E0A0000740600205249434598
:10696000574F524B5F427574746F6E3220646F776D
:106970006E0A000052494345574F524B5F427574AF
:10698000746F6E3320646F776E0A00000248002136
:1069900001703C2141707047740600207047000070
:1069A0001CB508466421FAF7A3FB002913D10A4954
:1069B000087801280FD1487800280CD0401EC2B2B8
:1069C0004A7006A16846FEF73FF8052007F012FA64
:1069D000694607F097FC1CBD740600202530326420
:1069E000000000007047704710B50548FDF72AF910
:1069F000022007F0FFF90349097A00F062F810BDA0
:106A0000CD4900087C0600207047704770477047EA
:106A1000704770477047704710B5044600290ED183
:106A2000022007F0E7F9A04201D105A005E003200C
:106A300007F0E0F9A04202D106A0FDF7F5FF10BD76
:106A4000574153485F427574746F6E3120646F779D
:106A50006E0A0000574153485F427574746F6E327E
:106A600020646F776E0A000070477047704710B55A
:106A70000446022007F0BEF9A04204D1022007F02C
:106A8000B9F906F067FB10BD10B50446002907D11F
:106A9000032007F0AFF9A04202D102A0FDF7C4FF26
:106AA00010BD000057415348574F524B5F42757419
:106AB000746F6E3120646F776E0A00007047704704
:106AC000704708B56A46117000215170694607F099
:106AD00019FC08BD10B586B0FAF7E4FEFDF7BEF963
