:020000040800F2
:1010000050150020D5100008ED3B0008B53300084E
:1010100000000000000000000000000000000000D0
:10102000000000000000000000000000493C000833
:101030000000000000000000EF3B00088F3C0008AB
:10104000E710000800000000E7100008E7100008A3
:10105000E71000080D190008E7100008E710000865
:1010600000000000E9170008F9170008E710000861
:10107000E7100008E7100008E71000080000000073
:10108000E71000080000000000000000E710000862
:1010900000000000E7100008113D0008E7100008FC
:1010A000E7100008E7100008E7100008E710000844
:1010B0005542000800000000000000000000000091
:1010C0000348854600F058FA004800470D4F0008D5
:1010D000501500200448804704480047FEE7FEE71B
:1010E000FEE7FEE7FEE7FEE7013D0008C11000084D
:1010F00030B50B46014600202022012409E00D46B0
:10110000D5409D4205D31D469540491B2546954037
:1011100040191546521E002DF1DC30BD70B500247B
:101120002546002801DA01244042002901DA012580
:101130004942FFF7DDFFAC4200D04042002C00D016
:10114000494270BD03460B439B0703D009E008C921
:10115000121F08C0042AFAD203E00B780370401C67
:10116000491C521EF9D27047D2B201E00270401CF5
:10117000491EFBD270470022F6E710B513460A4617
:1011800004461946FFF7F0FF204610BDF0B51FB426
:101190000646002082B005464024019100901BE0E5
:1011A000019922460F46304600F008FA049A059B42
:1011B000801A994110D310461946224600F0EEF9E4
:1011C000361A8F410197224601200021009F00F02E
:1011D000E5F938184D4100902046641E0028DFDCF8
:1011E000019B00982946324607B0F0BDF0B507468E
:1011F0000846584087B0C00F049048000E4659007A
:1012000040084908BC1A884105D2384631461E4676
:1012100017460B4602465800400810434CD0300D8C
:10122000039040055900400D490D0590401A029069
:10123000402872DA18030121000B090508430190C8
:1012400004980092002805D001995242002088415C
:1012500000920190029840210A1A0199009800F02A
:101260009DF905460C466B4607CB00F0B8F9C0194E
:101270007141039A0E0D0023D71756401A467A4043
:10128000164344D0049A002A2DD0029A012A039AC8
:1012900015DC1205C01A914101263605001C71416A
:1012A000D20F059ED2070093019202962A4623464A
:1012B00000F0B5F907B0F0BD38463146FAE716053B
:1012C000224A0F46B218C01AB74101210905001C75
:1012D0004F4100187F41114618187941E20F104321
:1012E0006D19644113E0E2076D0815436408C207F5
:1012F0001443039A01261205C01A91413605001CB9
:101300007141CE07400830434908C01851412A4670
:10131000234600F077F9CDE7FFE70498012240006B
:10132000C117121A00238B4104983146C417381A8A
:10133000A141EEE730B40124E407634030BC55E737
:1013400030B40124E407614030BC4FE70000E0FF07
:10135000F0B51FB488B00B9909980024484009994A
:10136000C00F490049080991C0070B990090490036
:1013700049080B9109990898A64608431CD00B9977
:101380000A98084318D0099801244000420D4800EB
:10139000410D099824050003000B204309900B9888
:1013A0000003000B20430B9050181C4940180022EA
:1013B00001901446104605E0002001460DB0F0BD36
:1013C000032801DA034600E003239C46C11A0AAE53
:1013D0000AE05F0008ADED5B4F00F75B7D4300273F
:1013E000AA187C41491C5B1E6145F2DD410004AB3B
:1013F0005A522104120C0A43240C401C0828DFDB3B
:10140000019802900099704601910090059B049A02
:101410000799069800F003F9D0E700000DFCFFFFE4
:10142000F0B50C465C4085B0E40FE40703944C0033
:101430000026640859009446490802460296224351
:1014400021D062460A431ED06200570D4A000E03A7
:101450002303550D012402462C492405781B1B0B40
:10146000360B401823432643614600901C46501A11
:10147000B44103D30098401C009002E092180098F9
:101480005B41002803DA0020014605B0F0BD0020D2
:10149000012109050746864611E064461D46141BD6
:1014A000B54106D36546521BB341744607430C430E
:1014B000A646CD0740084908284392185B410546D7
:1014C0000D43EAD11046184313D0604619465040E8
:1014D0007140084306D06046101AB34106D201227B
:1014E000002306E000220123DB0702E00122D243B1
:1014F0005310009874460105381C6141029C039DFD
:101500000019694100F07EF8BFE70000FD0300000C
:101510004A0009030123090B1B0519430A4B10B5A7
:10152000520D9A4202DA0020014610BD064B3433B8
:101530009A4203DC9A1A00F041F810BD034BD2180E
:1015400000F02CF810BD0000FF030000CDFBFFFFF2
:1015500010B5002904DB0124E40740428C412146F8
:10156000002B04DB1C460123DB075242A3419942B6
:1015700000D1904210BD0000064C0125064E05E04A
:10158000E36807CC2B430C3C98471034B442F7D3A4
:10159000FFF79AFDBC6A0008DC6A000810B5202A33
:1015A00004DB0146203A9140002010BD91402023E9
:1015B0009C1A0346E3401943904010BD10B5202A01
:1015C00004DB0846203AD040002110BD0B46D34032
:1015D000D0402024A21A91400843194610BD10B5EE
:1015E000202A06DBCB170846203A1041C1170B43CF
:1015F00006E00B461341D0402024A21A9140084334
:10160000194610BD10B5002B08DA0024401C6141BA
:1016100092185B411A4301D14008400010BDF0B55B
:101620001FB482B005460C0003D0084602F0CCFE81
:1016300002E002F0C9FE2030024600902146284612
:10164000FFF7ACFF049B059A04460F46184311436D
:10165000084314D0184610431BD0009840210A1AA2
:1016600018460599FFF7AAFF05460E46009A059908
:101670000498FFF793FF084305D0012004E02046BB
:10168000394607B0F0BD0020C11705430E432C4377
:10169000374300990E986305401A7905E40A002241
:1016A0000C43FD0A0A3002D500200146E9E7010596
:1016B000101969410C9C0D9D00196941FFF7A2FFAB
:1016C000DFE7000030B587B002F026F91421684644
:1016D000FFF751FD1A48416B012421434163416BDF
:1016E00021400591426B08210A434263406B0094FC
:1016F00008400590022002900025052001956946CA
:10170000000700F079FA009401940E4C02956946A6
:101710000395204600F070FA00220121204600F0D7
:1017200010FB0A2000F03EFA01221146204600F08C
:1017300008FB0A2000F036FA002007B030BD000098
:1017400000100240000C0050FEB5064600200D4679
:101750000190E02069460872FF242D3402AA01237B
:101760005C211B48009400F025FC002808D101AA48
:1017700003235D211648009400F094FB002801D05B
:101780000020FEBD13A002F0FBFD002401AF395D77
:1017900013A002F0F5FD641C032CF8DB11A002F08D
:1017A000EFFD68460079C0096846827900D0FF32B3
:1017B000FF21407941318A4200D90A46AA2800D93E
:1017C000AA20A921081A3280233028800120FEBDDA
:1017D0009C0600204949432072656164203A00005C
:1017E000256420000A00000010B5024800F02CF922
:1017F00010BD00006C0A002010B500F037F8034857
:1018000000F022F9024800F01FF910BDB4090020D1
:10181000100A002010B50446006C094980088000B9
:1018200040186064207814210838FFF761FC0449EF
:101830008031A164C106C90E01208840E06410BD5A
:10184000000802400179084B8906890E8A00D218E7
:101850000265054A4432491E42658A07920F0121FA
:101860009140816570470000FC08024070B5134B41
:10187000186813491C240D6C022225401646AE4000
:10188000304219D008680568AD0715D505680A26E5
:10189000B54305605868096C21408A401043586080
:1018A0000848006881680906FCD410200521090752
:1018B000886105490020087070BD000000000240EA
:1018C000B4090020E806002024060020F8B51646DA
:1018D0000F460446002502F08DF9002802D1A068C9
:1018E000B0420CDA0120F8BD21682069405C7855CF
:1018F0002068E168401CFFF711FC6D1C2160B542B7
:10190000F2DBA068801BA0600020F8BD10B50120AC
:1019100000F05CF9022000F059F910BD10B50A463C
:10192000044602F06EF9002804D1A168E068401A6C
:10193000012801DA012010BD616820694254606805
:10194000E168401CFFF7EAFB6160A068401CA060F2
:10195000002010BD72B6FEE7F0B5002808D00146A1
:1019600020314A79022A05D00422C263002008717E
:101970000120F0BD026813680E24A3431360426C7B
:101980001468FF2301339C431460026814686408E0
:10199000640014600C4E7268056C1C242540012400
:1019A0002746AF403A437260826CC56C5560026D49
:1019B000002A05D015689D431560826D406D426018
:1019C0004C7100200871F0BD00000240F8B5002401
:1019D000014620314A79022A03D00421C16301243F
:1019E0002DE0026813680E25AB431360026813688C
:1019F0005B085B001360426C1368FF250135AB4345
:101A00001360104E7268056C1C231D4001231F4695
:101A1000AF403A437260826CC56C5560026D002A1B
:101A200006D016681D02AE431660426D856D556086
:101A30004B7100220A71816B002900D08847204633
:101A4000F8BD000000000240F0B42C4D2B68016886
:101A50000A68046C1C273C400426A6401E4211D094
:101A600056070FD50A68920603D40B6804229343E5
:101A70000B606A68036C04213B4099400A436A602A
:101A8000016B1CE00227A74006461F402036002FAE
:101A900019D0970717D50A68920605D40A680A2351
:101AA0009A430A60012171716B68026C1C210A4023
:101AB000022191400B436B6000213171C16A002902
:101AC0001AD0F0BC08470827A7401F4214D01207BD
:101AD00012D50A680E239A430A606A68036C1C21B7
:101AE0000B4001210C469C4022436A60C163717126
:101AF00000213171416BE2E7F0BC70470000024009
:101B000070B504003FD02548256814212818FFF738
:101B1000EFFA800020640220264620367071286883
:101B20001F4908402860A168E06862690143206994
:101B300010430143A0690143E0690143206A014366
:101B400020680268114301602046FFF763FE01210F
:101B5000A06889030025884200D165602079616C06
:101B60008006800E0860A06CE16C41606068401ED9
:101B700003280AD82046FFF765FE206D0560606DDA
:101B8000A16D416004E0012070BD25656565A56516
:101B9000E563012070713571002070BDF8FFFDBF55
:101BA0000F80FFFF70B5044600F0D2F80546601CB8
:101BB00002D004480078241800F0CAF8401BA04264
:101BC000FAD370BD000600207047000070B5084DC4
:101BD0000446E868204203D0EC60204600F00AF892
:101BE0002869204203D02C612046FFF7EDFF70BD2D
:101BF0000018024070470000F0B500228EE0012579
:101C000095402B407ED00C79A407A40F012C01D065
:101C1000022C10D1866854000327A740BE43CF682A
:101C2000A740374387604468AC430D79ED06ED0F5C
:101C30009540254345600C79E443A40708D0C56866
:101C400054000326A640B5438E68A6402E43C660C6
:101C50000C79A407A40F022C0CD1D408A4002718D7
:101C60003D6A5407E40E0F26A640B5430E69A64010
:101C70002E433E62056854000326A640B5430E7904
:101C8000B607B60FA6402E4306604C68A403A40F07
:101C900043D09508244CAD002F193D6E9407E40EF7
:101CA0000F26A640B54305263607B04201D10026CF
:101CB0000FE01E4EB04201D101260AE01C4EB04298
:101CC00001D1022605E01B4EB04201D1032600E0FF
:101CD0000526A6402E43144D3E662C684E689C4354
:101CE000F60200D51C432C606C684E689C43B6021B
:101CF00000D51C436C600C4D80356C684E689C436D
:101D0000B60300E009E000D51C436C602C684E6807
:101D10009C43F60300D51C432C60521C0B681C46E8
:101D2000D44000D06BE7F0BD001802400004005022
:101D300000080050000C00500069084000D001204D
:101D40007047002A01D081617047816270470000AE
:101D500001488068704700000006002070B5024608
:101D600040325378202B1CD11378012B19D0012439
:101D700014702423537003681D68A5431D60036815
:101D80001D682603B5431D6003681D680D431D6073
:101D9000006801682143016020205070002010700D
:101DA00070BD022070BD70B5024640325378202BC2
:101DB0001BD11378012B18D00125157024235370E3
:101DC00003681C68AC431C6003681C680F2636025D
:101DD000B443090221431960006801682943016086
:101DE000202050700020107070BD022070BD0000D7
:101DF00070B5040006D025464035687800260028D6
:101E000002D005E0012070BD2E70204600F05AF986
:101E100024206870206801684908490001600F218A
:101E2000606809068843216808612068826801218A
:101E3000C9038A438260E0680128A06808D0212293
:101E40009202104322689060E068022802D005E008
:101E50000843F7E701202268C0025060206842680A
:101E60000F4B1A4342602068C2688A43C2606169AE
:101E700020690843A169090208432168C860216AF2
:101E8000E069084321680860206801680122114365
:101E900001606664202068702663AE70002070BD0B
:101EA00000800002FFB5054604464035687881B0E1
:101EB000202878D12878012875D001202870FFF7D4
:101EC00047FF0746012200901923D103204601F065
:101ED00021FB00283CD1222068701020A870002629
:101EE000666403986062049860856663618D2F481C
:101EF000FF2903D9FF22228500903BE0618D2185D7
:101F000000903DE02046029901F0EEFA16E001F063
:101F100029FB00281CD12068406A616A0870606A49
:101F2000401C6062208D401E80B22085618D491E5C
:101F30006185618D002901D000280CD0608D0A993F
:101F400000283A462046E2D101F056FB00281CD07A
:101F5000012005B0F0BD00970022802120460A9B99
:101F600001F0D8FA0028F3D1608DFF2805D9FF22AF
:101F70002285009601231B06C4E7608D208500960C
:101F8000208D0123C2B25B06BCE720682022C2611B
:101F900020684168064B194041606A70AE702E702F
:101FA0000020D6E7FFE70220D3E7000000240080EE
:101FB00000E800FEFFB5054604464035687881B06C
:101FC000202878D12878012875D001202870FFF7C3
:101FD000BFFE0746012200901923D103204601F0DD
:101FE00099FA00283CD1212068701020A8700026A2
:101FF000666403986062049860856663618D2F480B
:10200000FF2903D9FF22228500903BE0618D2185C5
:1020100000903DE02046029901F066FA16E001F0DA
:1020200011FB00281CD1606A216800788862606A10
:10203000401C6062608D401E6085208D401E80B215
:102040002085618D002901D000280CD0608D0A996F
:1020500000283A462046E2D101F0CEFA00281CD0F2
:10206000012005B0F0BD00970022802120460A9B88
:1020700001F050FA0028F3D1608DFF2805D9FF2226
:102080002285009601231B06C4E7608D20850096FB
:10209000208D0123C2B25B06BCE720682022C2610A
:1020A00020684168064B194041606A70AE702E701E
:1020B0000020D6E7FFE70220D3E7000000200080E1
:1020C00000E800FE10B586B0044614216846FFF70C
:1020D00052F81249206888421ED1114C606B0121D0
:1020E00008436063606B084005900320C0020090C5
:1020F00012200190002002900390062004900520F9
:1021000069460007FFF778FDE16B01208005014378
:10211000E163E16B0140059106B010BD005800403D
:102120000010024002488168027889188160704777
:102130000006002010B508480024016882151143EC
:102140000160032000F00AF8002801D0012401E01A
:1021500000F028F8204610BD0020024070B50F4E58
:10216000002431780546002915D07D20C000FEF7F7
:10217000BFFF01460A480068FEF7BAFF00F016FDEF
:10218000002808D1042D06D200222946401E00F066
:102190002BF8756000E00124204670BD0006002089
:1021A0000C06002008B509480168012211430160AE
:1021B00000681040009005484038C26B01040A4393
:1021C000C263C06B0840009008BD00004010024090
:1021D000002805DBC106C90E0120884001490860BE
:1021E0007047000000E100E010B502F011F910BDE9
:1021F00010B50F4C21680322520291430143216024
:10220000C11FFF39FA390ED10A4806210068484338
:102210000949FEF76DFF401C02E0002805D0401E72
:1022200061694905F9D4002010BD032010BD0000EC
:10223000007000400C06002040420F00FEB504462E
:1022400000250068524E2F46800359D5002001908A
:102250004F484038C06BC0000AD44D484038C26B6C
:1022600001040A43C263C06B084000900120019042
:1022700048480168821511430160FFF769FD00902D
:1022800007E0FFF765FD0099401A022801D90325F0
:102290002CE040480068C005F3D5002D26D1F06938
:1022A0000321090208400FD0616981420CD0F06916
:1022B00003210902F2698843012109040A43F261FA
:1022C000F2698A43F261F061C00759D0FFF740FD1F
:1022D000009006E0FFF73CFD0099411A2E4881422C
:1022E000D5D8F0698007F5D5002D49D02F46019843
:1022F000002805D026484038C26B01048A43C263D7
:102300002078C00705D070696168800880000843A4
:1023100070612078800606D570690321090388431F
:10232000A168084370612088400411D57069216953
:102330008000800808437061012120698907884274
:1023400006D113484038C168012212041143C1600C
:102350002088000512D57069032189038843E1684C
:10236000084370610121E0688903884206D108486A
:102370004038C168012212041143C1603846FEBDD5
:10238000F06903210902884361690843F061AEE7FF
:10239000401002400070004088130000F8B50D4660
:1023A000040044D04D4800684007400FA84214D2B2
:1023B0004A4F3868C008C00028433860FFF7C8FC9F
:1023C000064605E0FFF7C4FC811B4548814260D802
:1023D00038684007400FA842F4D12068414E810779
:1023E0000DD5400704D5B068072109030843B06044
:1023F000B0680F2109028843A1680843B0602078C3
:10240000C00731D0606801280AD002280BD000280C
:102410000FD03449403103280ED0C969890704E040
:102420003168890301E031688901002906DB012058
:10243000F8BD31684905F8E7096AEFE7B168C908EE
:10244000C9000143B160FFF783FC074605E0FFF7D1
:102450007FFCC11B224881421BD8B068382108404C
:102460006168C9008842F2D11C4801684907490FD8
:10247000A94216D90168C908C90029430160FFF7BC
:1024800067FC074607E0FFF763FCC11B1448814265
:1024900001D90320F8BD114800684007400FA84249
:1024A000F1D12078400706D5B168072000038143A9
:1024B000E0680143B16000F031F8B1683C2289095D
:1024C0001140094A515CC906C90EC8400749086055
:1024D00007480068FFF742FEF8BD000000200240F8
:1024E0008813000000100240A86800080C060020B5
:1024F000040600200648074900688968064A49041E
:10250000490F8900515CC906C90EC84070470000D8
:102510000C06002000100240E868000810B5204CAE
:10252000A068204A8006400F16D0A0688006410FA0
:10253000501001290FD0A1688906490F022912D035
:10254000A0688006400F042823D0A0688006400FB2
:10255000032821D0002010BD206801218004400FF5
:102560008140104612E0E1688B07E1689B0F490645
:10257000490F491C032B00D01046FEF7B9FDE16856
:102580004904490E4843E168490F491CFEF7B0FD74
:1025900010BD0120C00310BD7D20000210BD000051
:1025A000001002400024F400F8B504007ED020782A
:1025B0003827C007E74E002845D0B068F16838409A
:1025C0008907890F102802D008280AD001E00329C2
:1025D00007D0012160680904884209D130680843A6
:1025E00014E0306880032ED560680028DED02AE031
:1025F000052301221B0492049842306802D1104343
:102600003060EBE78843306030689043306060684A
:1026100000280CD0FFF79CFB054604E0FFF798FB71
:10262000401B642873D830688003F7D50BE0FFF7B0
:102630008FFB054604E0FFF78BFB401B6428F1D8B5
:1026400030688003F7D42078800769D5B068F168D6
:1026500038408A070721920FC902102802D00028AB
:1026600013D001E0022A10D0E068002846D030687C
:1026700088432169084330603168FF2001300143FD
:102680003160FFF765FB05462CE03268520502D544
:10269000E268002A8AD072687F231B029A4363692A
:1026A0001B021A437260002810D100E08DE03068F0
:1026B0008843216908433060306801218004400F5D
:1026C0008140A548FEF714FDA4490860A4480068AD
:1026D000FFF744FD002878D122E0FFF739FB401BCB
:1026E00002289FD830684005F7D570687F2109021D
:1026F0008843616909020843706011E03168FF2076
:10270000013081433160FFF723FB054605E096E089
:10271000FFF71EFB401B022884D830684005F7D421
:102720002078904D00072ED5B0688006400F032812
:102730000AD0A0690028286A16D00121084328621F
:10274000FFF706FB07460BE0286A80071BD5A06948
:1027500000289FD017E0FFF7FBFAC01B02286ED8B5
:10276000286A8007F7D50EE0400840002862FFF78E
:10277000EFFA074604E0FFF7EBFAC01B02285ED829
:10278000286A8007F7D4207840076AD50020009097
:10279000B0688006400F042818D0F06BC00008D441
:1027A000F16B012000070143F163F16B014001204F
:1027B00000906D480168C90518D4026881150A4364
:1027C0000260FFF7C5FA07460CE083E0E86980077E
:1027D00047D5A06800287DD043E0FFF7B9FAC01BB9
:1027E00002282CD860480068C005F6D5A0680128EA
:1027F00010D004210528E86910D040084000E861A5
:10280000E8698843E861A068002814D0FFF7A0FABF
:1028100007460CE0E86901210843F3E70843E86153
:10282000F8E7FFF795FAC11B5048814265D8E8697F
:102830008007F6D50DE0FFF78BFA074606E05CE06F
:10284000FFF786FAC11B4948814256D8E8698007DC
:10285000F6D40098002804D0F16B012000078143D2
:10286000F163E069002873D0B1688906490F022935
:102870004DD001273F060228306805D0B8433060AC
:10288000FFF766FA04463AE0B8433060FFF760FAB3
:10289000054604E0FFF75CFA401B02282DD830689B
:1028A0008001F7D4616A206AA26A0843E16A1202D1
:1028B00011430843216B0843F1682D4A1140084336
:1028C000F060306838433060F06801210907084340
:1028D000F06000E03AE0FFF73BFA044604E0FFF75F
:1028E00037FA001B022808D830688001F7D52FE09E
:1028F000FFF72EFA001B022801D90320F8BD30682B
:102900008001F5D4F0681B490840F06020E0012800
:10291000F4D0F068226A8107890F914216D17021A4
:10292000626A0140914211D17F21A26A09020140ED
:10293000120291420AD11F214904E26A01409142E8
:1029400004D1400F216B4007884201D00120F8BD1F
:102950000020F8BD001002400024F4000C06002006
:102960000406002040100240007000408813000060
:102970008C80C11FFCFFFEEFF8B504000CD0606A2C
:10298000002600280AD02661666125464035A662E9
:10299000687F002808D00BE00120F8BD6168C81FDF
:1029A000FD38F2D0E661F0E72E77204600F05CF8C3
:1029B00002226A7720680168402399430160072357
:1029C000E1681B02994201D9002001E001200003C7
:1029D0000F273F02B94202D0994200D0A662FF23DE
:1029E0006168053319402127A368BF023B401943A2
:1029F00023691340227D1943D207D20F11430123CB
:102A0000A2695B021A401143E26938231A4011435C
:102A1000226A80231A401143A26A9B011A40114383
:102A200022681160A1690422090C1140626A102316
:102A30001A401143626B08231A4011430F23E268C6
:102A40001B021A4011430122120310400143206867
:102A500041602068C16952109143C161266601201E
:102A600068770020F8BD0000F0B587B00446142157
:102A70006846FEF780FB454A216845480227032542
:102A80000026914244D1424940310B6882141343DD
:102A90000B60096811400591416B012211434163AC
:102AA000406B029610400590C220009005206946B8
:102AB0000197049603950007FFF79EF8364D3548B9
:102AC000AE601027EE6081C5EE602E616E618020E1
:102AD000AE61A8603048083DFFF712F8002801D029
:102AE000FEF738FFA5652B48AC622C4D14302860EA
:102AF000AF601120EE6068606E61AE61EE618020B3
:102B00002E622861284639E06565AC6207B0F0BDE9
:102B1000234A9142FAD1C16B12141143C163C16BB4
:102B200011400591416B39434163406B0197384037
:102B300005901011009005200490029603956946B7
:102B40001848FFF759F80120C00200900296694624
:102B50000197049603951348FFF74EF80D48124D60
:102B600014382860132068601020EE60A8606E6141
:102B7000AE61EE6180202E6228612846FEF7C0FF1C
:102B80000028C1D0FEF7E6FEBEE70000003001409D
:102B9000001002401C000240B4090020100A00206E
:102BA00000380040000400506C0A0020094910B5AC
:102BB000401E884201D9012010BD074C60610321ED
:102BC000081F01F025FC0020A061072020610020E3
:102BD00010BD0000FFFFFF0000E000E0F0B502467E
:102BE0002032137F012B23D0012313770223537745
:102BF00004686368A5680F4EB44204D10F273F05EF
:102C0000BB434F683B437027BB430F681F4367605C
:102C10000068B04202D0084B984204D180238968F2
:102C20009D43294381600120507700201077F0BD3B
:102C30000220F0BD002C01400004004070B50400EB
:102C400005D025462035687F002802D006E0012007
:102C500070BD00202877204600F016F80220687723
:102C6000211D206801F068F8012240342272AA7701
:102C7000EA7722706270A270E27022716271A271B2
:102C8000E2716A77002070BD08B500680F4A1049EC
:102C9000904202D10A68C01412E00E4A904209D153
:102CA0000B484038C26B02210A43C263C06B084024
:102CB000009008BD084A9042FBD10A6801204004F8
:102CC00002430A6009680140009108BD002C0140E0
:102CD0004010024000040040004401400146203101
:102CE0004A7F012A01D00120704702224A770168F9
:102CF000CB6801221343CB6000680949884202D0A7
:102D00000849884207D18168074B1940062905D038
:102D1000DB1F994202D00168114301600020704717
:102D2000002C01400004004007000100F8B50546F2
:102D300004462035287F0026012817D001272F7749
:102D400002206877206882682E4B1A40FF231B02FE
:102D50009A4382600868502836D00EDC20284DD077
:102D600006DC00284AD010281ED147E00220F8BD1A
:102D7000302843D0402817D138E060282CD0702864
:102D800018D001221203801A0FD090420CD1CB68C8
:102D90004A688968206801F00DF82068816801227E
:102DA00092031143816000E001266F7700202877AD
:102DB0003046F8BDCB684A688968206800F0FAFFA1
:102DC000206881687722ECE7CA684968206801F0CA
:102DD00007F85021206806E0CA684968206801F0B9
:102DE00010F86021206800F0F1FFDEE7CA6849684A
:102DF000206800F0F5FF40212068F4E722680146D2
:102E00001046F0E788FFCEFF10B5014680310A7802
:102E1000012A15D001220A7024224A600268136830
:102E2000146864086400146001225207934300226E
:102E3000426600680360202048600A70104610BD9A
:102E4000022010BD7047704770B5044605468034B7
:102E5000207801281AD00120207024206060286882
:102E600006680268520852000260286882680723D8
:102E70005B069A430A438260284600F0D5FF286823
:102E80000660202060600020207070BD022070BDB0
:102E900070B50446054680342078012819D00120F9
:102EA000207024206060286806680268520852007A
:102EB000026028688268D200D2080A4382602846ED
:102EC00000F0B2FF286806602020606000202070BB
:102ED00070BD022070BD704770477047F8B5036839
:102EE0000446D86919689A68B24D06462E402546B0
:102EF0008035002E75D0B04EB04F16400F4037438E
:102F00006ED0C70706D0CF0504D501271F62EB6836
:102F10003B43EB60830708D5D30706D0276802231D
:102F20003B62EB6804273B43EB60430708D5D307BC
:102F300006D0276804233B62EB6802273B43EB6023
:102F4000030709D520230B40334305D02668082307
:102F50003362EE681E43EE60030509D54B0107D5C9
:102F600001232668DB023362EB6820263343EB60E3
:102F7000EB68002B42D080060AD520200140C00516
:102F80000240114304D0216F002901D02046884718
:102F9000E86821688968490602D42821084232D0AD
:102FA000204601F005F820688168490627D5EFF32F
:102FB0001081012282F3108883684022934383604A
:102FC00081F31088E06F002819D07D498163E06F9C
:102FD000FEF7FCFC002811D0E06F816B0DE000E0F3
:102FE00017E0860615D5012720263F070E4017401B
:102FF0003E430ED0216FB1E020468847F8BD204601
:10300000FFF76BFFF8BD2046FFF767FF0020E86081
:10301000F8BDE66E012E7DD1C6067BD5CE0679D5EC
:1030200010221A6220688168264649064036002927
:1030300047DAE36F196849680904090CE8D0B78BCF
:103040008F42E5D9F18319680968890634D4EFF312
:103050001081012383F3108803681701BB430360C9
:1030600081F31088EFF31081012080F3108820682D
:1030700083685B085B00836081F31088EFF3108145
:10308000012080F31088206883684027BB43836059
:1030900081F310882020A8600020E066EFF3108103
:1030A000012080F31088206803689343036081F354
:1030B0001088E06FFEF750FCB08BF18B401A81B2A4
:1030C00033E0B18BF38BC91AF38B89B2002B9FD0FD
:1030D00000299DD0EFF31083012686F3108806683F
:1030E000FF272137BE43066083F31088EFF3108378
:1030F000012080F31088206886682F4FFF433E40F0
:10310000866083F310882020A8600020E066EFF33B
:10311000108300E00DE02067012080F31088206814
:1031200005689543056083F310882046FFF78AFE03
:10313000F8BDC60208D5560206D501200005186262
:103140002046FFF7C9FEF8BD06060BD501278026ED
:10315000FF050E403A40164304D0616F002900D0AD
:103160004AE7F8BD420614D54A0612D52046EFF3C9
:103170001081012282F310881A684024A2431A6049
:1031800081F31088202169600021416700F011F966
:10319000F8BD020205D54A0003D52046FFF79BFE85
:1031A000F8BDC001FCD50029FADA2046FFF74BFE36
:1031B000F8BD00000F08000001000010200100040D
:1031C0009D3F000870B5040005D02546803568682D
:1031D000002802D006E0012070BD002028702046A3
:1031E00000F026F82420686020680168490849003A
:1031F0000160204600F00EFF0128EDD0A06A0028F3
:1032000002D0204600F032FE206841680922D20236
:1032100091434160206881682A229143816020683F
:103220000168012211430160204600F085FE70BD57
:10323000F0B58DB0044614216846FDF79CFF1821B7
:1032400005A8FDF798FF22492068224C0227002696
:10325000012588421CD105A806960595FEF7EEFFCC
:10326000002801D0FEF776FB1A48403002680121A1
:1032700089030A430260006808400B90606B284392
:103280006063606BC007C00F0B900320400212E028
:103290001149884219D1E16B012040040143E163E7
:1032A000E16B01400B91606B28436063606BC0076A
:1032B000C00F0B900C2000900520029669460197E4
:1032C000039604950007FEF797FC0DB0F0BD0000D3
:1032D000003801400010024000440040FFB50446A1
:1032E00083B080300190406815460E4620285ED19C
:1032F000002E0AD0002D08D0A168C001814207D15C
:103300002069002804D1F00702D0012007B0F0BDE9
:103310000198007801284AD0019801210170019993
:103320000020C860019821214160FEF711FD274669
:1033300040370290BD82FD820120A16800038142D6
:1033400002D12069002805D03546002601990020C9
:10335000087011E00025F9E700228021204600F0E6
:103360000FFF002815D1002D15D02168287888621C
:103370006D1CF88A401EF882F88A029B0028069885
:103380000090E9D100224021204600F0F9FE0028FB
:1033900008D00320BAE730882168C005C00D8862D4
:1033A000B61CE6E70198202141600020AEE702202C
:1033B000ACE77047FEE701688A69D243920701D4FF
:1033C00000228A6200688169C943C90703D0816904
:1033D0000122114381617047F7B50446006882B04D
:1033E000816900262546C9064035374600920029E6
:1033F00049DA1021C16136E00398401C33D0FEF752
:10340000A7FC0099411A0398814201D800282AD1CB
:1034100020684168012292031140AA788369DB4346
:103420001B041BD401239B03994217D0202A15D0DB
:10343000416819434160FEF78BFC00900EE0FEF7F7
:1034400087FC0099401A192808D9616C2020014393
:10345000616468700020A870287001262068806967
:10346000C0438006EBD420688069C043800602D543
:10347000002EC1D004E0002E02D121682020C861B6
:1034800004200743012621688869C20504D501226A
:1034900017431202CA610126410505D508210F43D1
:1034A0002268C901D1610126800506D502200743A3
:1034B00021680002C861012601E0002E0FD02046DD
:1034C000FFF779FF20684168064A11404160606C4F
:1034D00038436064202068700020A870287030464F
:1034E00005B0F0BD00E800FE10B58905890D120495
:1034F0001143029C1943006821434900426849086E
:10350000630D034C23439A430A43426010BD0000FD
:10351000FF63FF03F8B51C4617460E46054609E053
:10352000601C07D0FEF714FC0699401AA0420BD885
:10353000002C09D028688169304688430FD00020CC
:10354000B842EDD00020F8BD696C202001436964C9
:10355000403568700020A87028700120F8BD012057
:10356000EEE70000F7B5002705460E460446403555
:1035700032E031462046029AFFF72EFF002801D0A4
:103580000120FEBD20688069C04380061CD42068ED
:103590008169C943490702D4218D002921D181695C
:1035A000C943C90604D41021C1610420606400E04D
:1035B000676420682022C261206841680D4B194071
:1035C00041606A70AF7013E0FEF7C2FB0299401AC7
:1035D000B04208D8002E06D020688069C04340075A
:1035E000C7D40020FEBD616C202001436164687077
:1035F0002F70C5E700E800FE70B516460D4604467C
:103600000FE0324629462046FFF7E6FE002801D0AB
:10361000012070BDFEF79CFB801BA84208D8002D3E
:1036200006D020688069C0438006EAD4002070BDBF
:10363000616C202001436164403460700020A07000
:103640002070E5E770B516460C46054611E0324697
:1036500021462846FFF7C0FE002801D0012070BD9A
:10366000601C06D0FEF774FB801BA04208D8002C1B
:1036700006D028688069C0438007E8D4002070BD68
:10368000696C202001436964403568700020A8708F
:103690002870E3E7F0B587B014216846FDF76BFDAD
:1036A0001B48416B012529434163416B294005912A
:1036B000426B02210A434263406BCE010840002462
:1036C000052700963F0705900294694601950394EB
:1036D0003846FEF791FA03200294039480030D4CC0
:1036E0000090694601952046FEF786FA00222101E6
:1036F0002046FEF726FB0122D1032046FEF721FBE0
:10370000012231463846FEF71CFB002007B0F0BD11
:10371000001002400004005010B5FFF7DFFD10BD9F
:1037200070B50D460446164611462846FDF723FDA2
:10373000002060602060E6602561A06070BD000030
:103740000A48C16B02151143C1630948016882151B
:1037500011430160084907480860BFF34F8F0849CB
:103760000648C860BFF34F8F00BFFDE7001002405E
:103770000070004055AA55AA00B100400400FA05A7
:1037800000ED00E008B5FF2200210090F023413257
:10379000084608F0F1FC08BD10B50124074B2403CE
:1037A0009C626100996106498A689207FCD508739A
:1037B00088680006FCD49C6110BD00000004005025
:1037C0000038004010B50124074B24039C626100BF
:1037D000996206498A689207FCD5087388680006D2
:1037E000FCD49C6110BD0000000400500038004073
:1037F000014948607047000028060020F0B587B0F6
:1038000014216846FDF7B7FC3E48426B04210A4389
:103810004263426B0A400592416B01252943416393
:10382000416B29400591416B022631434163416B55
:1038300031400591426B08210A434263406B324F8D
:10384000084005900520002239460007FEF779FA66
:103850000321002209032D48FEF773FA00224021BC
:103860002B48FEF76EFA012211462A48FEF769FA44
:10387000680300246A4631C269462548FEF7BCF950
:10388000312000040190052000956946029500074B
:10389000FEF7B2F9052002946946000700970195EA
:1038A0000394FEF7A9F903200003009002946946EF
:1038B000019503941548FEF79FF94020009002946B
:1038C0006946019503941248FEF796F90095029413
:1038D0006946104801950394FEF78EF91120000403
:1038E00001906946009602940A48FEF785F9002285
:1038F00001210520FEF778FC0520FEF769FC07B0E2
:10390000F0BD0000001002401080000000040050D4
:1039100000080050000C005010B513481149016018
:103920001249416000218160016141618161012290
:10393000C161C2600162FEF75BFA002801D072B675
:10394000FEE700210848FEF709FA002801D072B608
:10395000FEE700210448FEF726FA002801D072B6DF
:10396000FEE710BD005800409C0600205B3D300083
:1039700010B511480F490160FF2105314160002158
:103980000722816012020161C2604161C1610122AE
:10399000016252024162826181620722C262016356
:1039A00008214163FEF7E8FF002801D072B6FEE768
:1039B00010BD000000300140E806002010B511489D
:1039C0000F490160FF21053141600021072281601C
:1039D00012020161C2604161C161012201625202B1
:1039E0004162826181620722C262016308214163F0
:1039F000FEF7C2FF002801D072B6FEE710BD00003E
:103A0000003800404C07002008B513480268012127
:103A100089040A43026000680022084000901048B0
:103A20000E4901603F21826041600E490261C16020
:103A300080218161FFF702F9002801D0FDF78AFF9C
:103A4000002211461620FEF7CFFB1620FEF7C0FB22
:103A50000348FFF743F908BD401002400048014009
:103A6000C80A0020E703000010B588B000240094C5
:103A700001941649164802940394049405940694FC
:103A800012C004608460C460124904614160083857
:103A9000FFF7D4F8002801D072B6FEE7012000033A
:103AA000009069460A48FFF741F9002801D072B634
:103AB000FEE70494059404A905480694FFF78EF8E0
:103AC000002801D072B6FEE708B010BD002C0140FE
:103AD000B0070020FFFF000010B588B0002400945C
:103AE000019417480294039404940594134906948E
:103AF00001603F2184604160046112498461C160BA
:103B0000FFF79CF8002801D072B6FEE70120000301
:103B1000009069460A48FFF709F9002801D072B6FB
:103B2000FEE78020069004A904940548FFF756F8A4
:103B3000002801D072B6FEE708B010BD00040040B6
:103B4000FC070020E703000010B518481649016083
:103B5000E1214902416000218160C1600161816110
:103B6000C16101620C22416242618162FFF72AFB5E
:103B7000002801D072B6FEE700210C48FFF788F953
:103B8000002801D072B6FEE700210848FFF75CF973
:103B9000002801D072B6FEE70448FFF735F9002887
:103BA00001D072B6FEE710BD003801409408002035
:103BB00010B50D480B490160E12109034160002166
:103BC0008160C16001618161C16101620C22416259
:103BD00042618162FFF7F6FA002801D072B6FEE773
:103BE00010BD00000044004024090020FEE770479B
:103BF000806870478068002801D00020704701204D
:103C000070478168C068814201D10120704700205F
:103C10007047000030B5034600200A4C0FE01A78C8
:103C20001202504000225B1C050402D54000604097
:103C300000E04000521CD2B280B2082AF4D3491EE0
:103C4000EDD230BD21100000704770B5012604464A
:103C50004518F60301F0BEFE204601F093FE01F088
:103C600045FEC007FBD1A419AC42F3D370BD70B5BB
:103C700014460D46064601F0ADFE22462946304662
:103C800001F04EFE01F032FEC007FBD170BD10B551
:103C9000FEF748FA10BD30B591B034216846FDF703
:103CA0006AFA002401200D940E940F94400210949F
:103CB000FEF79EFA0225E80103900095402005904A
:103CC00008200A9080030B900795000304940C9041
:103CD000089509946846FEF767FC002801D072B683
:103CE000FEE707200D900F9402210E9510940DA869
:103CF000FEF754FB002801D072B6FEE711B030BDCC
:103D000001200249C00688607047000000ED00E015
:103D10000748012201681204914201D90021016083
:103D2000491C0160034901200968C04308617047CC
:103D300010060020C80A002070B50268184C194E01
:103D4000A04201D0B04204D1134670254A68AB436B
:103D50001A43154B154DA04208D0B04206D0144E60
:103D6000B04203D0984201D0A84204D103263602C3
:103D7000B243CE6832438026B2434E69324302607A
:103D80008A68C2620A688262A04203D0984201D067
:103D9000A84201D1096901630121416170BD0000A0
:103DA000002C014000040040004401400048014054
:103DB0000020004030B58468FF252D021B0213430C
:103DC000AC430B432343836030BD00008268034B48
:103DD0001A400A4307210A43826070478FFFCFFFD2
:103DE00030B5036A046A6408640004628469F025DB
:103DF000AC43120122430A24A3430B4382610362B2
:103E000030BD30B5036A1024A34303628369046A9A
:103E10000F252D031203AB431A43A0239C43090132
:103E200021438261016230BDF8B50446416E4034E1
:103E3000002915D000688168806809014D0F0A4E7D
:103E4000400F3746315C083F385CC000FDF750F941
:103E50006085785D715DC000FDF74AF92085F8BD89
:103E600001206085FAE70000A068000810B5018D08
:103E7000C90707D001684A6801235B049A43C36AF3
:103E80001A434A60018D890707D501684A680123F2
:103E90001B049A43036B1A434A60018D490707D5F7
:103EA00001684A6801239B049A43436B1A434A60A2
:103EB000018D090707D501684A680123DB039A438E
:103EC000836B1A434A60018DC90607D501688A6869
:103ED00001231B039A43C36B1A438A60018D890631
:103EE00007D501688A6801235B039A43036C1A4370
:103EF0008A60018D490612D501684B6801221205BE
:103F0000446C934323434B60416C914207D1016859
:103F10004A6803235B059A43836C1A434A60018D08
:103F2000090607D501684A680123DB04C06C9A437F
:103F300002434A6010BD0000FEB5054600268035EC
:103F40000446EE60FDF704FF019020680068124F00
:103F5000000709D501210097002249052046019B51
:103F600000F00EF900280DD12068006840070BD53D
:103F700001210097002289052046019B00F000F9ED
:103F8000002801D00320FEBD20206860A860E666FE
:103F90002E700020FEBD0000FFFFFF0110B5806AFB
:103FA000002201464031CA83CA82FEF796FF10BD47
:103FB00010B5EFF31082012181F3108801680B68BE
:103FC000FF242134A3430B6082F31088EFF31082A7
:103FD000012181F3108801688B680D4C23408B60B0
:103FE00082F31088C16E01290AD1EFF3108281F3A8
:103FF000108801680B681024A3430B6082F31088BB
:10400000202288210A500021C166016710BD0000EE
:10401000FEFFFFEFF8B5044681680069E2690143DD
:104020006069002510430143206802684C4B1A4028
:104030000A43026020684168032212039143E26848
:1040400011434160216AA069014320688268454BA1
:104050001A400A4382602068C16A626A090909013C
:104060001143C1624049206888420FD13F484069EE
:104070008007800F10D0012804D002280CD003281C
:1040800009D101E0042007E0082005E03849884212
:1040900001D1002000E010200122E369D20335495C
:1040A000354E364F93422AD1002806D0022807D039
:1040B000042807D0082843D108E0FEF71BFA03E0E4
:1040C0000A4603E0FEF72AFA02003ED0606A40008A
:1040D000315A1046FDF70CF8616840004A08801814
:1040E000FDF706F801461039B94229D82349491C81
:1040F00001400007420F20680A43C26025E0002803
:1041000006D0022807D0042807D0082818D108E0D4
:10411000FEF7F0F903E00A4603E0FEF7FFF90200BC
:1041200013D0606A4000315A1046FCF7E1FF616825
:104130004A088018FCF7DCFF01461039B94201D962
:10414000012502E0216880B2C8602046012140308C
:10415000418501850020206760672846F8BD000082
:10416000F369FFCFFFF4FF11003801404010024017
:10417000004400400024F40080680008EFFF0000C5
:10418000FFB581B005460F46044680350A9E54E0CF
:10419000701C52D0FDF7DCFD0499401AB0422FD8B4
:1041A000002E2DD020680168490746D5C069C0435C
:1041B000000542D401202168C0020862EFF310819B
:1041C000012080F3108820680268FF23A1339A43FE
:1041D000026081F31088EFF31081012080F31088D2
:1041E0002068826852085200826081F31088202083
:1041F0006860A860E86000202870032005B0F0BD6A
:10420000EFF31081012080F3108820680268FF23FB
:10421000A1339A43026081F31088EFF310810120EB
:1042200080F310882068826852085200826081F30F
:10423000108820206860A860DDE72068C1693846E2
:10424000884305D0002003998842A1D00020D5E7FB
:104250000120F8E710B5094C20680168890609D5E6
:10426000406AC1B20648FDF759FB20680168202268
:10427000114301600148FEF731FE10BD2409002002
:104280003811002010B5417801290CD100780122A5
:104290000F49012808D0002808D0042803D1C8708D
:1042A000092009F045FE10BDCA7010BDC878042869
:1042B000FBD00020C8704B78002B05D048700878E0
:1042C0000028F2D00A20ECE74A703220087010BDB6
:1042D0006B06002010B54178012908D100781049FB
:1042E000012803D0002803D0042800D1087010BD95
:1042F00008780428FBD00A4C00200870241D207A7E
:10430000401CC0B220726168884201D920782072B6
:10431000022009F06FFD217A02F095F810BD00002F
:104320007806002010B5417801290BD10078134997
:10433000012808D000280AD0042803D148700020A2
:1043400009F0F6FD10BD01204870087010BD4878D6
:104350000428FBD0094C00204870241D207A401C02
:10436000C0B220726168884201D920782072022090
:1043700009F040FD217A02F066F810BD88060020A1
:104380000FB410B503A9044B044A029800F02CF9AD
:1043900010BC08BC04B018470D4E00089806002059
:1043A0000FB410B504A9074B02AA039800F01CF93A
:1043B000044602A9002000F0B3FC204610BC08BC53
:1043C00004B01847214D00082021020C01D0102113
:1043D0001046020A01D010460839020901D01046E1
:1043E000091F820801D01046891E420801D0881E8C
:1043F0007047081A704730B47446641E2578641CF0
:10440000AB4200D21D46635D5B00E31830BC184729
:104410008307FF22DB0E9A408907090E9940002886
:1044200008DB830809489B001818036893430B4373
:10443000036070470007000F0838830804489B009A
:104440001818C36993430B43C361704700E400E04D
:1044500000ED00E002E008C8121F08C1002AFAD1EE
:1044600070477047002001E001C1121F002AFBD1F4
:1044700070470000F0B51FB486B00998089A030D84
:104480000021024314D05148514A181850430514D2
:104490001198012810981AD0281A401C00264D4F58
:1044A0004D49009601910490002812DA444211E02F
:1044B0001198012449A3012801D11098C1430698FD
:1044C000119A84600360C26041600BB0F0BD40424D
:1044D000E4E70446210500203F4A001C51410391B6
:1044E000029012E0E00707D032463B46019900985F
:1044F000FCF72EFF0191009032463B4610461946CC
:10450000FCF726FF06460F466410002CEAD10498FB
:10451000039B0028029A0999089806DAFCF718FF0D
:10452000019B009AFCF714FF05E0FCF779FF019B63
:10453000009AFCF775FF04460E460022284BFDF753
:1045400007F803D80020C043014607E00022254BAE
:1045500020463146FCF74AFEFCF7DAFF102409E05A
:10456000002C0ADB0A220023FCF710FE079B3032E6
:104570001A55641E02460A43F2D11122641C079B9D
:10458000121B1C19119B012B03D0012308430ED1D0
:104590000AE0084304D0112010900020119077E722
:1045A0001098151A6D1E0BE01098824202DD002350
:1045B0006D1C03E0824201DA00236D1E002BEED059
:1045C000069811998260C16030C07EE701FCFFFF50
:1045D000104D0000000014400000F03F30000000CB
:1045E0000000F0430000E03FFFB597B0064600250D
:1045F00018E2252877D100242746FD49049400E0DD
:104600000443761C32780120203A90400842F7D1CA
:1046100030782A280ED00222307801463039092914
:1046200016D804990A235943303940181443761C8C
:104630000490F1E7189802C804911890002904DA50
:104640000120400304434842049002200443761CA6
:1046500030782E2814D1042004437078761C2A2840
:1046600009D11898761C80C8189009E00A214F4398
:10467000303FC719761C3078014630390929F5D901
:1046800030786C2810D006DC4C281AD068280ED060
:104690006A2817D104E0742813D07A2812D110E0C8
:1046A0000120400504430CE00121090501E003213C
:1046B00009050C437178814203D1012000052418BB
:1046C000761C761C3078119066280BD013DC5828A5
:1046D0007DD009DC00287BD04528F6D04628F4D0D0
:1046E00047281AD1A5E118E0632835D0642870D096
:1046F000652812D19DE170286CD008DC6728F1D0C4
:1047000069287BD06E280DD06F2806D1BAE07328B7
:104710002ED0752871D0782859D01A9A19999047B7
:104720006D1C7EE16002400F022809D003280DD0E5
:104730000428189801680DD00D60001D189070E1D4
:104740001898EA1701680D604A60F6E71898016842
:104750000D80F2E70D70F0E718986A460178117243
:10476000001D18900020507202A80090012005E062
:10477000189802C8189000200091C04361070DD519
:10478000002101E00199491C0191B94212DA8142EC
:10479000F8DB009A515C0029F4D10BE0002101E024
:1047A0000199491C01918142FADB019A0099895CC7
:1047B0000029F5D1019904981A9B471A21463846D9
:1047C000199A00F097FA0199401945180BE04FE04B
:1047D0002CE113E04EE0009800990078491C00910C
:1047E0001A9A199990470198401E0190401CF2D1E5
:1047F000214638461A9B199A10E137E00A20002119
:10480000009001916002410F022907D0189A01CA55
:104810001892C2179446032908D00AE01898C01DC0
:10482000C108C90005C91891944607E000B2C21733
:104830009446042902D140B2C1178C460022614639
:10484000944506DA0A460021404291418C462D21CA
:1048500002E0210504D52B216A461173012103E0F2
:10486000E10701D02021F7E7029155E00A200AE094
:10487000102008E010200090002104200443019142
:10488000082703E008200021019100906002410FF9
:10489000022907D0189A01CA1892002294460329C7
:1048A00008D008E01898C01DC108C90005C91891B2
:1048B000944603E080B2042900D1C0B200210291E5
:1048C000210729D51199702906D0009A1021019B42
:1048D0004A401A4305D00EE040216A461173012177
:1048E00008E06146014306D030216A4611731199F0
:1048F000517302210291009A0821019B4A401A43F8
:104900000AD16146014301D1610705D530216A46CC
:10491000117301217F1E02911199582904D035A1EC
:104920000E910DA90D910DE037A1F9E76146019BAC
:10493000009AFCF72BFC0E9B8C469B5C0D9A521E3A
:104940000D92137061460143F0D10D9805A9081A24
:1049500020300190600703D501200004844300E06B
:1049600001270198874201DD381A00E000200199F3
:1049700000904118029809180498401A0490E00326
:1049800006D421461A9B199A049800F0B3F94519E8
:10499000002706E003A81A9AC05D199990476D1C7C
:1049A0007F1C02988742F5DBE0030CD521461A9B59
:1049B000199A049800F09EF9451904E01A9A3020DB
:1049C000199990476D1C0099481E00900029F5DC4C
:1049D00008E00D980D990078491C0D911A9A1999C3
:1049E00090476D1C0199481E01900029F1DC63E19C
:1049F00009280100303132333435363738396162B5
:104A00006364656600000000303132333435363778
:104A100038394142434445460000000000F05AF94D
:104A20004519761C3078002800D0E2E528461BB0F6
:104A3000F0BD600700D406271898C01DC108C90042
:104A400048680A680831C30FDB071891190001D0C4
:104A50009CA108E0210501D59BA104E0E10701D05C
:104A60009AA100E09AA1430011985B081091652873
:104A70000CD006DC452809D046281DD0472841D156
:104A800041E0662818D067283CD13CE00021112F76
:104A900001DB112000E0781C0191009008A911A809
:104AA000FFF7E8FC139905910021119A15927F1CDC
:104AB00012980197009150E00120C0070390012057
:104AC000019008A9009711A8FFF7D4FC139A149934
:104AD00005920022119B009212981593059A01925B
:104AE000002901D0104602E0791C40180190381AC4
:104AF00001D5019804E04042401E0090781C0190CE
:104B0000C01B029043E0012F00DA01270021112F82
:104B100001DD112000E038460191009008A911A89C
:104B2000FFF7A8FC13990591119A0021129815928C
:104B30000091019721070CD40599B94201DB019935
:104B400000E00191012904DD159A491E515C3029CC
:104B500006D0B84201DA011D05DA0121029115E003
:104B60000199491EEDE7002805DC009941180091E4
:104B70000199091A03E0019A411C914200DD01915B
:104B80000099401A401C02900120C00703902007A2
:104B900006D402990198814202DB0020C0430290B2
:104BA00000206946C87707AF012103980337C9077A
:104BB000884224D0022011902B20129003980028C4
:104BC0000CDA404203902D20129007E00A2103984E
:104BD000FCF78EFA30317F1E039039701199481E10
:104BE00011900029F2DC03980028EFD1791E129869
:104BF00008703078202108404530BF1E387006A864
:104C0000C01BC01D039010980078002800D0012020
:104C1000019941180298C0170918039809180498B7
:104C2000401A401E0490E00306D421461A9B199AAC
:104C3000049800F05FF8451910980078002803D018
:104C40001A9A199990476D1CE00324D521461A9BA6
:104C5000199A049800F04EF845191CE000980028B5
:104C600007DB00990598884203DD1598405C199987
:104C700001E0199930201A9A904700986D1C401C49
:104C800000900298401E0290002804D11A9A2E200B
:104C9000199990476D1C0199481E01900029DDDC8F
:104CA00005E038781A9A7F1C199990476D1C039972
:104CB000481E03900029F4DC21461A9B199A049897
:104CC000ACE600002D0000002B00000020000000DA
:104CD00000000000F8B5044600251E46174688046B
:104CE00004D405E039462020B0476D1C641EF9D578
:104CF0002846F8BDFFB50446002581B01E46C8030E
:104D000001D5302700E02027880404D505E0384687
:104D10000399B0476D1C641EF9D5284605B0F0BD57
:104D20000A68531C0B601070704770477047000092
:104D300010B5FCF7C7FC02A0FFF722FB012010BD55
:104D4000696E6974206576656E743A4354500A0042
:104D50001FB5FCF7FDFF1A4C2168401A1E281AD90E
:104D6000FCF7F6FF206003A902A8FCF7EDFC002881
:104D700011D014490968009169468A890989130488
:104D80000B4301930F4B01281B7807D0022808D052
:104D900003280ED010E0002004B010BD0AA000933C
:104DA00004E0FF33FF3302330CA00093FFF7E8FA6F
:104DB00002E0FF3301330093684609F0A5FCEAE7FF
:104DC0001406002008690008746F75636864206425
:104DD0006F776E3A25642C25640A0000746F756342
:104DE000686D206D6F76653A25642C25640A000095
:104DF00010200521090788610348006801684022E6
:104E00001143016070470000E806002038B50446F1
:104E1000684604700023DB43012269460248FEF71E
:104E20005DFA204638BD000024090020704710B507
:104E3000FEF70BFF10BD000001480078704700002E
:104E40002406002010B5FEF712FF10BD02480178BD
:104E50000029FCD1704700002406002001480068AA
:104E6000704700001006002070B50178124D04460E
:104E7000012908D000290CD0032914D0042912D00C
:104E8000052910D011E00120287008F0CFFF6870CC
:104E90000BE008F0CBFF6978884202D0287802281E
:104EA00008D0002000E0022028706968002901D0A5
:104EB0002046884770BD00002806002010B5C1813B
:104EC00000210AF043FA10BD70470000074A084964
:104ED00010B58818FEF724FC1C20FDF779F9054869
:104EE0000068016820221143016010BD1202000019
:104EF000260F00202409002010B5040003D02168EB
:104F0000002900D08847204610BD000008B523497D
:104F10002148886062B6FDF70DF9FEF7BCFEFEF78A
:104F20006DFC1F48816B012211438163806B10402F
:104F30000022009011460920FDF756F90920FDF7DF
:104F400047F9002211460A20FDF74EF90A20FDF725
:104F50003FF9FEF7C1FDFEF70BFDFEF72FFDFEF753
:104F600027FEFEF781FD10480E4901603F21416098
:104F70000021816001610D4A4161C2608161FDF7DC
:104F80005DFE002801D072B6FEE7FEF7DDFD01F000
:104F900063FA01F0E5FAFCE70010000800ED00E01C
:104FA000001002400044014048080020E7030000D0
:104FB00010B58EB00446382208496846FCF7C2F89E
:104FC00008F034FF0E2806D208F030FF8000694652
:104FD0000958204688470EB010BD0000846A0008BA
:104FE00030B58FB00C460546382209496846FCF7B3
:104FF000A9F808F01BFF0E2807D208F017FF800061
:1050000069460A582146284690470FB030BD000037
:10501000146A00087047000010B58EB004463822AC
:1050200007496846FCF78EF808F000FF0E2804D206
:10503000A00069460958204688470EB010BD000000
:10504000DC69000830B58FB00C46054638220949A6
:105050006846FCF777F808F0E9FE0E2807D208F05A
:10506000E5FE800069460A582146284690470FB061
:1050700030BD00004C6A000830B58FB00C460546C4
:10508000382209496846FCF75DF808F0CFFE0E2883
:1050900007D208F0CBFE800069460A582146284610
:1050A00090470FB030BD0000A4690008F8B500F0CB
:1050B0000FFC284D0446A878A04221D0AC702146B0
:1050C00025A0FFF75DF9A8780026FF280CD02878E6
:1050D000002836D16C70012028706A461070547018
:1050E0002146AE8020A027E02E70684606706978C1
:1050F000417022A0FFF744F9FF206870AE801DE0E8
:10510000287801281DD1A888401C80B2A8805F287B
:105110000CD0B42816D00146FF39193911D1052019
:105120006A4610706978517019A005E003206A463C
:105130001070697851701CA0FFF722F96846FFF7DC
:1051400093FEF8BD04206A461070697851701CA067
:10515000F2E700005C0600207363616E206B6579E6
:105160003A25780D0A00000070726F63206B657934
:1051700020646F776E3A25640D0A000070726F63C9
:10518000206B65792075703A25640D0A00000000D7
:1051900070726F63206B6579206B65657020337367
:1051A0003A25640D0A00000070726F63206B657908
:1051B000206B6565702031733A25640D0A0000008C
:1051C00070726F63206B6579206B65657020327338
:1051D0003A25640D0A00000010B5012801D100F045
:1051E00007F810BD10B5012801D1FFF75FFF10BD12
:1051F0001FB52648FEF7FCFC042845DB0122694662
:105200002248FCF763FB68460178AA2901D020A058
:1052100009E0014601221D48FCF758FB6846017869
:10522000552903D01EA0FFF7ABF8E2E701460422A0
:105230001648FCF74BFB1E48009901606846008841
:1052400040BA00281AD001281BD00228D1D104224C
:1052500002A90E48FCF73AFB6846007A0028C8D13C
:105260006846407A0128C4D16846807A0228C0D1B5
:105270006846C07A0328BCD1FEF762FA00F01AF83B
:10528000B7E700F049F9B4E71FBD0000381100206E
:105290006E6F742068656164303A2578200A0000DA
:1052A0006E6F742068656164313A2578200A0000C9
:1052B000140F0020F0B5FFB08CB083A00068009000
:1052C00082A00068029082A00068019000240E2253
:1052D00003A98048FCF7FAFA6846008B03AE45BA8A
:1052E0000ECE7D480EC010211038FEF793FC80B220
:1052F000854203D00123032201A9DCE005980025A3
:1053000000BA070A6846C07D3F0207432E468897C9
:1053100000F0B4FAC1B2153970480B00FFF76BF812
:10532000050B0406080A0B006D4804E06D4802E016
:105330006D4800E06D48874201D96DA01FE0284606
:105340008899FFF774FD6348FEF752FC024603A9F3
:105350006048FCF7BBFA8521890003A8FBF70BFF27
:105360000123032269466648FEF7D6F944A80230B5
:105370008990761C6348B6B2864205D962A0FEF7D2
:10538000FFFF7FB00CB0F0BD5248FEF731FC021EAB
:1053900075DD8898A9180830814203D24120C000E9
:1053A00082426CDB41200026C000824236DD02468C
:1053B00003A94848FCF78AFA6846008A03AA41BA5A
:1053C0005018C37987791802384347BA901C091DD1
:1053D000FEF720FC80B2874237D1FF27013704A9AE
:1053E00000243A4602312846FFF72CFD3A46E819D8
:1053F0008999FFF727FD6946887B4870C87BFF3590
:10540000887001230322FF353D48023547E048728A
:10541000C87B88720123032202A93FE003A92D481B
:10542000FCF754FA6846008A03AA47BAD019C17932
:1054300083790802184341BA8A91391D901CFEF7FE
:10544000E9FB8A9980B2814209D0641C6946E4B2C2
:10545000887B032CDBD94871C87B88714AE7FF221F
:105460000024013297420BD904A902312846FFF7E4
:10547000E9FCFA1FF93AE81DF930899904E01EE0C9
:1054800004A93A4602312846FFF7DCFC6946887BCE
:105490004870ED19C87B0123887003221848FEF775
:1054A0003BF98898854200D263E7FF20694648703F
:1054B0000123887003221248FEF72EF961E70120CC
:1054C000FCF770FB55E70000A2000000E0000000C0
:1054D000E100000038110020180F002000F01F002C
:1054E00000F03F0000F07F0000F0FF0000F0FF013F
:1054F00066696C652073697A65206F7665720A004B
:1055000024090020B80B0000757064617465207474
:10551000696D656F75740A00F0B5C1B00026344638
:10552000042201A92A48FCF7D1F9019800BA070A18
:105530006846C0793F020743394626A0FEF720FFA0
:1055400039460020FFF773FC28A0FEF719FF2D480D
:10555000761C864201D92CA031E01D48FEF748FB9D
:10556000051E30DD601900260090B84201D2FF2DE3
:1055700029DD294628A0FEF703FFFF2D11DDFF25B9
:1055800001352A4601A91248FCF7A0F92A4601A9CB
:105590002046FFF757FC6419214621A0FEF7F0FED4
:1055A0000AE02A4601A90A48FCF790F92A4601A90F
:1055B0002046FFF747FC009CBC42C8D31AA0FEF768
:1055C000DFFE41B0F0BD0120FCF7ECFABFE70000C0
:1055D0003811002073746172742073696D706C658A
:1055E0007570646174653A2564200A00666F726D97
:1055F000617420666C617368207375636573730AE8
:1056000000000000B80B00007570646174652074C0
:10561000696D656F75740A005B25645D00000000AC
:105620002D25640A000000007570646174652073A4
:1056300075636573732121210A000000F0B5102302
:1056400005242407A362444D03232B73434B040C0E
:105650001E6834731C68A668B607FCD5060A267354
:105660001C68A668B607FCD520733D4C0026002AAE
:1056700021D0012A18D0022A0FD0032A06D0186898
:105680008768BF07FCD5077B677006731868876853
:10569000BF07FCD5077B6770067318688768BF076C
:1056A000FCD5077B6770067318688768BF07FCD551
:1056B000077B67700673012A04D0022A05D0032AEB
:1056C00009D105E01868007B60701868007B607085
:1056D0001868007B60708818001F1BE0AF68BF0768
:1056E000FCD52F7B0F702E73491CAF68BF07FCD50C
:1056F0002F7B0F702E73491CAF68BF07FCD52F7B23
:105700000F702E73491CAF68BF07FCD52F7B0F703D
:105710002E73491C471A032FE0DC06E0AF68BF0771
:10572000FCD52F7B0F702E73491C8142F6D318686D
:1057300083681B06FCD4102005231B079861042AEC
:1057400000D30422002003E02B7B0B70401C491C7B
:105750009042F9DB2670F0BD00300140E8060020E1
:1057600024060020F0B594463F4A0124147010220C
:1057700005231B079A623D4B03221D682A731A6892
:105780009568AD07FCD5050C15731A689568AD07CB
:10579000FCD5050A15731A689568AD07FCD510731A
:1057A000186882681206FCD4027B027B027B027BB3
:1057B000426803256D03AA434260186842680125C8
:1057C0002D032A4342602A48026815686D086D005F
:1057D0001560284D6F68026C1C26324026469640A4
:1057E00037436F600668624672601A6806680C325A
:1057F000B2600268D16007683A680C26B2433A602A
:1058000007683A68022632433A6000680268224319
:1058100002601868426822434260174802681668AE
:105820007608760016606F68026C1C2632402646A9
:10583000964037436F60056862466A601A6805687B
:105840000C32AA600268D1600068016821430160DF
:1058500018680168402211430160186841680222FB
:1058600011434160F0BD000024060020E80600203E
:10587000B409002000000240100A002030B51022B8
:1058800005231B079A6211499F200C682073086842
:105890008468A407FCD50024047308688568AD07F4
:1058A000FCD5047308688568AD07FCD504730868E7
:1058B00081680906FCD49A61017B037B027B017B32
:1058C000180412021043084330BD0000E80600200F
:1058D00010B502210448FCF72FFA002801D0FF2060
:1058E00010BD012010BD0000000C005010B51022AA
:1058F00005231B079A62094C05202168087320685C
:1059000081688907FCD50021017320688168090638
:10591000FCD49A61017B007B10BD0000E8060020EA
:10592000F0B5102305242407A362154D02262F6825
:105930003E732E68B768BF07FCD5070C37732E6817
:10594000B768BF07FCD5070A37732E68B768BF076B
:10595000FCD5307306E08668B607FCD50E78067372
:10596000491C521E2868002AF5D181680906FCD41A
:10597000A36100E0017B8168C907FBD1F0BD000095
:10598000E806002030B5102205231B079A62104C50
:10599000D8212568297321680D7B8D68AD07FCD55A
:1059A000050C0D7321688D68AD07FCD5050A0D73D4
:1059B00021688D68AD07FCD50873206881680906E9
:1059C000FCD49A61017B017B017B007B30BD000030
:1059D000E806002010B5102205231B079A6205482F
:1059E000062104682173006881680906FCD49A6165
:1059F000007B10BDE80600201CB5FCF7A9F908499A
:105A00000A68821A0A2A0AD908604868401C486055
:105A10000449096801900091684608F075FE1CBDB4
:105A20001C060020106900087047000010B507A090
:105A3000FEF7A6FCFCF78CF9084C206008A0FEF7E6
:105A40009FFC00206060012010BD000074696D653E
:105A5000725F696E6974200A000000001C06002055
:105A600074696D65725F696E697420323232320A10
:105A7000000000007047000010B50446002907D15F
:105A8000082008F0B7F9A04202D102A0FEF778FC86
:105A900010BD00004149525F427574746F6E312031
:105AA000646F776E0A00000005480C210170102118
:105AB0004170142181701621C17018210171704745
:105AC0006206002070B504460D46072008F092F9E2
:105AD000A04203D1294602A0FEF752FC70BD00008F
:105AE0004149525F50726F677265737342617231E0
:105AF0003A25640A000000001CB508463221FBF775
:105B0000F7FA00295AD12E4C2078401CC0B22070E0
:105B10006178491C6170A178891CA170E178C91C69
:105B2000E1702179C91C21711E21FBF7E1FA0A46B7
:105B300024A16846FEF734FC022008F05BF96946B0
:105B400008F0E0FB60782821FBF7D2FA0A461DA195
:105B50006846FEF725FC032008F04CF9694608F07A
:105B6000D1FBA0783C21FBF7C3FA0A4615A1684691
:105B7000FEF716FC052008F03DF9694608F0C2FB67
:105B8000E0783C21FBF7B4FA0A460EA16846FEF71E
:105B900007FC042008F02EF9694608F0B3FB2079D1
:105BA0005A21FBF7A5FA0A4606A16846FEF7F8FB5C
:105BB000062008F01FF9694608F0A4FB1CBD000090
:105BC00062060020253032640000000070470000AB
:105BD00010B5044600290ED1022008F00BF9A042AE
:105BE00001D10CA005E0032008F004F9A04203D184
:105BF0000DA0FEF7C5FB10BD082008F0FBF8A04281
:105C000001D10EA0F5E7042008F0F4F8A042F2D18B
:105C10000FA0EEE7434F4646455F427574746F6EC2
:105C20003120646F776E0A00434F4646455F4275E8
:105C300074746F6E3220646F776E0A00434F46466D
:105C4000455F427574746F6E3320646F776E0A001F
:105C5000434F4646455F427574746F6E3420646FDF
:105C6000776E0A00014932200870704767060020ED
:105C70007CB504460D46072008F0BCF8A0421AD1B6
:105C80000D4C2078642804D12A460CA16846FEF702
:105C900087FB2078642808D220206946087000A875
:105CA0002A4607A10130FEF77BFB052008F0A2F889
:105CB000694608F027FB7CBD670600202533640099
:105CC000253264001CB508466421FBF711FA00294F
:105CD00027D1144C2078401CC2B22270642A02D909
:105CE0003220207008E0642A03D10FA16846FEF735
:105CF00057FB2078642808D220206946087000A845
:105D000022780AA10130FEF74BFB062008F072F85A
:105D1000694608F0F7FA092008F06CF8217808F0D5
:105D2000FBFF1CBD6706002025336400253264009C
:105D300010B50446022008F05DF8A04204D102200C
:105D400008F058F807F006FA10BD000010B5044638
:105D5000002907D1082008F04DF8A04202D102A086
:105D6000FEF70EFB10BD0000434F464645574F520D
:105D70004B5F427574746F6E3120646F776E0A00EA
:105D800008B506486946007808700020487003206E
:105D900008F030F8694608F0B5FA08BD680600203A
:105DA0007047000008B508466421FBF7A1F90029F7
:105DB00014D10B490878312801D3401C0870C0B2B7
:105DC000322801D9312008706946087000204870D7
:105DD000032008F00FF8694608F094FA08BD0000A7
:105DE000680600207047000010B5044600290ED157
:105DF000082007F0FFFFA04201D105A005E0022026
:105E000007F0F8FFA04202D106A0FEF7B9FA10BDD4
:105E1000434F4F4B5F427574746F6E3120646F77E0
:105E20006E0A0000434F4F4B5F427574746F6E32C1
:105E300020646F776E0A00007047704770477047A4
:105E400070B50446002911D1082007F0D3FFA04205
:105E500001D10BA008E0022007F0CCFF0E4DA042BC
:105E600005D1002068700DA0FEF78AFA70BD0320EE
:105E700007F0C0FFA042F9D1012068700DA0F3E740
:105E8000434F4F4B574F524B5F427574746F6E3197
:105E900020646F776E0A000069060020434F4F4B65
:105EA000574F524B5F427574746F6E3220646F7738
:105EB0006E0A0000434F4F4B574F524B5F42757471
:105EC000746F6E3320646F776E0A000001493C20C6
:105ED0000870704769060020704700007CB50846CE
:105EE0003221FBF705F9002924D1134C60780028F2
:105EF00020D020783C25002802D0801E207000E0B1
:105F0000257022780DA16846FEF74AFA052007F0B1
:105F100071FF694608F0F6F920780A21281A4843EB
:105F20000621FBF7FBF884B2042007F063FF21464B
:105F300008F0F2FE7CBD00006906002025303264C6
:105F4000000000007047704710B50248FDF750FC94
:105F500010BD0000854200087047000010B50846DB
:105F60006421FBF7C5F8174C002921D1A078401C0B
:105F7000A070C0070DD0082007F03CFF2B21FEF7D2
:105F80009DFF092007F036FF2C21FEF797FF0EA09A
:105F90000CE0082007F02EFF2C21FEF78FFF0920D0
:105FA00007F028FF2B21FEF789FF12A0FEF7E8F982
:105FB0002078002802D0401E207010BD00206070A4
:105FC00010BD00006B06002055495F5245535F49E4
:105FD0004D4147455F594F5559414E4A495F494DDB
:105FE000414745535F594F5559414E32325F323226
:105FF0000A00000055495F5245535F494D414745EE
:106000005F594F5559414E4A495F494D41474553A4
:106010005F594F5559414E32325F32330A0000000A
:10602000704700007CB50446002944D1217827A0A0
:10603000FEF7A6F92078801E0300FEF7DCF90908B8
:1060400008080842420642423C0024A03AE028A048
:10605000FEF796F920782B4D042802D0032805D0AE
:1060600014E0E878002826D0401E03E0E8781728DE
:1060700021D2401CC2B2EA7023A16846FEF790F913
:106080000C2007F0B7FE694608F03CF92078052897
:1060900012D002280FD128793B280CD2401CC2B262
:1060A0002A7119A16846FEF77BF90D2007F0A2FEC0
:1060B000694608F027F97CBD28790028FBD0401EEE
:1060C000EDE713A0FEF75CF97CBD00006275747407
:1060D0006F6E2D3E69643A25640A00004F494C5F9B
:1060E000427574746F6E3120646F776E0A00000021
:1060F0004F494C5F427574746F6E322D3520646F5A
:10610000776E0A007106002025303264000000001E
:106110004F494C5F427574746F6E362D3920646F31
:10612000776E0A000C2104480022017042708270D0
:10613000C1700171704700007106002070470000B7
:106140001CB508466421FAF7D3FF00292DD1174961
:1061500000228878401CC0B288703C2803D38A7023
:106160004878401C487048783C2803D34A70087827
:10617000401C08700878182800D30A700B480A7869
:10618000801E03789A4203D14B784478A3420CD006
:1061900002704B78437006A16846FEF701F90B20A8
:1061A00007F028FE694608F0ADF81CBD7106002016
:1061B000253032643A253032640000007047000018
:1061C00010B5044600290ED1082007F013FEA042A6
:1061D00001D105A005E0022007F00CFEA04202D18B
:1061E00006A0FEF7CDF810BD524943455F427574D5
:1061F000746F6E3120646F776E0A00005249434518
:106200005F427574746F6E3220646F776E0A00009F
:10621000704770477047704770B50446002907D132
:10622000082007F0E7FDA04203D110A0FEF7A8F870
:1062300070BD032007F0DEFD124DA04205D112A073
:10624000FEF79EF83C20687070BD022007F0D2FD7A
:10625000A042F9D112A0FEF793F82878002802D0C6
:106260000020287070BD0120FBE700005249434523
:10627000574F524B5F427574746F6E3120646F7765
:106280006E0A00007606002052494345574F524B94
:106290005F427574746F6E3220646F776E0A00000F
:1062A00052494345574F524B5F427574746F6E337A
:1062B00020646F776E0A00000248002101703C21C3
:1062C0004170704776060020704700001CB50846F4
:1062D0006421FAF70DFF002913D10A490878012833
:1062E0000FD1487800280CD0401EC2B24A7006A1D7
:1062F0006846FEF755F8052007F07CFD694608F072
:1063000001F81CBD76060020253032640000000034
:106310007047704710B50248FDF76AFA10BD0000DB
:10632000254300087047000010B508466421FAF7BD
:10633000DFFE002914D10B480078002810D1094C49
:10634000241D207A401CC0B220726168884201D9A5
:1063500020782072022007F04DFD217A00F073F8BA
:1063600010BD0000880600207047704710B5054832
:10637000FDF73EFA022007F03DFD0349097A00F0DF
:1063800062F810BDD54200087C06002070477047B7
:1063900070477047704770477047704710B50446A4
:1063A00000290ED1082007F025FDA04201D105A04B
:1063B00005E0032007F01EFDA04202D106A0FDF774
:1063C000DFFF10BD574153485F427574746F6E31E3
:1063D00020646F776E0A0000574153485F4275741E
:1063E000746F6E3220646F776E0A000070477047DA
:1063F000704710B50446022007F0FCFCA04204D10F
:10640000022007F0F7FC06F0A5FE10BD10B504460B
:10641000002907D1082007F0EDFCA04202D102A01C
:10642000FDF7AEFF10BD000057415348574F524B88
:106430005F427574746F6E3120646F776E0A00006E
:1064400070477047704708B56A4611700021517057
:10645000694607F057FF08BD10B586B0FDF7D4FABE
:10646000FDF718F92E48FEF747FD2E4CA0622EA02E
:10647000FDF786FF30A0FDF783FFFEF7EFFCE0603D
:10648000FEF7ECFC2061FEF7E9FC6061FEF7E6FC3C
:10649000A061FEF7E3FCE061FEF7E0FC2062FEF79E
:1064A000DDFCA060FEF7DAFC6060254800688047EC
:1064B000244803AB07C807C3002002462146430017
:1064C000401CCA520128FADB0120820201911D49B9
:1064D000009202901C4B1A4A403903A807F0ACFC0A
:1064E000002811D00021084607F080FD002101207E
:1064F00007F07CFD0121022007F078FD002007F065
:1065000017FD12A0FDF73CFF07F058FD1420FBF724
:1065100049FB012240211148FBF713FC06B010BDD6
:1065200090690008300600206C6F6164207561720C
:1065300074200D0A000000006C6564206F6E0A0074
:106540001869000884690008140B00206F70656EDC
:10655000207061676520300A0000000000080050CC
:1065600010B507F02BFDFEF779FC254C6062E16861
:10657000411A0A290CD9E060A06A00220369114679
:10658000012098471F4800220369114601209847BF
:10659000A168606A411A022900D9A0602169411AE4
:1065A000322906D92061A06A00220369114604201D
:1065B00098476169606A411A642906D36061A06ADC
:1065C00000220369114603209847A169606AFF22EF
:1065D000411AF532914200D3A061E1697D22411A4E
:1065E000D200914203D3E06107A0FDF7C9FE216A02
:1065F000606A074A411A914200D3206210BD000030
:1066000030060020306900087469636B31730A003A
:1066100060EA00007047704770B5964800680168EE
:10662000402211430160002240219348FBF789FB7F
:1066300001240525E4032D07002221462846FBF707
:1066400080FB1420FBF7AEFA012221462846FBF717
:1066500078FB1420FBF7A6FAFE20FDF7B3F8EF2035
:10666000FDF7B0F83620FDF7ADF82820FDF794F8D7
:106670003A20FDF7A7F80520FDF78EF82020FDF75A
:10668000A1F88520FDF79EF8C020FDF785F886204B
:10669000FDF798F89820FDF77FF88820FDF792F82D
:1066A0000220FDF779F88920FDF78CF83320FDF7FB
:1066B00073F88B20FDF786F88020FDF76DF88D20AC
:1066C000FDF780F83B20FDF767F88E20FDF77AF89C
:1066D0000F20FDF761F8FF20FDF774F86220FDF749
:1066E0005BF89920FDF76EF83E20FDF755F89D20E8
:1066F000FDF768F84B20FDF74FF89820FDF762F89A
:106700003E20FDF749F89C20FDF75CF84B20FDF793
:1067100043F8BE20FDF756F84120FDF73DF89B20D9
:10672000FDF750F84720FDF737F8E120FDF74AF86C
:106730000420FDF731F80520FDF72EF8E820FDF7DD
:1067400041F81320FDF728F84020FDF725F8EC204C
:10675000FDF738F83320FDF71FF80220FDF71CF88D
:10676000FF20FDF719F8ED20FDF72CF81920FDF7B3
:1067700013F80920FDF710F8C920FDF723F80520CC
:10678000FDF70AF8C320FDF71DF81420FDF704F803
:10679000C420FDF717F81020FCF7FEFFF020FDF7EE
:1067A00011F88720FCF7F8FF0A20FCF7F5FF0A2014
:1067B000FCF7F2FF0920FCF7EFFF0520FCF7ECFFE8
:1067C0002920FCF7E9FFF120FCF7FCFF4120FCF752
:1067D000E3FF6D20FCF7E0FF5320FCF7DDFF2F20E7
:1067E000FCF7DAFF3120FCF7D7FF3A20FCF7D4FFA3
:1067F000F220FCF7E7FF4620FCF7CEFF0520FCF770
:10680000CBFF0720FCF7C8FF0820FCF7C5FF0620D8
:10681000FCF7C2FF2E20FCF7BFFFF320FCF7D2FFEE
:106820004720FCF7B9FFD120FCF7B6FF8820FCF722
:10683000B3FF3020FCF7B0FF3120FCF7ADFF6A203A
:10684000FCF7AAFF1120FCF7BDFF7820FBF7AAF99F
:106850002920FCF7B7FF2C20FCF7B4FF074C207869
:10686000002802D00020FCF78DFF2078401C20700B
:10687000012070BD4C0700200008005018060020C1
:10688000010002000400060008000A000C001000CD
:106890002000400080000001010101030701000009
:1068A00008040204080101010000000000000000CB
:1068B00000000000000000000000000000000000D8
:1068C00000000000000000000100000002000000C5
:1068D00003000000040000000600000007000000A4
:1068E0000800000009000000000000000000000097
:1068F0000000000000000000010000000200000095
:10690000030000000400000003000000000000007D
:10691000040A000000000000F14D00082D4E0008A0
:106920003D560008655700084D4E0008394E0008D6
:10693000C94E000800000000000000000000000038
:10694000E5510008196600082D5A0008314D00086D
:1069500015660008295A00082D4D0008514D000801
:10696000F959000817660008795000081950000806
:10697000E14F000845500008B14F000815500008CD
:1069800081430008F000F00010000000000000004B
:10699000CD4E00082B4D0008000000000000000054
:1069A000D95100085D5F0008F95A0008C55C00086D
:1069B000A55D00083D5E0008DD5E0008416100083D
:1069C00015620008CD6200088F6300082963000883
:1069D000F16300089963000845640008495F0008F6
:1069E000A95A0008655C0008815D0008395E00084E
:1069F000CD5E00082561000811620008B962000838
:106A00006D63000815630008ED63000895630008D6
:106A100041640008475F0008795A0008D15B00080C
:106A20004D5D0008E95D0008415E00082560000832
:106A3000C1610008196200086B6300081363000855
:106A40009D630008936300080D640008595F000807
:106A5000C55A0008715C0008A15D00083B5E000893
:106A6000D95E00083D61000813620008C962000891
:106A70008D63000825630008EF6300089763000832
:106A800043640008455F0008755A0008CD5B0008A4
:106A9000315D0008E55D00083F5E000821600008E8
:106AA000BD610008176200086963000811630008EF
:106AB0009B63000891630008F3630008DC6A000828
:106AC000000600209C00000054440008786B000879
:106AD0009C060020B40E0000644400080100000081
