:020000040800F2
:10000000480C0020D50000083506000875050008DA
:1000100000000000000000000000000000000000E0
:100020000000000000000000000000003D06000885
:100030000000000000000000370600083F0600082E
:10004000E7000008E7000008E7000008E7000008F4
:10005000E7000008E7000008E7000008E7000008E4
:1000600000000000E7000008E7000008E7000008C3
:10007000E7000008E7000008E7000008E7000008C4
:10008000E7000008E7000008E7000008E7000008B4
:1000900000000000E7000008E7000008E700000893
:1000A000E7000008E7000008E7000008E700000894
:1000B00085060008E70000080000000000000000BE
:1000C0000348854600F03CF800480047090900084D
:1000D000480C00200448804704480047FEE7FEE73C
:1000E000FEE7FEE7FEE7FEE749060008C10000085C
:1000F00030B50B46014600202022012409E00D46C0
:10010000D5409D4205D31D469540491B2546954047
:1001100040191546521E002DF1DC30BDD2B201E06F
:100120000270401C491EFBD270470022F6E710B552
:1001300013460A4604461946FFF7F0FF204610BD55
:10014000064C0125064E05E0E36807CC2B430C3C2A
:1001500098471034B442F7D3FFF7B6FF600A00089F
:10016000800A000830B584680023002C01D0944236
:100170000BDA012030BD05680469645DCC54048845
:10018000641CE405E40D5B1C04609342F3DB8168AE
:10019000891A8160002030BD8368C268934202D012
:1001A000D21A012A01DA0120704743680269D1544A
:1001B0008188491CC905C90D41608168491C81605D
:1001C0000020704703494A6901231B041843024376
:1001D0004A61704700200240044A5069F82398435E
:1001E000C9000143024801435161704700200240A9
:1001F0000200010030B505494C6901252C434C61D2
:100200000260BFF36F8F436030BD000000200240EA
:1002100030B50B4C002362690125AD042A436261AD
:10022000EFF3108272B620C95B1C20C0DBB2402BFA
:10023000F9D32069C003FCD482F3108830BD0000DC
:1002400000200240F8B5054600F03AF947190126AA
:100250003604114C03E000F033F9B84214D220699F
:100260003042F8D121690D4801400D48206103D08A
:100270000C4841600120F8BD00F022F9451905E065
:1002800000F01EF9A84201D30320F8BD2069400305
:10029000F6D40020F8BD000000200240FAC30000A0
:1002A000FBC300001400002070B5044600F008F9FC
:1002B0000546601C02D004480078241800F000F9BC
:1002C000401BA042FAD370BD00000020F8B51F4EBD
:1002D000044630780F4601280AD0012030700020F3
:1002E00070607D20C000FFF7ADFF002802D029E03C
:1002F0000220F8BD042161602268042A03D0491F4E
:100300003960A56814E00846FFF75CFF7D20C00057
:10031000FFF798FF16E029466068FFF75DFF7D2034
:10032000C000FFF78FFF002801D03D6005E06D1C85
:10033000E268A1688918A942EDD805494A690223F3
:100340009A434A6100213170F8BD0000140000207A
:1003500000200240054901204A69C3071A434A6147
:100360004969002900DA002070470000002002409F
:10037000F0B51FB4144C06462078154601280AD063
:100380000120207000277D20C0006760FFF75AFF22
:10039000002803D010E0022005B0F0BD012E0DD0E2
:1003A00029460198FFF734FF7D20C000FFF74AFF80
:1003B00006494A69B2434A612770EDE72A46039B22
:1003C0000198FFF717FFEFE714000020002002401C
:1003D000064900204A69002A07DA054A8A60054A68
:1003E0008A604969002900DA012070470020024034
:1003F00023016745AB89EFCDFCB50022012403251D
:1004000052E01E46234693401E424CD04E68012EB9
:1004100005D0022E03D0112E01D0122E16D18668DF
:100420002F46B4465600B646B7406646BE43B4466D
:10043000CF687646B74066463743876046689E4336
:100440000B79DB06DB0F934033434360C6685700EC
:100450002B46BB409C469E438B68BB403343C360E6
:100460004B68022B01D0122B14D1D3089B001B1810
:1004700001931E6A5307B646DE0E0F23B340009663
:1004800076469E43B6460B69009EB34076461E43B1
:10049000019B1E6203686646B3430E79B607B60F2A
:1004A000BE401E430660521C0E683346D640A8D19B
:1004B000FCBD002A01D08161704781627047000055
:1004C00001488068704700000000002002488168F1
:1004D00002788918816070470000002070B50F4EC7
:1004E000002431780546002915D07D20C000FFF793
:1004F000FFFD01460A480068FFF7FAFD00F022F808
:10050000002808D1042D06D200222946401E00F002
:1005100015F8756000E00124204670BD0000002041
:100520000C000020002805DBC106C90E0120884010
:10053000014908607047000000E100E010B500F0DC
:1005400097F910BD094910B5401E884201D9012014
:1005500010BD074C60610321081F00F089F90020DD
:10056000A06107202061002010BD0000FFFFFF00F8
:1005700000E000E0FEE700000149886270470000EB
:100580000044004070B50E460446154611463046FC
:10059000FFF7CBFD002060602060083461C470BDAF
:1005A000F0B587B014216846FFF7BFFD1F48416BC7
:1005B000012421434163416B21400591426B042199
:1005C0000A434263426B0A400592426B08210A4388
:1005D0004263406B4D0108400590052000222946EA
:1005E0000007FFF766FF002280211148FFF761FF37
:1005F0000026032701AA0095D0C2052069460007FE
:10060000FFF7FAFE80206A46D1C269460848FFF724
:10061000F3FE0520012229460007FFF74AFF0122C9
:1006200080210348FFF745FF07B0F0BD00100240EE
:1006300000080050FEE7704780687047704710B5AB
:10064000FFF744FF10BD000001200249C00688608A
:100650007047000000ED00E000B585B01421684649
:10066000FFF763FD0C200090022001900121032080
:10067000039002910491052069460007FFF7BCFE34
:1006800005B000BD10B5064C2068800604D5606A30
:10069000C1B20448FFF780FD0348206210BD00008E
:1006A0000044004030080020FFFF0000F0B50020AB
:1006B0008FB00B900C900D900A90019008900990CB
:1006C0000446054607902E20FFF756FF6420FFF7EB
:1006D000EBFD4F48FFF7B0FF0628F4DB012206A927
:1006E0004B48FFF73FFD6846007EAA2801D049A08D
:1006F00009E0012206A94648FFF734FD6846007E5E
:10070000552803D044A000F043F9DCE743A000F0F3
:100710003FF9042206A93E48FFF724FD069800BAD7
:10072000060A6846C07E360206433DA000F030F956
:100730003F4F40493868081AB04203D23EA000F04B
:1007400027F93BE0FFF744FE394F1F213868C906FF
:100750004018C10A701EC00A401C02220C910D9064
:100760000A9207A90AA8FFF7B1FD36A000F010F918
:100770003F6836E02648FFF75FFF082801D30822CC
:100780000AE02B4909688919CA1B824229D8082A1C
:1007900027D200200890099008A91D48FFF7E2FC25
:1007A000204628430DD039460120099B089AFFF7BF
:1007B000DFFD00280CD06520FFF7DEFEFF200FB024
:1007C000F0BD0198099D0830089C0837019008E0A9
:1007D0000198083708300190B04207D22E20FFF769
:1007E000CBFE134800688019B842C3D8104822468F
:1007F00001682B460120FFF7BBFD1549002008606A
:10080000FFF7A8FD13A000F0C3F80020D7E7000011
:10081000300800206E3100006E3200000A00000037
:100820004170705F757067726164653A0A0000001C
:100830001000002000C0000873697A65206F76659B
:10084000720A00007570646174696E6700000000D0
:1008500000B100400A4170705F7570677261646535
:10086000205375636365737366756C0A000000003E
:100870008307FF22DB0E9A408907090E9940002862
:1008800008DB830809489B001B181868904308433D
:10089000186070470007000F0838830804489B0061
:1008A0001B18D86990430843D861704700E400E002
:1008B00000ED00E002E008C8121F08C1002AFAD1CA
:1008C00070477047002001E001C1121F002AFBD1D0
:1008D0007047000008480068006808490840012186
:1008E0004907884204D1064800680649884201D178
:1008F0000120704700207047100000200000FE2FEC
:1009000000B1004055AA55AA01201A49C0068860C6
:1009100062B6194801688415214301600020FFF781
:10092000DDFD1648046001684905FCD58168C908E9
:10093000C900816001210903C1600D254563104A8A
:10094000C2630E4840300160FFF72AFE0D48056083
:100950008B21C160FFF780FE0B48016821430160D5
:100960000A488169012292041143816100F038F83C
:10097000FEE7000000ED00E0002002400010024011
:100980000044021000440040007000400028004075
:10099000054904E08A62401CCA691206FCD5027847
:1009A000002AF7D170470000004400400748006863
:1009B0000168074A114001225207914205D172B6DF
:1009C000016881F3088840680047704710000020E4
:1009D0000000FE2F01490860704700001000002051
:1009E0000148006800470000540A00080520FFF78E
:1009F0005BFC1148FFF7EEFFFFF76CFF002814D0F7
:100A000001220E49D2028818FFF7BCFD1C20FFF717
:100A100089FD0B480168202211430160FFF746FE63
:100A2000002802D007A0FFF7B3FFFFF7BFFF07A022
:100A3000FFF7AEFF00BFFDE7001000083000002008
:100A4000004400406572726F720A00004E6F2041D0
:100A500070700A00ED0900080000000000000000AE
:100A6000800A00080000002014000000B4080008FC
:100A7000940A000814000020340C0000C408000888
:100A80000100000004000000000000000024F40049
:040A9000001000084A
:04000005080000C12E
:00000001FF
