:020000040800F2
:1010000018150020D5100008053500080930000823
:1010100000000000000000000000000000000000D0
:101020000000000000000000000000006135000822
:10103000000000000000000007350008A735000888
:10104000E710000800000000E7100008E7100008A3
:10105000E7100008C5170008E7100008E7100008AF
:1010600000000000A1160008B1160008E7100008F3
:10107000E7100008E7100008E71000080000000073
:10108000E71000080000000000000000E710000862
:1010900000000000E710000829360008E7100008EB
:1010A000E7100008E7100008E7100008E710000844
:1010B000853B000800000000000000000000000068
:1010C0000348854600F046FA00480047614600089C
:1010D000181500200448804704480047FEE7FEE753
:1010E000FEE7FEE7FEE7FEE719360008C11000083C
:1010F00030B50B46014600202022012409E00D46B0
:10110000D5409D4205D31D469540491B2546954037
:1011100040191546521E002DF1DC30BD70B500247B
:101120002546002801DA01244042002901DA012580
:101130004942FFF7DDFFAC4200D04042002C00D016
:10114000494270BDD2B201E00270401C491EFBD280
:1011500070470022F6E710B513460A4604461946C2
:10116000FFF7F0FF204610BDF0B51FB40646002083
:1011700082B005464024019100901BE0019922466F
:101180000F46304600F008FA049A059B801A9941F0
:1011900010D310461946224600F0EEF9361A8F4158
:1011A0000197224601200021009F00F0E5F9381840
:1011B0004D4100902046641E0028DFDC019B009812
:1011C0002946324607B0F0BDF0B5074608465840FC
:1011D00087B0C00F049048000E46590040084908E7
:1011E000BC1A884105D2384631461E4617460B4682
:1011F00002465800400810434CD0300D0390400583
:101200005900400D490D0590401A0290402872DAAD
:1012100018030121000B090508430190049800926E
:10122000002805D001995242002088410092019087
:10123000029840210A1A0199009800F09DF905468C
:101240000C466B4607CB00F0B8F9C0197141039A00
:101250000E0D0023D71756401A467A40164344D045
:10126000049A002A2DD0029A012A039A15DC12054D
:10127000C01A914101263605001C7141D20F059E0E
:10128000D2070093019202962A46234600F0B5F950
:1012900007B0F0BD38463146FAE71605224A0F4638
:1012A000B218C01AB74101210905001C4F410018AE
:1012B0007F41114618187941E20F10436D196441BE
:1012C00013E0E2076D0815436408C2071443039A4C
:1012D00001261205C01A91413605001C7141CE0746
:1012E000400830434908C01851412A46234600F0BF
:1012F00077F9CDE7FFE7049801224000C117121AE1
:1013000000238B4104983146C417381AA141EEE7F7
:1013100030B40124E407634030BC55E730B4012405
:10132000E407614030BC4FE70000E0FFF0B51FB4B8
:1013300088B00B990998002448400999C00F4900CA
:1013400049080991C0070B990090490049080B9181
:1013500009990898A64608431CD00B990A98084397
:1013600018D0099801244000420D4800410D099809
:1013700024050003000B204309900B980003000B89
:1013800020430B9050181C4940180022019014462D
:10139000104605E0002001460DB0F0BD032801DA3B
:1013A000034600E003239C46C11A0AAE0AE05F0030
:1013B00008ADED5B4F00F75B7D430027AA187C4129
:1013C000491C5B1E6145F2DD410004AB5A52210409
:1013D000120C0A43240C401C0828DFDB0198029001
:1013E0000099704601910090059B049A0799069810
:1013F00000F003F9D0E700000DFCFFFFF0B50C464C
:101400005C4085B0E40FE40703944C0000266408B8
:1014100059009446490802460296224321D062466A
:101420000A431ED06200570D4A000E032303550DD8
:10143000012402462C492405781B1B0B360B40184F
:1014400023432643614600901C46501AB44103D3FF
:101450000098401C009002E0921800985B41002820
:1014600003DA0020014605B0F0BD00200121090586
:101470000746864611E064461D46141BB54106D357
:101480006546521BB341744607430C43A646CD073D
:1014900040084908284392185B4105460D43EAD1AC
:1014A0001046184313D06046194650407140084317
:1014B00006D06046101AB34106D20122002306E08E
:1014C00000220123DB0702E00122D24353100098DF
:1014D00074460105381C6141029C039D0019694155
:1014E00000F07EF8BFE70000FD0300004A0009039A
:1014F0000123090B1B0519430A4B10B5520D9A42E3
:1015000002DA0020014610BD064B34339A4203DC58
:101510009A1A00F041F810BD034BD21800F02CF8D5
:1015200010BD0000FF030000CDFBFFFF10B5002938
:1015300004DB0124E40740428C412146002B04DBFC
:101540001C460123DB075242A341994200D190423D
:1015500010BD0000064C0125064E05E0E36807CCEF
:101560002B430C3C98471034B442F7D3FFF7ACFD43
:10157000D0590008F059000810B5202A04DB0146B4
:10158000203A9140002010BD914020239C1A034630
:10159000E3401943904010BD10B5202A04DB0846F3
:1015A000203AD040002110BD0B46D340D04020242B
:1015B000A21A91400843194610BD10B5202A06DB37
:1015C000CB170846203A1041C1170B4306E00B46E3
:1015D0001341D0402024A21A91400843194610BD5F
:1015E00010B5002B08DA0024401C614192185B41C1
:1015F0001A4301D14008400010BDF0B51FB482B0BD
:1016000005460C0003D0084602F0E4FA02E002F0BE
:10161000E1FA20300246009021462846FFF7ACFF51
:10162000049B059A04460F4618431143084314D0FF
:10163000184610431BD0009840210A1A18460599F5
:10164000FFF7AAFF05460E46009A05990498FFF792
:1016500093FF084305D0012004E02046394607B037
:10166000F0BD0020C11705430E432C4337430099BA
:101670000E986305401A7905E40A00220C43FD0A1E
:101680000A3002D500200146E9E701051019694139
:101690000C9C0D9D00196941FFF7A2FFDFE70000D8
:1016A00010B5024800F02CF910BD0000340A0020EB
:1016B00010B500F037F8034800F022F9024800F0B6
:1016C0001FF910BD7C090020D809002010B5044680
:1016D000006C09498008800040186064207814215B
:1016E0000838FFF705FD04498031A164C106C90E21
:1016F00001208840E06410BD000802400179084BD9
:101700008906890E8A00D2180265054A4432491EAC
:1017100042658A07920F0121914081657047000060
:10172000FC08024070B5134B186813491C240D6C5B
:10173000022225401646AE40304219D0086805689E
:10174000AD0715D505680A26B54305605868096CCC
:1017500021408A40104358600848006881680906A3
:10176000FCD4102005210907886105490020087074
:1017700070BD0000000002407C090020B00600207F
:1017800020060020F8B516460F460446002501F055
:10179000BDFE002802D1A068B0420CDA0120F8BDDD
:1017A00021682069405C78552068E168401CFFF79B
:1017B000B5FC6D1C2160B542F2DBA068801BA06007
:1017C0000020F8BD10B5012000F05CF9022000F007
:1017D00059F910BD10B50A46044601F09EFE0028D6
:1017E00004D1A168E068401A012801DA012010BD87
:1017F0006168206942546068E168401CFFF78EFC14
:101800006160A068401CA060002010BD72B6FEE7B9
:10181000F0B5002808D0014620314A79022A05D0C7
:101820000422C263002008710120F0BD0268136821
:101830000E24A3431360426C1468FF2301339C43BE
:101840001460026814686408640014600C4E7268C6
:10185000056C1C24254001242746AF403A437260A2
:10186000826CC56C5560026D002A05D015689D43D9
:101870001560826D406D42604C7100200871F0BDB2
:1018800000000240F8B50024014620314A79022ABE
:1018900003D00421C16301242DE0026813680E25E2
:1018A000AB431360026813685B085B001360426C13
:1018B0001368FF250135AB431360104E7268056C49
:1018C0001C231D4001231F46AF403A437260826CC7
:1018D000C56C5560026D002A06D016681D02AE4325
:1018E0001660426D856D55604B7100220A71816BE7
:1018F000002900D088472046F8BD000000000240C3
:10190000F0B42C4D2B6801680A68046C1C273C401D
:101910000426A6401E4211D056070FD50A6892062B
:1019200003D40B68042293430B606A68036C0421A0
:101930003B4099400A436A60016B1CE00227A740C4
:1019400006461F402036002F19D0970717D50A6882
:10195000920605D40A680A239A430A60012171712C
:101960006B68026C1C210A40022191400B436B60A2
:1019700000213171C16A00291AD0F0BC084708273C
:10198000A7401F4214D0120712D50A680E239A43AB
:101990000A606A68036C1C210B4001210C469C40C4
:1019A00022436A60C163717100213171416BE2E7CA
:1019B000F0BC70470000024070B504003FD02548DD
:1019C000256814212818FFF793FB8000206402206B
:1019D00026462036707128681F4908402860A16893
:1019E000E06862690143206910430143A069014333
:1019F000E0690143206A01432068026811430160E5
:101A00002046FFF763FE0121A06889030025884274
:101A100000D165602079616C8006800E0860A06C42
:101A2000E16C41606068401E03280AD82046FFF739
:101A300065FE206D0560606DA16D416004E00120D0
:101A400070BD25656565A565E5630120707135711B
:101A5000002070BDF8FFFDBF0F80FFFF70B504468A
:101A600000F0D2F80546601C02D004480078241823
:101A700000F0CAF8401BA042FAD370BD0006002057
:101A80007047000070B5084D0446E868204203D056
:101A9000EC60204600F00AF82869204203D02C614F
:101AA0002046FFF7EDFF70BD0018024070470000B0
:101AB000F0B500228EE0012595402B407ED00C79B8
:101AC000A407A40F012C01D0022C10D18668540069
:101AD0000327A740BE43CF68A740374387604468C9
:101AE000AC430D79ED06ED0F9540254345600C792B
:101AF000E443A40708D0C56854000326A640B543B4
:101B00008E68A6402E43C6600C79A407A40F022C51
:101B10000CD1D408A40027183D6A5407E40E0F2600
:101B2000A640B5430E69A6402E433E6205685400A8
:101B30000326A640B5430E79B607B60FA6402E433E
:101B400006604C68A403A40F43D09508244CAD0054
:101B50002F193D6E9407E40E0F26A640B5430526C7
:101B60003607B04201D100260FE01E4EB04201D12F
:101B700001260AE01C4EB04201D1022605E01B4EB0
:101B8000B04201D1032600E00526A6402E43144DA5
:101B90003E662C684E689C43F60200D51C432C60C0
:101BA0006C684E689C43B60200D51C436C600C4DBB
:101BB00080356C684E689C43B60300E009E000D5B0
:101BC0001C436C602C684E689C43F60300D51C4394
:101BD0002C60521C0B681C46D44000D06BE7F0BD53
:101BE000001802400004005000080050000C005093
:101BF0000069084000D001207047002A01D08161AF
:101C0000704781627047000001488068704700009B
:101C100000060020024881680278891881607047B8
:101C20000006002010B50848002401688215114301
:101C30000160032000F00AF8002801D0012401E02F
:101C400000F028F8204610BD0020024070B50F4E6D
:101C5000002431780546002915D07D20C000FFF70B
:101C600047FA01460A480068FFF742FA00F016FDFD
:101C7000002808D1042D06D200222946401E00F07B
:101C80002BF8756000E00124204670BD000600209E
:101C90000C06002008B509480168012211430160C3
:101CA00000681040009005484038C26B01040A43A8
:101CB000C263C06B0840009008BD000040100240A5
:101CC000002805DBC106C90E0120884001490860D3
:101CD0007047000000E100E010B501F09FFF10BD6B
:101CE00010B50F4C21680322520291430143216039
:101CF000C11FFF39FA390ED10A480621006848434E
:101D00000949FFF7F5F9401C02E0002805D0401E04
:101D100061694905F9D4002010BD032010BD000001
:101D2000007000400C06002040420F00FEB5044643
:101D300000250068524E2F46800359D5002001909F
:101D40004F484038C06BC0000AD44D484038C26B81
:101D500001040A43C263C06B084000900120019057
:101D600048480168821511430160FFF74DFF00905C
:101D700007E0FFF749FF0099401A022801D903251F
:101D80002CE040480068C005F3D5002D26D1F0694D
:101D90000321090208400FD0616981420CD0F0692B
:101DA00003210902F2698843012109040A43F2610F
:101DB000F2698A43F261F061C00759D0FFF724FF4E
:101DC000009006E0FFF720FF0099411A2E4881425B
:101DD000D5D8F0698007F5D5002D49D02F46019858
:101DE000002805D026484038C26B01048A43C263EC
:101DF0002078C00705D070696168800880000843BA
:101E000070612078800606D5706903210903884334
:101E1000A168084370612088400411D57069216968
:101E20008000800808437061012120698907884289
:101E300006D113484038C168012212041143C16021
:101E40002088000512D57069032189038843E16861
:101E5000084370610121E0688903884206D108487F
:101E60004038C168012212041143C1603846FEBDEA
:101E7000F06903210902884361690843F061AEE714
:101E8000401002400070004088130000F8B50D4675
:101E9000040044D04D4800684007400FA84214D2C7
:101EA0004A4F3868C008C00028433860FFF7ACFECE
:101EB000064605E0FFF7A8FE811B4548814260D831
:101EC00038684007400FA842F4D12068414E81078E
:101ED0000DD5400704D5B068072109030843B06059
:101EE000B0680F2109028843A1680843B0602078D8
:101EF000C00731D0606801280AD002280BD0002822
:101F00000FD03449403103280ED0C969890704E055
:101F10003168890301E031688901002906DB01206D
:101F2000F8BD31684905F8E7096AEFE7B168C90803
:101F3000C9000143B160FFF767FE074605E0FFF700
:101F400063FEC11B224881421BD8B068382108407B
:101F50006168C9008842F2D11C4801684907490FED
:101F6000A94216D90168C908C90029430160FFF7D1
:101F70004BFE074607E0FFF747FEC11B14488142AE
:101F800001D90320F8BD114800684007400FA8425E
:101F9000F1D12078400706D5B168072000038143BE
:101FA000E0680143B16000F031F8B1683C22890972
:101FB0001140094A515CC906C90EC840074908606A
:101FC00007480068FFF742FEF8BD0000002002400D
:101FD0008813000000100240C85800080C060020BA
:101FE000040600200648074900688968064A490433
:101FF000490F8900515CC906C90EC84070470000EE
:102000000C060020001002400859000810B5204CB2
:10201000A068204A8006400F16D0A0688006410FB5
:10202000501001290FD0A1688906490F022912D04A
:10203000A0688006400F042823D0A0688006400FC7
:10204000032821D0002010BD206801218004400F0A
:102050008140104612E0E1688B07E1689B0F49065A
:10206000490F491C032B00D01046FFF741F8E168E7
:102070004904490E4843E168490F491CFFF738F805
:1020800010BD0120C00310BD7D20000210BD000066
:10209000001002400024F400F8B504007ED020783F
:1020A0003827C007E74E002845D0B068F1683840AF
:1020B0008907890F102802D008280AD001E00329D7
:1020C00007D0012160680904884209D130680843BB
:1020D00014E0306880032ED560680028DED02AE046
:1020E000052301221B0492049842306802D1104358
:1020F0003060EBE788433060306890433060606860
:1021000000280CD0FFF780FD054604E0FFF77CFDBA
:10211000401B642873D830688003F7D50BE0FFF7C5
:1021200073FD054604E0FFF76FFD401B6428F1D8FE
:1021300030688003F7D42078800769D5B068F168EB
:1021400038408A070721920FC902102802D00028C0
:1021500013D001E0022A10D0E068002846D0306891
:1021600088432169084330603168FF200130014312
:102170003160FFF749FD05462CE03268520502D573
:10218000E268002A8AD072687F231B029A4363693F
:102190001B021A437260002810D100E08DE0306805
:1021A0008843216908433060306801218004400F72
:1021B0008140A548FEF79CFFA4490860A448006838
:1021C000FFF744FD002878D122E0FFF71DFD401BFA
:1021D00002289FD830684005F7D570687F21090232
:1021E0008843616909020843706011E03168FF208B
:1021F000013081433160FFF707FD054605E096E0B9
:10220000FFF702FD401B022884D830684005F7D450
:102210002078904D00072ED5B0688006400F032827
:102220000AD0A0690028286A16D001210843286234
:10223000FFF7EAFC07460BE0286A80071BD5A06978
:1022400000289FD017E0FFF7DFFCC01B02286ED8E4
:10225000286A8007F7D50EE0400840002862FFF7A3
:10226000D3FC074604E0FFF7CFFCC01B02285ED872
:10227000286A8007F7D4207840076AD500200090AC
:10228000B0688006400F042818D0F06BC00008D456
:10229000F16B012000070143F163F16B0140012064
:1022A00000906D480168C90518D4026881150A4379
:1022B0000260FFF7A9FC07460CE083E0E8698007AD
:1022C00047D5A06800287DD043E0FFF79DFCC01BE8
:1022D00002282CD860480068C005F6D5A0680128FF
:1022E00010D004210528E86910D040084000E861BA
:1022F000E8698843E861A068002814D0FFF784FCEF
:1023000007460CE0E86901210843F3E70843E86168
:10231000F8E7FFF779FCC11B5048814265D8E869AE
:102320008007F6D50DE0FFF76FFC074606E05CE09E
:10233000FFF76AFCC11B4948814256D8E86980070B
:10234000F6D40098002804D0F16B012000078143E7
:10235000F163E069002873D0B1688906490F02294A
:102360004DD001273F060228306805D0B8433060C1
:10237000FFF74AFC04463AE0B8433060FFF744FCFC
:10238000054604E0FFF740FC401B02282DD83068CA
:102390008001F7D4616A206AA26A0843E16A1202E6
:1023A00011430843216B0843F1682D4A114008434B
:1023B000F060306838433060F06801210907084355
:1023C000F06000E03AE0FFF71FFC044604E0FFF78E
:1023D0001BFC001B022808D830688001F7D52FE0CD
:1023E000FFF712FC001B022801D90320F8BD30685A
:1023F0008001F5D4F0681B490840F06020E0012816
:10240000F4D0F068226A8107890F914216D17021B9
:10241000626A0140914211D17F21A26A0902014002
:10242000120291420AD11F214904E26A01409142FD
:1024300004D1400F216B4007884201D00120F8BD34
:102440000020F8BD001002400024F4000C0600201B
:102450000406002040100240007000408813000075
:102460008C80C11FFCFFFEEFF8B504000CD0606A41
:10247000002600280AD02661666125464035A662FE
:10248000687F002808D00BE00120F8BD6168C81FF4
:10249000FD38F2D0E661F0E72E77204600F05CF8D8
:1024A00002226A772068016840239943016007236C
:1024B000E1681B02994201D9002001E001200003DC
:1024C0000F273F02B94202D0994200D0A662FF23F3
:1024D0006168053319402127A368BF023B401943B7
:1024E00023691340227D1943D207D20F11430123E0
:1024F000A2695B021A401143E26938231A40114372
:10250000226A80231A401143A26A9B011A40114398
:1025100022681160A1690422090C1140626A10232B
:102520001A401143626B08231A4011430F23E268DB
:102530001B021A401143012212031040014320687C
:1025400041602068C16952109143C1612666012033
:1025500068770020F8BD0000F0B587B0044614216C
:102560006846FEF7F6FD454A2168454802270325DF
:102570000026914244D1424940310B6882141343F2
:102580000B60096811400591416B012211434163C1
:10259000406B029610400590C220009005206946CD
:1025A0000197049603950007FFF782FA364D3548E8
:1025B000AE601027EE6081C5EE602E616E618020F6
:1025C000AE61A8603048083DFFF7F6F9002801D059
:1025D000FFF71CF9A5652B48AC622C4D1430286020
:1025E000AF601120EE6068606E61AE61EE618020C8
:1025F0002E622861284639E06565AC6207B0F0BDFF
:10260000234A9142FAD1C16B12141143C163C16BC9
:1026100011400591416B39434163406B019738404C
:1026200005901011009005200490029603956946CC
:102630001848FFF73DFA0120C00200900296694653
:102640000197049603951348FFF732FA0D48124D8F
:1026500014382860132068601020EE60A8606E6156
:10266000AE61EE6180202E6228612846FFF7A4F952
:102670000028C1D0FFF7CAF8BEE7000000300140D3
:10268000001002401C0002407C090020D8090020F4
:102690000038004000040050340A0020094910B5F9
:1026A000401E884201D9012010BD074C6061032102
:1026B000081F01F0B3FA0020A0610720206100206C
:1026C00010BD0000FFFFFF0000E000E0F0B5024693
:1026D0002032137F012B23D001231377022353775A
:1026E00004686368A5680F4EB44204D10F273F0504
:1026F000BB434F683B437027BB430F681F43676072
:102700000068B04202D0084B984204D18023896807
:102710009D43294381600120507700201077F0BD50
:102720000220F0BD002C01400004004070B5040000
:1027300005D025462035687F002802D006E001201C
:1027400070BD00202877204600F016F80220687738
:10275000211D206800F07CFF012240342272AA77FC
:10276000EA7722706270A270E27022716271A271C7
:10277000E2716A77002070BD08B500680F4A104901
:10278000904202D10A68C01412E00E4A904209D168
:102790000B484038C26B02210A43C263C06B084039
:1027A000009008BD084A9042FBD10A68012040040D
:1027B00002430A6009680140009108BD002C0140F5
:1027C0004010024000040040004401400146203116
:1027D0004A7F012A01D00120704702224A7701680E
:1027E000CB6801221343CB6000680949884202D0BC
:1027F0000849884207D18168074B1940062905D04E
:10280000DB1F994202D0016811430160002070472C
:10281000002C01400004004007000100F8B5054607
:1028200004462035287F0026012817D001272F775E
:1028300002206877206882682E4B1A40FF231B0213
:102840009A4382600868502836D00EDC20284DD08C
:1028500006DC00284AD010281ED147E00220F8BD2F
:10286000302843D0402817D138E060282CD0702879
:1028700018D001221203801A0FD090420CD1CB68DD
:102880004A688968206800F02EFF2068816801226C
:1028900092031143816000E001266F7700202877C2
:1028A0003046F8BDCB684A688968206800F01BFF95
:1028B000206881687722ECE7CA684968206800F0E0
:1028C00027FF5021206806E0CA684968206800F0A8
:1028D00030FF6021206800F011FFDEE7CA68496818
:1028E000206800F015FF40212068F4E722680146C7
:1028F0001046F0E788FFCEFF30B505462C46203065
:10290000403400290CD004290CD008290CD00C2903
:102910000CD010290CD0E278012A0BD0012030BD58
:10292000827FF9E7C27FF7E72278F5E76278F3E77D
:10293000A278F1E7022200292FD004292FD00829FC
:102940002FD00C292FD010292FD0E2700122286817
:1029500000F0BCFE16492868884205D0154A90420E
:1029600002D0154A904204D1426C0123DB031A4382
:10297000426428680122884202D01049884207D167
:1029800081680F4B1940062905D0DB1F994202D000
:10299000016811430160002030BD8277D6E7C2771D
:1029A000D4E72270D2E76270D0E7A270CEE70000D1
:1029B000002C014000440140004801400004004058
:1029C0000700010070B504460D460068002200F0C3
:1029D0007DFE1F491D4822688B10824205D01D488C
:1029E000824202D01C4882420AD1106A084207D1B2
:1029F000106A184204D1506C0126F603B0435064AB
:102A00002068026A0A4206D1016A194203D10168AC
:102A1000490849000160214620310120002D0BD0DA
:102A2000042D0BD04034082D0AD00C2D0AD0102DC7
:102A30000AD0E070002070BD8877FBE7C877F9E71F
:102A40002070F7E76070F5E7A070F3E7002C014015
:102A500011110000004401400048014010B501463A
:102A600080310A78012A15D001220A7024224A6096
:102A70000268136814686408640014600122520735
:102A800093430022426600680360202048600A7079
:102A9000104610BD022010BD7047704770B5044647
:102AA00005468034207801281AD001202070242087
:102AB0006060286806680268520852000260286850
:102AC000826807235B069A430A438260284600F027
:102AD00043FE28680660202060600020207070BDE2
:102AE000022070BD70B50446054680342078012868
:102AF00019D00120207024206060286806680268D0
:102B000052085200026028688268D200D2080A4344
:102B10008260284600F020FE286806602020606061
:102B20000020207070BD022070BD70477047704754
:102B3000F8B503680446D86919689A68B24D064624
:102B40002E4025468035002E75D0B04EB04F164031
:102B50000F4037436ED0C70706D0CF0504D50127F5
:102B60001F62EB683B43EB60830708D5D30706D0B1
:102B7000276802233B62EB6804273B43EB60430773
:102B800008D5D30706D0276804233B62EB680227E9
:102B90003B43EB60030709D520230B40334305D0AB
:102BA000266808233362EE681E43EE60030509D5EC
:102BB0004B0107D501232668DB023362EB68202630
:102BC0003343EB60EB68002B42D080060AD520200F
:102BD0000140C0050240114304D0216F002901D0FB
:102BE00020468847E86821688968490602D4282178
:102BF000084232D0204600F073FE20688168490602
:102C000027D5EFF31081012282F3108883684022D8
:102C10009343836081F31088E06F002819D07D49C9
:102C20008163E06FFEF72EFE002811D0E06F816B0C
:102C30000DE000E017E0860615D5012720263F07A6
:102C40000E4017403E430ED0216FB1E0204688472A
:102C5000F8BD2046FFF76BFFF8BD2046FFF767FF82
:102C60000020E860F8BDE66E012E7DD1C6067BD55A
:102C7000CE0679D510221A62206881682646490658
:102C80004036002947DAE36F196849680904090CDE
:102C9000E8D0B78B8F42E5D9F183196809688906B6
:102CA00034D4EFF31081012383F3108803681701F4
:102CB000BB43036081F31088EFF31081012080F3A0
:102CC0001088206883685B085B00836081F310884C
:102CD000EFF31081012080F310882068836840277B
:102CE000BB43836081F310882020A8600020E06649
:102CF000EFF31081012080F310882068036893436C
:102D0000036081F31088E06FFEF782FDB08BF18BDA
:102D1000401A81B233E0B18BF38BC91AF38B89B2BD
:102D2000002B9FD000299DD0EFF31083012686F35E
:102D300010880668FF272137BE43066083F310889A
:102D4000EFF31083012080F31088206886682F4FEE
:102D5000FF433E40866083F310882020A860002057
:102D6000E066EFF3108300E00DE02067012080F3C0
:102D70001088206805689543056083F31088204615
:102D8000FFF78AFEF8BDC60208D5560206D5012017
:102D9000000518622046FFF7C9FEF8BD06060BD5F0
:102DA00001278026FF050E403A40164304D0616F8C
:102DB000002900D04AE7F8BD420614D54A0612D5CC
:102DC0002046EFF31081012282F310881A68402414
:102DD000A2431A6081F310882021696000214167B5
:102DE00000F011F9F8BD020205D54A0003D52046CE
:102DF000FFF79BFEF8BDC001FCD50029FADA20469A
:102E0000FFF74BFEF8BD00000F08000001000010A6
:102E100020010004CD38000870B5040005D0254617
:102E200080356868002802D006E0012070BD0020CF
:102E30002870204600F026F8242068602068016889
:102E4000490849000160204600F07CFD0128EDD0D2
:102E5000A06A002802D0204600F0A0FC206841684B
:102E60000922D20291434160206881682A2291435D
:102E7000816020680168012211430160204600F052
:102E8000F3FC70BDF0B58DB0044614216846FEF722
:102E900060F9182105A8FEF75CF922492068224C48
:102EA00002270026012588421CD105A80696059513
:102EB000FEF73CFF002801D0FEF7A8FC1A4840307E
:102EC0000268012189030A430260006808400B90F0
:102ED000606B28436063606BC007C00F0B900320DA
:102EE000400212E01149884219D1E16B01204004EF
:102EF0000143E163E16B01400B91606B2843606328
:102F0000606BC007C00F0B900C200090052002964C
:102F100069460197039604950007FEF7C9FD0DB0B9
:102F2000F0BD0000003801400010024000440040A5
:102F3000FFB5044683B080300190406815460E46C8
:102F400020285ED1002E0AD0002D08D0A168C00133
:102F5000814207D12069002804D1F00702D0012066
:102F600007B0F0BD0198007801284AD001980121EE
:102F7000017001990020C860019821214160FEF78D
:102F800043FE274640370290BD82FD820120A168A2
:102F90000003814202D12069002805D03546002671
:102FA00001990020087011E00025F9E70022802136
:102FB000204600F07DFD002815D1002D15D0216898
:102FC000287888626D1CF88A401EF882F88A029B75
:102FD000002806980090E9D100224021204600F008
:102FE00067FD002808D00320BAE730882168C005B3
:102FF000C00D8862B61CE6E70198202141600020E0
:10300000AEE70220ACE77047FEE70000F0B587B0FE
:1030100014216846FEF79DF81B48416B01252943A2
:103020004163416B29400591426B02210A4342638F
:10303000406BCE0108400024052700963F0705900D
:1030400002946946019503943846FEF731FD03204A
:103050000294039480030D4C00906946019520462C
:10306000FEF726FD012291032046FEF7C6FD002251
:1030700061012046FEF7C1FD012231463846FEF7C8
:10308000BCFD002007B0F0BD00100240000400505D
:1030900010B5FFF74DFF10BD70B50D46044616463E
:1030A00011462846FEF755F8002060602060E66073
:1030B0002561A06070BD00000A48C16B0215114374
:1030C000C163094801688215114301600849074836
:1030D0000860BFF34F8F08490648C860BFF34F8FA1
:1030E00000BFFDE7001002400070004055AA55AA3D
:1030F00000B100400400FA0500ED00E008B5FF2330
:10310000FF22002100901133E132084609F034F823
:1031100008BD000010B50124074B24039C62610028
:10312000996106498A689207FCD508738868000689
:10313000FCD49C6110BD0000000400500038004029
:1031400010B50124074B24039C6261009962064973
:103150008A689207FCD5087388680006FCD49C61D5
:1031600010BD00000004005000380040F0B587B0EA
:1031700014216846FDF7EDFF3E48426B04210A43E7
:103180004263426B0A400592416B0125294341632A
:10319000416B29400591416B022631434163416BEC
:1031A00031400591426B08210A434263406B324F24
:1031B000084005900520002239460007FEF71DFD56
:1031C0000321002209032D48FEF717FD00224021AC
:1031D0002B48FEF712FD012211462A48FEF70DFD8D
:1031E000680300246A4631C269462548FEF760FC40
:1031F00031200004019005200095694602950007E2
:10320000FEF756FC052002946946000700970195D9
:103210000394FEF74DFC03200003009002946946DE
:10322000019503941548FEF743FC4020009002945A
:103230006946019503941248FEF73AFC0095029402
:103240006946104801950394FEF732FC11200004F2
:1032500001906946009602940A48FEF729FC002274
:1032600001210520FEF738FD0520FEF729FD07B0F6
:10327000F0BD00000010024010800000000400506B
:1032800000080050000C005010B511480F490160B3
:10329000FF21053141600021072281601202016196
:1032A000C2604161C16101220162520241628261D8
:1032B00081620722C262016308214163FFF7D4F8EB
:1032C000002801D072B6FEE710BD000000300140BA
:1032D000B006002010B511480F490160FF210531EB
:1032E000416000210722816012020161C2604161D8
:1032F000C161012201625202416282618162072240
:10330000C262016308214163FFF7AEF8002801D0D3
:1033100072B6FEE710BD0000003800401407002020
:1033200008B513480268012189040A430260006855
:1033300000220840009010480E4901603F21826041
:1033400041600E490261C16080218161FFF7EEF9A1
:10335000002801D0FEF75AFA002211461620FEF787
:10336000BBFC1620FEF7ACFC0348FFF72FFA08BDA4
:103370004010024000480140900A0020E70300008E
:1033800010B588B0002400940194164916480294A0
:10339000039404940594069412C004608460C4608D
:1033A0001249046141600838FFF7C0F9002801D0D4
:1033B00072B6FEE701200003009069460A48FFF755
:1033C0002DFA002801D072B6FEE70494059404A9F2
:1033D00005480694FFF77AF9002801D072B6FEE797
:1033E00008B010BD002C014078070020FFFF00004E
:1033F00010B588B0002400940194174802940394F7
:10340000049405941349069401603F21846041604F
:10341000046112498461C160FFF788F9002801D076
:1034200072B6FEE701200003009069460A48FFF7E4
:10343000F5F9002801D072B6FEE78020069004A9B5
:1034400004940548FFF742F9002801D072B6FEE760
:1034500008B010BD00040040C4070020E7030000CE
:1034600010B5184816490160E12149024160002168
:103470008160C16001618161C16101620C224162B0
:1034800042618162FFF7C8FC002801D072B6FEE7F6
:1034900000210C48FFF726FB002801D072B6FEE79A
:1034A00000210848FFF7FAFA002801D072B6FEE7BB
:1034B0000448FFF7D3FA002801D072B6FEE710BD2A
:1034C000003801405C08002010B50D480B49016030
:1034D000E1210903416000218160C16001618161D6
:1034E000C16101620C22416242618162FFF794FC7A
:1034F000002801D072B6FEE710BD00000044004075
:10350000EC080020FEE7704780687047806800285C
:1035100001D000207047012070478168C068814257
:1035200001D10120704700207047000030B50346EC
:1035300000200A4C0FE01A781202504000225B1C57
:10354000050402D54000604000E04000521CD2B2A9
:1035500080B2082AF4D3491EEDD230BD21100000FC
:10356000704770B5012604464518F60301F0C8FD02
:10357000204601F09DFD01F04FFDC007FBD1A419CD
:10358000AC42F3D370BD70B514460D46064601F04B
:10359000B7FD22462946304601F058FD01F03CFDBA
:1035A000C007FBD170BD10B5FEF734FB10BD30B5C0
:1035B00091B034216846FDF7CCFD002401200D9424
:1035C0000E940F9440021094FEF78AFB0225E80146
:1035D000039000954020059008200A9080030B90EE
:1035E0000795000304940C90089509946846FEF72B
:1035F00053FD002801D072B6FEE707200D900F940E
:1036000002210E9510940DA8FEF740FC002801D071
:1036100072B6FEE711B030BD01200249C0068860D5
:103620007047000000ED00E0074801220168120425
:10363000914201D900210160491C01600349012028
:103640000968C0430861704710060020900A0020F6
:1036500070B50268184C194EA04201D0B04204D196
:10366000134670254A68AB431A43154B154DA042CB
:1036700008D0B04206D0144EB04203D0984201D0D8
:10368000A84204D103263602B243CE6832438026D4
:10369000B2434E69324302608A68C2620A6882623B
:1036A000A04203D0984201D0A84201D10969016328
:1036B0000121416170BD0000002C01400004004068
:1036C00000440140004801400020004010B5C906F8
:1036D000C90E0123046A8B409C430462036A8A403A
:1036E0001343036210BD30B58468FF252D021B0211
:1036F0001343AC430B432343836030BD8268034BC9
:103700001A400A4307210A43826070478FFFCFFFA8
:1037100030B5036A046A6408640004628469F025B1
:10372000AC43120122430A24A3430B438261036288
:1037300030BD30B5036A1024A34303628369046A71
:103740000F252D031203AB431A43A0239C43090109
:1037500021438261016230BDF8B50446416E4034B8
:10376000002915D000688168806809014D0F0A4E54
:10377000400F3746315C083F385CC000FDF7B8FCAD
:103780006085785D715DC000FDF7B2FC2085F8BDF5
:1037900001206085FAE70000C058000810B5018DCF
:1037A000C90707D001684A6801235B049A43C36ACA
:1037B0001A434A60018D890707D501684A680123C9
:1037C0001B049A43036B1A434A60018D490707D5CE
:1037D00001684A6801239B049A43436B1A434A6079
:1037E000018D090707D501684A680123DB039A4365
:1037F000836B1A434A60018DC90607D501688A6840
:1038000001231B039A43C36B1A438A60018D890607
:1038100007D501688A6801235B039A43036C1A4346
:103820008A60018D490612D501684B680122120594
:10383000446C934323434B60416C914207D1016830
:103840004A6803235B059A43836C1A434A60018DDF
:10385000090607D501684A680123DB04C06C9A4356
:1038600002434A6010BD0000FEB5054600268035C3
:103870000446EE60FEF7C8F9019020680068124F18
:10388000000709D501210097002249052046019B28
:1038900000F00EF900280DD12068006840070BD514
:1038A00001210097002289052046019B00F000F9C4
:1038B000002801D00320FEBD20206860A860E666D5
:1038C0002E700020FEBD0000FFFFFF0110B5806AD2
:1038D000002201464031CA83CA82FFF728F910BD91
:1038E00010B5EFF31082012181F3108801680B6895
:1038F000FF242134A3430B6082F31088EFF310827E
:10390000012181F3108801688B680D4C23408B6086
:1039100082F31088C16E01290AD1EFF3108281F37E
:10392000108801680B681024A3430B6082F3108891
:10393000202288210A500021C166016710BD0000C5
:10394000FEFFFFEFF8B5044681680069E2690143B4
:103950006069002510430143206802684C4B1A40FF
:103960000A43026020684168032212039143E2681F
:1039700011434160216AA069014320688268454B78
:103980001A400A4382602068C16A626A0909090113
:103990001143C1624049206888420FD13F484069C5
:1039A0008007800F10D0012804D002280CD00328F3
:1039B00009D101E0042007E0082005E038498842E9
:1039C00001D1002000E010200122E369D203354933
:1039D000354E364F93422AD1002806D0022807D010
:1039E000042807D0082843D108E0FEF7FBFA03E0DB
:1039F0000A4603E0FEF70AFB02003ED0606A400080
:103A0000315A1046FDF774FB616840004A0880187F
:103A1000FDF76EFB01461039B94229D82349491CEC
:103A200001400007420F20680A43C26025E00028D9
:103A300006D0022807D0042807D0082818D108E0AB
:103A4000FEF7D0FA03E00A4603E0FEF7DFFA0200D1
:103A500013D0606A4000315A1046FDF749FB616897
:103A60004A088018FDF744FB01461039B94201D9D4
:103A7000012502E0216880B2C86020460121403063
:103A8000418501850020206760672846F8BD000059
:103A9000F369FFCFFFF4FF110038014040100240EE
:103AA000004400400024F400A0580008EFFF00008C
:103AB000FFB581B005460F46044680350A9E54E0A6
:103AC000701C52D0FEF7A0F80499401AB0422FD8CB
:103AD000002E2DD020680168490746D5C069C04333
:103AE000000542D401202168C0020862EFF3108172
:103AF000012080F3108820680268FF23A1339A43D5
:103B0000026081F31088EFF31081012080F31088A8
:103B10002068826852085200826081F31088202059
:103B20006860A860E86000202870032005B0F0BD40
:103B3000EFF31081012080F3108820680268FF23D2
:103B4000A1339A43026081F31088EFF310810120C2
:103B500080F310882068826852085200826081F3E6
:103B6000108820206860A860DDE72068C1693846B9
:103B7000884305D0002003998842A1D00020D5E7D2
:103B80000120F8E710B5094C20680168890609D5BD
:103B9000406AC1B20648FDF71DFE20680168202278
:103BA000114301600148FEF7C3FF10BDEC0800207F
:103BB000001100200FB410B503A9044B044A029869
:103BC00000F018F910BC08BC04B018476D45000897
:103BD000600600202021020C01D010211046020AAC
:103BE00001D010460839020901D01046091F820889
:103BF00001D01046891E420801D0881E7047081A5D
:103C0000704730B47446641E2578641CAB4200D201
:103C10001D46635D5B00E31830BC18478307FF2235
:103C2000DB0E9A408907090E9940002808DB8308BB
:103C300009489B001818036893430B4303607047BF
:103C40000007000F0838830804489B001818C36950
:103C500093430B43C361704700E400E000ED00E0D4
:103C600002E008C8121F08C1002AFAD17047704745
:103C7000002001E001C1121F002AFBD170470000A3
:103C8000F0B51FB486B00998089A030D00210243CD
:103C900014D05148514A181850430514119801285E
:103CA00010981AD0281A401C00264D4F4D490096F6
:103CB00001910490002812DA444211E01198012485
:103CC00049A3012801D11098C1430698119A846034
:103CD0000360C26041600BB0F0BD4042E4E70446BF
:103CE000210500203F4A001C51410391029012E03F
:103CF000E00707D032463B4601990098FDF716FBD6
:103D00000191009032463B4610461946FDF70EFBE6
:103D100006460F466410002CEAD10498039B002845
:103D2000029A0999089806DAFDF700FB019B009AB0
:103D3000FDF7FCFA05E0FDF761FB019B009AFDF73A
:103D40005DFB04460E460022284BFDF7EFFB03D82F
:103D50000020C043014607E00022254B20463146A3
:103D6000FDF732FAFDF7C2FB102409E0002C0ADB54
:103D70000A220023FDF7F8F9079B30321A55641E1A
:103D800002460A43F2D11122641C079B121B1C1924
:103D9000119B012B03D0012308430ED10AE00843F5
:103DA00004D0112010900020119077E71098151A78
:103DB0006D1E0BE01098824202DD00236D1C03E0B3
:103DC000824201DA00236D1E002BEED00698119975
:103DD0008260C16030C07EE701FCFFFF104D000033
:103DE000000014400000F03F300000000000F043ED
:103DF0000000E03FFFB597B00646002518E22528F1
:103E000077D100242746FD49049400E00443761C42
:103E100032780120203A90400842F7D130782A28A1
:103E20000ED00222307801463039092916D804997B
:103E30000A235943303940181443761C0490F1E7A3
:103E4000189802C804911890002904DA0120400350
:103E500004434842049002200443761C30782E2804
:103E600014D1042004437078761C2A2809D11898AC
:103E7000761C80C8189009E00A214F43303FC719CB
:103E8000761C3078014630390929F5D930786C280C
:103E900010D006DC4C281AD068280ED06A2817D11A
:103EA00004E0742813D07A2812D110E001204005D4
:103EB00004430CE00121090501E0032109050C433D
:103EC0007178814203D1012000052418761C761CEC
:103ED0003078119066280BD013DC58287DD009DC8F
:103EE00000287BD04528F6D04628F4D047281AD1A0
:103EF000A5E118E0632835D0642870D0652812D178
:103F00009DE170286CD008DC6728F1D069287BD04F
:103F10006E280DD06F2806D1BAE073282ED07528F0
:103F200071D0782859D01A9A199990476D1C7EE162
:103F30006002400F022809D003280DD004281898E9
:103F400001680DD00D60001D189070E11898EA17F7
:103F500001680D604A60F6E7189801680D80F2E785
:103F60000D70F0E718986A4601781172001D1890DC
:103F70000020507202A80090012005E0189802C8A5
:103F8000189000200091C04361070DD5002101E089
:103F90000199491C0191B94212DA8142F8DB009A79
:103FA000515C0029F4D10BE0002101E00199491C8A
:103FB00001918142FADB019A0099895C0029F5D1CF
:103FC000019904981A9B471A21463846199A00F01D
:103FD00097FA0199401945180BE04FE02CE113E0E6
:103FE0004EE0009800990078491C00911A9A19999E
:103FF00090470198401E0190401CF2D1214638465E
:104000001A9B199A10E137E00A20002100900191D3
:104010006002410F022907D0189A01CA1892C217EC
:104020009446032908D00AE01898C01DC108C900A9
:1040300005C91891944607E000B2C21794460429B6
:1040400002D140B2C1178C4600226146944506DA7F
:104050000A460021404291418C462D2102E0210573
:1040600004D52B216A461173012103E0E10701D039
:104070002021F7E7029155E00A200AE0102008E02D
:10408000102000900021042004430191082703E040
:1040900008200021019100906002410F022907D001
:1040A000189A01CA189200229446032908D008E001
:1040B0001898C01DC108C90005C91891944603E0AD
:1040C00080B2042900D1C0B200210291210729D574
:1040D0001199702906D0009A1021019B4A401A4379
:1040E00005D00EE040216A461173012108E06146C7
:1040F000014306D030216A46117311995173022190
:104100000291009A0821019B4A401A430AD1614654
:10411000014301D1610705D530216A4611730121A0
:104120007F1E02911199582904D035A10E910DA935
:104130000D910DE037A1F9E76146019B009AFDF76B
:1041400013F80E9B8C469B5C0D9A521E0D921370B9
:1041500061460143F0D10D9805A9081A203001905D
:10416000600703D501200004844300E00127019883
:10417000874201DD381A00E00020019900904118C3
:10418000029809180498401A0490E00306D42146C6
:104190001A9B199A049800F0B3F94519002706E014
:1041A00003A81A9AC05D199990476D1C7F1C02984C
:1041B0008742F5DBE0030CD521461A9B199A049837
:1041C00000F09EF9451904E01A9A30201999904799
:1041D0006D1C0099481E00900029F5DC08E00D9840
:1041E0000D990078491C0D911A9A199990476D1CE8
:1041F0000199481E01900029F1DC63E109280100C2
:10420000303132333435363738396162636465664C
:10421000000000003031323334353637383941420E
:10422000434445460000000000F05AF94519761C49
:104230003078002800D0E2E528461BB0F0BD6007CA
:1042400000D406271898C01DC108C90048680A682C
:104250000831C30FDB071891190001D09CA108E0B9
:10426000210501D59BA104E0E10701D09AA100E05E
:104270009AA1430011985B08109165280CD006DCC8
:10428000452809D046281DD0472841D141E066285D
:1042900018D067283CD13CE00021112F01DB112010
:1042A00000E0781C0191009008A911A8FFF7E8FC34
:1042B000139905910021119A15927F1C129801976C
:1042C000009150E00120C00703900120019008A94F
:1042D000009711A8FFF7D4FC139A149905920022B5
:1042E000119B009212981593059A0192002901D012
:1042F000104602E0791C40180190381A01D5019847
:1043000004E04042401E0090781C0190C01B0290C7
:1043100043E0012F00DA01270021112F01DD1120D8
:1043200000E038460191009008A911A8FFF7A8FC09
:1043300013990591119A00211298159200910197F5
:1043400021070CD40599B94201DB019900E00191E4
:10435000012904DD159A491E515C302906D0B84266
:1043600001DA011D05DA0121029115E00199491ECA
:10437000EDE7002805DC0099411800910199091A20
:1043800003E0019A411C914200DD01910099401A1D
:10439000401C02900120C0070390200706D4029918
:1043A0000198814202DB0020C04302900020694650
:1043B000C87707AF012103980337C907884224D083
:1043C000022011902B201290039800280CDA404212
:1043D00003902D20129007E00A210398FCF788FE35
:1043E00030317F1E039039701199481E11900029B9
:1043F000F2DC03980028EFD1791E1298087030780B
:10440000202108404530BF1E387006A8C01BC01DC3
:10441000039010980078002800D0012001994118DD
:104420000298C0170918039809180498401A401EEA
:104430000490E00306D421461A9B199A049800F0D0
:104440005FF8451910980078002803D01A9A199936
:1044500090476D1CE00324D521461A9B199A0498B5
:1044600000F04EF845191CE00098002807DB009981
:104470000598884203DD1598405C199901E0199967
:1044800030201A9A904700986D1C401C00900298AA
:10449000401E0290002804D11A9A2E2019999047A4
:1044A0006D1C0199481E01900029DDDC05E038787B
:1044B0001A9A7F1C199990476D1C0399481E039006
:1044C0000029F4DC21461A9B199A0498ACE60000F6
:1044D0002D0000002B000000200000000000000064
:1044E000F8B5044600251E461746880404D405E0A6
:1044F00039462020B0476D1C641EF9D52846F8BD0A
:10450000FFB50446002581B01E46C80301D53027FB
:1045100000E02027880404D505E038460399B04719
:104520006D1C641EF9D5284605B0F0BD7047704774
:1045300010B502A0FFF73EFB012010BD696E697443
:10454000206576656E743A4354500A000020704727
:10455000102005210907886103480068016840228E
:104560001143016070470000B006002038B50446D2
:10457000684604700023DB43012269460248FEF7C7
:10458000D7FC204638BD0000EC080020704710B56D
:10459000FEF7E7FF10BD00000148007870470000FB
:1045A0002006002010B5FEF7EEFF10BD024801788E
:1045B0000029FCD170470000200600200148006857
:1045C000704700001006002070B50178124D0446B7
:1045D000012908D000290CD0032914D0042912D0B5
:1045E000052910D011E00120287009F01FFC687027
:1045F0000BE009F01BFC6978884202D02878022879
:1046000008D0002000E0022028706968002901D04D
:104610002046884770BD0000240600207047000037
:10462000074A084910B58818FEF736FD1C20FDF72B
:1046300047FB05480068016820221143016010BD56
:1046400012020000EE0E0020EC08002010B504005D
:1046500003D02168002900D08847204610BD000003
:1046600008B523492148886062B6FDF7DBFAFEF7FA
:104670009EFFFEF77BFD1F48816B01221143816382
:10468000806B10400022009011460920FDF724FBAA
:104690000920FDF715FB002211460A20FDF71CFB3F
:1046A0000A20FDF70DFBFEF7A3FEFEF7EDFDFEF77A
:1046B00011FEFEF709FFFEF763FE10480E49016088
:1046C0003F2141600021816001610D4A4161C2606A
:1046D0008161FEF72BF8002801D072B6FEE7FEF7E5
:1046E000BFFE00F081FD00F0FFFDFCE700100008B8
:1046F00000ED00E0001002400044014010080020DE
:10470000E703000038B5044607480069009009F047
:104710008DFB002806D109F089FB80006946095805
:104720002046884738BD0000BC59000838B505460A
:1047300008480C468068009009F078FB002807D1F3
:1047400009F074FB800069460A58214628469047C4
:1047500038BD0000BC5900087047000038B5044659
:1047600006484068009009F061FB002804D1A000D1
:10477000694609582046884738BD0000BC590008E2
:1047800038B5054608480C46C068009009F04EFB55
:10479000002807D109F04AFB800069460A582146E3
:1047A0002846904738BD0000BC59000838B505467A
:1047B00008480C460068009009F038FB002807D133
:1047C00009F034FB800069460A5821462846904784
:1047D00038BD0000BC590008F8B500F00FFC284DAA
:1047E0000446A878A04221D0AC70214625A0FFF74E
:1047F000E1F9A8780026FF280CD02878002836D1C7
:104800006C70012028706A46107054702146AE808A
:1048100020A027E02E70684606706978417022A0BB
:10482000FFF7C8F9FF206870AE801DE028780128E6
:104830001DD1A888401C80B2A8805F280CD0B42865
:1048400016D00146FF39193911D105206A4610707A
:104850006978517019A005E003206A4610706978E4
:1048600051701CA0FFF7A6F96846FFF7ADFEF8BD32
:1048700004206A461070697851701CA0F2E70000AD
:10488000580600207363616E206B65793A25780DB8
:104890000A00000070726F63206B657920646F7787
:1048A0006E3A25640D0A000070726F63206B6579A3
:1048B0002075703A25640D0A0000000070726F6365
:1048C000206B6579206B6565702033733A25640D24
:1048D0000A00000070726F63206B6579206B65655C
:1048E000702031733A25640D0A00000070726F6306
:1048F000206B6579206B6565702032733A25640DF5
:104900000A00000010B5012801D100F007F810BD21
:1049100010B5012801D1FFF75FFF10BD1FB5264874
:10492000FEF7F2FD042845DB012269462248FCF728
:1049300029FF68460178AA2901D020A009E0014694
:1049400001221D48FCF71EFF68460178552903D057
:104950001EA0FFF72FF9E2E7014604221648FCF7F4
:1049600011FF1E48009901606846008840BA00287F
:104970001AD001281BD00228D1D1042202A90E4846
:10498000FCF700FF6846007A0028C8D16846407AE4
:104990000128C4D16846807A0228C0D16846C07A0E
:1049A0000328BCD1FEF788FB00F01AF8B7E700F047
:1049B00049F9B4E71FBD0000001100206E6F74209C
:1049C00068656164303A2578200A00006E6F7420B3
:1049D00068656164313A2578200A0000DC0E002009
:1049E000F0B5FFB08CB083A00068009082A0006892
:1049F000029082A00068019000240E2203A9804842
:104A0000FCF7C0FE6846008B03AE45BA0ECE7D486B
:104A10000EC010211038FEF789FD80B2854203D008
:104A20000123032201A9DCE00598002500BA070A4A
:104A30006846C07D3F0207432E46889700F0B4FACF
:104A4000C1B2153970480B00FFF7DBF8050B0406FF
:104A5000080A0B006D4804E06D4802E06D4800E074
:104A60006D48874201D96DA01FE028468899FFF75D
:104A70008EFD6348FEF748FD024603A96048FCF737
:104A800081FE8521890003A8FCF763FB0123032233
:104A900069466648FEF7FCFA44A802308990761C05
:104AA0006348B6B2864205D962A0FFF783F87FB0AB
:104AB0000CB0F0BD5248FEF727FD021E75DD889848
:104AC000A9180830814203D24120C00082426CDB29
:104AD00041200026C000824236DD024603A9484834
:104AE000FCF750FE6846008A03AA41BA5018C37901
:104AF00087791802384347BA901C091DFEF716FD46
:104B000080B2874237D1FF27013704A900243A46F3
:104B100002312846FFF746FD3A46E8198999FFF722
:104B200041FD6946887B4870C87BFF35887001234A
:104B30000322FF353D48023547E04872C87B887242
:104B40000123032202A93FE003A92D48FCF71AFE26
:104B50006846008A03AA47BAD019C1798379080246
:104B6000184341BA8A91391D901CFEF7DFFC8A99DF
:104B700080B2814209D0641C6946E4B2887B032C70
:104B8000DBD94871C87B88714AE7FF2200240132D3
:104B900097420BD904A902312846FFF703FDFA1FFB
:104BA000F93AE81DF930899904E01EE004A93A4673
:104BB00002312846FFF7F6FC6946887B4870ED19FC
:104BC000C87B0123887003221848FEF761FA889891
:104BD000854200D263E7FF20694648700123887050
:104BE00003221248FEF754FA61E70120FCF736FF72
:104BF00055E70000A2000000E0000000E100000016
:104C000000110020E00E002000F01F0000F03F0027
:104C100000F07F0000F0FF0000F0FF0166696C65A6
:104C20002073697A65206F7665720A00EC080020AF
:104C3000B80B00007570646174652074696D656FF0
:104C400075740A00F0B5C1B000263446042201A9EB
:104C50002A48FCF797FD019800BA070A6846C07910
:104C60003F020743394626A0FEF7A4FF394600203D
:104C7000FFF78DFC28A0FEF79DFF2D48761C86428D
:104C800001D92CA031E01D48FEF73EFC051E30DDA9
:104C9000601900260090B84201D2FF2D29DD294677
:104CA00028A0FEF787FFFF2D11DDFF2501352A46DD
:104CB00001A91248FCF766FD2A4601A92046FFF724
:104CC00071FC6419214621A0FEF774FF0AE02A4610
:104CD00001A90A48FCF756FD2A4601A92046FFF71C
:104CE00061FC009CBC42C8D31AA0FEF763FF41B030
:104CF000F0BD0120FCF7B2FEBFE70000001100206C
:104D000073746172742073696D706C657570646121
:104D100074653A2564200A00666F726D61742066BE
:104D20006C617368207375636573730A000000001B
:104D3000B80B00007570646174652074696D656FEF
:104D400075740A005B25645D000000002D25640A6F
:104D5000000000007570646174652073756365738D
:104D6000732121210A000000F0B510230524240737
:104D7000A362444D03232B73434B040C1E6834730E
:104D80001C68A668B607FCD5060A26731C68A668C8
:104D9000B607FCD520733D4C0026002A21D0012AFD
:104DA00018D0022A0FD0032A06D018688768BF07D8
:104DB000FCD5077B6770067318688768BF07FCD54A
:104DC000077B6770067318688768BF07FCD5077B89
:104DD0006770067318688768BF07FCD5077B677024
:104DE0000673012A04D0022A05D0032A09D105E05E
:104DF0001868007B60701868007B60701868007B22
:104E000060708818001F1BE0AF68BF07FCD52F7BC0
:104E10000F702E73491CAF68BF07FCD52F7B0F7036
:104E20002E73491CAF68BF07FCD52F7B0F702E7304
:104E3000491CAF68BF07FCD52F7B0F702E73491C30
:104E4000471A032FE0DC06E0AF68BF07FCD52F7BD5
:104E50000F702E73491C8142F6D3186883681B06B5
:104E6000FCD4102005231B079861042A00D30422D8
:104E7000002003E02B7B0B70401C491C9042F9DBA7
:104E80002670F0BD00300140B00600202006002052
:104E9000F0B594463F4A01241470102205231B07E5
:104EA0009A623D4B03221D682A731A689568AD0704
:104EB000FCD5050C15731A689568AD07FCD5050A75
:104EC00015731A689568AD07FCD510731868826869
:104ED0001206FCD4027B027B027B027B4268032524
:104EE0006D03AA4342601868426801252D032A43D6
:104EF00042602A48026815686D086D001560284DEB
:104F00006F68026C1C2632402646964037436F601D
:104F10000668624672601A6806680C32B2600268FF
:104F2000D16007683A680C26B2433A6007683A686D
:104F3000022632433A600068026822430260186821
:104F40004268224342601748026816687608760075
:104F500016606F68026C1C26324026469640374326
:104F60006F60056862466A601A6805680C32AA605C
:104F70000268D16000680168214301601868016817
:104F800040221143016018684168022211434160C8
:104F9000F0BD000020060020B00600207C090020A3
:104FA00000000240D809002030B5102205231B075D
:104FB0009A6211499F200C68207308688468A407CE
:104FC000FCD50024047308688568AD07FCD504731C
:104FD00008688568AD07FCD5047308688168090610
:104FE000FCD49A61017B037B027B017B18041202D3
:104FF0001043084330BD0000B006002010B5022168
:105000000448FCF7F5FD002801D0FF2010BD012069
:1050100010BD0000000C005010B5102205231B0726
:105020009A62094C05202168087320688168890705
:10503000FCD500210173206881680906FCD49A61BF
:10504000017B007B10BD0000B0060020F0B51023EE
:1050500005242407A362154D02262F683E732E688F
:10506000B768BF07FCD5070C37732E68B768BF0752
:10507000FCD5070A37732E68B768BF07FCD53073B5
:1050800006E08668B607FCD50E780673491C521EEA
:105090002868002AF5D181680906FCD4A36100E0E4
:1050A000017B8168C907FBD1F0BD0000B00600207C
:1050B00030B5102205231B079A62104CD8212568B1
:1050C000297321680D7B8D68AD07FCD5050C0D7328
:1050D00021688D68AD07FCD5050A0D7321688D68C0
:1050E000AD07FCD50873206881680906FCD49A6175
:1050F000017B017B017B007B30BD0000B0060020FE
:1051000010B5102205231B079A6205480621046882
:105110002173006881680906FCD49A61007B10BD88
:10512000B006002010B504493C2048630021034824
:10513000FDF748FC10BD000000040040C40700203B
:1051400010B505490348486300210448FDF7D4FB26
:1051500010BD00001F03000000040040C407002031
:105160001CB5FCF751FD08490A68821A0A2A0AD9B7
:1051700008604868401C4860044909680190009133
:10518000684609F0C1FA1CBD18060020285900081D
:105190007047000010B507A0FEF70CFDFCF734FDCA
:1051A000084C206008A0FEF705FD0020606001208B
:1051B00010BD000074696D65725F696E6974200AC4
:1051C000000000001806002074696D65725F696E4A
:1051D000697420323232320A000000007047704792
:1051E000704770477047000010B586B0FEF798F81A
:1051F000FDF70CFF2D48FFF729FA2D4CA0622DA0DA
:10520000FEF7D8FC2FA0FEF7D5FCFFF7D7F9E0603A
:10521000FFF7D4F92061FFF7D1F96061FFF7CEF90C
:10522000A061FFF7CBF9E061FFF7C8F92062FFF753
:10523000C5F9A060FFF7C2F96060244800688047A4
:10524000234803AB07C807C300200246214643009A
:10525000401CCA520128FADB0120820201911C493C
:10526000009202901B4B194A403903A808F0E4FD54
:10527000002811D00021084608F0B8FE00210120C6
:1052800008F0B4FE0121022008F0B0FE002008F072
:105290004FFE11A0FEF78EFC08F090FE1420FCF7E4
:1052A000DDFBFFF74DFF06B010BD0000A859000858
:1052B0002C0600206C6F61642075617274200D0AE9
:1052C000000000006C6564206F6E0A003059000811
:1052D0009C590008DC0A00206F70656E20706167C1
:1052E0006520300A0000000010B508F067FEFFF7E7
:1052F00065F9254C6062E168411A0A290CD9E06021
:10530000A06A002203691146012098471F48002225
:105310000369114601209847A168606A411A022971
:1053200000D9A0602169411A322906D92061A06AFA
:10533000002203691146042098476169606A411A96
:10534000642906D36061A06A002203691146032024
:105350009847A169606AFF22411AF532914200D351
:10536000A061E1697D22411AD200914203D3E0613C
:1053700007A0FEF71FFC216A606A074A411A9142A2
:1053800000D3206210BD00002C0600204859000800
:105390007469636B31730A0060EA000070477047FC
:1053A00070B5FE4800680168402211430160FFF7B4
:1053B000B9FE01240525E4032D07002221462846D5
:1053C000FCF71BFC1420FCF749FB01222146284670
:1053D000FCF713FC1420FCF741FBFF20FDF7B0FEA7
:1053E000A520FDF797FEE720FDF7AAFE1020FDF7A8
:1053F00091FE3520FDF7A4FE0020FDF78BFE362040
:10540000FDF79EFEC020FDF785FE3A20FDF798FED1
:105410000120FDF77FFE4020FDF792FE0120FDF701
:1054200079FE4120FDF78CFE0320FDF773FE44203A
:10543000FDF786FE1520FDF76DFE4520FDF780FE89
:105440001520FDF767FE7D20FDF77AFE0320FDF7AE
:1054500061FEC120FDF774FEBB20FDF75BFEC2209C
:10546000FDF76EFE0520FDF755FEC320FDF768FE33
:105470001020FDF74FFEC620FDF762FE3E20FDF72F
:1054800049FEC720FDF75CFE2520FDF743FEC8203E
:10549000FDF756FE2120FDF73DFE7A20FDF750FE78
:1054A0005120FDF737FE6F20FDF74AFE4920FDF73A
:1054B00031FE7820FDF744FE5720FDF72BFEC92072
:1054C000FDF73EFE0020FDF725FE6720FDF738FEC4
:1054D0001120FDF71FFE5120FDF732FE0A20FDF7D7
:1054E00019FE5220FDF72CFE7D20FDF713FE532000
:1054F000FDF726FE0A20FDF70DFE5420FDF720FEE5
:105500007D20FDF707FE4620FDF71AFE0A20FDF775
:1055100001FE4720FDF714FE2A20FDF7FBFD482081
:10552000FDF70EFE0A20FDF7F5FD4920FDF708FE08
:105530001A20FDF7EFFD4420FDF702FE1520FDF7D0
:10554000E9FD4520FDF7FCFD1520FDF7E3FD732087
:10555000FDF7F6FD0820FDF7DDFD7420FDF7F0FDF9
:105560001020FDF7D7FD5620FDF7EAFD4320FDF79B
:10557000D1FD5720FDF7E4FD4220FDF7CBFD58207B
:10558000FDF7DEFD3C20FDF7C5FD5920FDF7D8FDF8
:105590006420FDF7BFFD5A20FDF7D2FD4120FDF745
:1055A000B9FD5B20FDF7CCFD3C20FDF7B3FD5C2091
:1055B000FDF7C6FD0220FDF7ADFD5D20FDF7C0FD46
:1055C0003C20FDF7A7FD5E20FDF7BAFD1F20FDF78B
:1055D000A1FD6020FDF7B4FD8020FDF79BFD61205B
:1055E000FDF7AEFD3F20FDF795FD6220FDF7A8FD1C
:1055F0002120FDF78FFD6320FDF7A2FD0720FDF7B9
:1056000089FD6420FDF79CFDE020FDF783FD65200A
:10561000FDF796FD0220FDF77DFDCA20FDF790FD08
:105620002020FDF777FDCB20FDF78AFD5220FDF706
:1056300071FDCC20FDF784FD1020FDF76BFDCD2022
:10564000FDF77EFD4220FDF765FDD020FDF778FDDA
:105650002020FDF75FFDD120FDF772FD5220FDF700
:1056600059FDD220FDF76CFD1020FDF753FDD3202E
:10567000FDF766FD4220FDF74DFDD420FDF760FDEE
:105680000A20FDF747FDD520FDF75AFD3220FDF732
:1056900041FD8020FDF754FD0020FDF73BFDA020DB
:1056A000FDF74EFD0020FDF735FD8120FDF748FD9B
:1056B0000620FDF72FFDA120FDF742FD0820FDF794
:1056C00029FD8220FDF73CFD0320FDF723FDA220EC
:1056D000FDF736FD0320FDF71DFD8620FDF730FDAB
:1056E0001420FDF717FDA620FDF72AFD1420FDF775
:1056F00011FD8720FDF724FD2C20FDF70BFDA720D1
:10570000FDF71EFD2620FDF705FD8320FDF718FDA2
:105710003720FDF7FFFCA320FDF712FD3720FDF732
:10572000F9FC8420FDF70CFD3520FDF7F3FCA420E7
:10573000FDF706FD3520FDF7EDFC8520FDF700FDAA
:105740003F20FDF7E7FCA520FDF7FAFC3F20FDF721
:10575000E1FC8820FDF7F4FC0A20FDF7DBFCA82023
:10576000FDF7EEFC0A20FDF7D5FC8920FDF7E8FCEB
:105770001320FDF7CFFCA920FDF7E2FC1220FDF776
:10578000C9FC8A20FDF7DCFC1820FDF7C3FCAA2029
:10579000FDF7D6FC1920FDF7BDFC01E01407002041
:1057A0008B20FDF7CDFC0A20FDF7B4FCAB20FDF704
:1057B000C7FC0A20FDF7AEFC8C20FDF7C1FC1720CA
:1057C000FDF7A8FCAC20FDF7BBFC0B20FDF7A2FC0D
:1057D0008D20FDF7B5FC1A20FDF79CFCAD20FDF7F0
:1057E000AFFC0920FDF796FC8E20FDF7A9FC1A20DE
:1057F000FDF790FCAE20FDF7A3FC0820FDF78AFC26
:105800008F20FDF79DFC1F20FDF784FCAF20FDF7E6
:1058100097FC0020FDF77EFC9020FDF791FC08200E
:10582000FDF778FCB020FDF78BFC0020FDF772FC43
:105830009120FDF785FC1020FDF76CFCB120FDF7F1
:105840007FFC0620FDF766FC9220FDF779FC19200D
:10585000FDF760FCB220FDF773FC1520FDF75AFC44
:10586000FF20FDF76DFC0020FDF754FC1120FDF733
:1058700067FC7820FCF7F2F82920FDF761FC142082
:10588000FCF7ECF8054C2078002802D00020FDF74A
:1058900035FC2078401C2070012070BD14060020CB
:1058A000010002000400060008000A000C001000BD
:1058B00020004000800000010101010307010000F9
:1058C00008040204080101010000000000000000BB
:1058D00000000000000000000000000000000000C8
:1058E00000000000000000000100000002000000B5
:1058F0000300000004000000060000000700000094
:105900000800000009000000000000000000000086
:105910000000000000000000010000000200000084
:105920000300000004000000040A00000000000062
:10593000514500088D450008694D0008914E00084A
:10594000AD450008994500081D460008000000000C
:10595000000000000000000011490008A1530008E9
:1059600095510008314500089D53000891510008E9
:105970002F4500084D450008615100089F5300085D
:10598000AD4700085D4700082D4700088147000823
:105990000547000859470008B53B0008F000F00033
:1059A0001000000000000000214600082D450008FE
:1059B000000000000000000005490008E551000853
:1059C000E1510008DF510008E3510008DD510008F3
:1059D000F05900080006002064000000603C000848
:1059E000545A000864060020B40E0000703C000801
:1059F0000100000004000000000000000024F4008A
:105A00000000000000000000000000000000000096
:105A10000000000001FF0000000000000000000086
:105A20000000000000000000000000000000000076
:105A30000000000000000000000000000000000066
:105A4000000000000000000000FF00000000000057
:045A50000000000052
:04000005080010C11E
:00000001FF
