:020000040800F2
:10C0000019141276123612FD87216EB96FAA12E743
:10C01000E9AD9CB09C6AD9682C5CD2F8A04678DC6B
:10C0200047C8788C47E99DFA5E46A3A6DC1F9DF8B9
:10C030003ED1C3C96300620312F15C461846502F1B
:10C04000124D8721A6C9633639036FC6B332127603
:10C05000D28C12F1B3E61276491106BA312F124D85
:10C0600087214909FABA312F124D872149E285BA51
:10C07000312F124D8721DC7BB3BAF02F124D87216F
:10C080008C1976556EB91212351212F130B50B4675
:10C09000014600202022012409E00D46D5409D42A2
:10C0A00005D31D469540491B254695404019154628
:10C0B000521E002DF1DC30BD70B50024254600284D
:10C0C00001DA01244042002901DA01254942FFF743
:10C0D000DDFFAC4200D04042002C00D0494270BD90
:10C0E00003460B439B0703D009E008C9121F08C091
:10C0F000042AFAD203E00B780370401C491C521E3C
:10C10000F9D27047D2B201E00270401C491EFBD246
:10C1100070470022F6E710B513460A460446194652
:10C12000FFF7F0FF204610BD10B5044605E00B7880
:10C130000370401C002B00D0491C521EF7D2204631
:10C1400010BD421C0178401C0029FBD1801A7047A9
:10C1500003460A780270401C491C002AF9D118468F
:10C1600070470321001D401E037812021A43491E26
:10C17000F9D510467047000070B5121A94B25A1AD9
:10C1800096B233462246049D00F018F82C2000F0A9
:10C190005BF800F07DF87443280A00212B02064A60
:10C1A000184304E093689B07FCD5D060491CA1426A
:10C1B000F8D300F05FF870BD00380040F8B5164CB9
:10C1C0006588401985B2A088081884B2A818401E56
:10C1D00087B2E018401E86B22A2000F035F8280AFF
:10C1E00000F01CF8E8B200F019F8380A00F016F870
:10C1F000F8B200F013F82B2000F026F8200A00F027
:10C200000DF8E0B200F00AF8300A00F007F8F0B2DA
:10C2100000F004F8F8BD00007000002010B5012304
:10C22000074A1B0393625900916106498C68A40771
:10C23000FCD5087388680006FCD4936110BD00002B
:10C24000000400500038004010B50123074A1B03CA
:10C2500093625900916206498C68A407FCD5087363
:10C2600088680006FCD4936110BD000000040050F3
:10C2700000380040044881680906FCD401200349C5
:10C28000000388617047000000380040000400503F
:10C290000121034849038161491081627047000010
:10C2A00000040050F0B5064608880C46C005800E14
:10C2B0007721081A850693B0802069460870AD0E74
:10C2C0006F464721781C6D1CFFF723FF20787855B7
:10C2D00020882A46010A7819417021680832090C21
:10C2E00081702168090EC17021790171A188090A44
:10C2F00041716168090C81716168090EC1716946FB
:10C30000204600F027F80020820011190B7AB35460
:10C310000B8992191B0A53708B68401C1B0C93707D
:10C320008968090ED1700428EEDB13B0F0BD00005F
:10C3300000210160416005494161054901610349EE
:10C34000C943C1600249C9438160704776543210C5
:10C35000FEDCBA98FEB5044600910068D100411891
:10C3600017462160814202D26168491C6160C005A4
:10C37000860E20461830019016E04020851BBD42F5
:10C3800000D33D46A0192A4618300099FFF7A8FEB1
:10C390000098761940197F1B0090402E04D120464A
:10C3A000019900F07DFF0026002FE6D1FEBD0000C0
:10C3B000044A054B916852685940511802684A4036
:10C3C000026070479075FF1FFB6080B510B5144682
:10C3D000012389B280B21A46FFF7F0FE2C20FFF746
:10C3E00033FFFFF755FF054881688907FCD5210A0F
:10C3F00022021143C160FFF73DFF10BD003800402D
:10C40000FFB50B4883B000680F4602901D461646E4
:10C41000042102A8FFF7CCFF0020029C00900190AD
:10C420002B46324639460398A04707B0F0BD0000BE
:10C4300000000020FFB50B4883B00C9D00680290FF
:10C440001E461746042102A8FFF7B2FF0120029CF6
:10C45000009033463A46019504990398A04707B0E7
:10C46000F0BD0000000000207CB50D46040029D07E
:10C47000E188A08801910090022313480022C66B36
:10C48000E35EA25E294611A0B047E388A2886188D6
:10C490002088FFF793FE2C20FFF7D6FEFFF7F8FE6B
:10C4A000A388E08800224343280A2C021049204335
:10C4B00004E08C68A407FCD5C860521C9A42F8D3EB
:10C4C000FFF7D8FE7CBD0000800000205F53444C85
:10C4D0005F66696C6C5F72656374203A2578205BD7
:10C4E00025642C25642C25642C25645D0A0000003D
:10C4F0000038004070B503465C880020E5041C8BC2
:10C5000009D59D89DB7D9D4214D9A81AE91A5A08DC
:10C51000801A604308E05D899A7D95420AD95008E7
:10C52000081AAB1A60431946FFF7C6FD002801DA66
:10C53000002002E0844200DA204680B270BD000094
:10C5400070B590B00D460446467840220F496846C3
:10C55000FFF7C6FD00226846D100415CB1420FD111
:10C56000D10008184268002A04D029462046904786
:10C57000002803D02946204602F0F9FE10B070BD15
:10C58000521CD2B2082AE7D3F4E7000040F40008B6
:10C59000FFB585B00F981C4603930292002800D087
:10C5A0006408002627E0002580271CE00298E9089F
:10C5B000405C384212D00698801902B20598019268
:10C5C000401901B20091119802F036FD002805D003
:10C5D0000B4A0199136800980E9A98477F0800D17A
:10C5E00080276D1CEDB2A542E0D3761C109902980D
:10C5F000F6B24018029003988642D4D309B0F0BD39
:10C60000D0F50008F8B50A4D0E460746EB6B11460B
:10C6100008A09847002404E0EA6B395D07A0904722
:10C62000641CB442F8DBE96B06A08847F8BD000043
:10C630008000002025733A20000000002530327869
:10C64000000000000A000000F0B59BB0154602464D
:10C65000209802901E46002490B2219B17940E90C1
:10C660000D9388B20390042317AA2146012002F0FB
:10C670007BFD00287ED0179886427BD21820314659
:10C680004143034604AA0120091D02F06DFD002864
:10C6900070D00A9468460B94018A8185418AC185CD
:10C6A000002D04D00AAA1146284602F076FC6846FE
:10C6B000828D018A00268A4203D1C28D408A82423D
:10C6C00000D00126FD4884604470047068460F91D4
:10C6D000408A109004A802F0B1FB04A802F0F6FB17
:10C6E00008A80079102802D008282DD0D0E10EAC7F
:10C6F0000DCC0399FFF762FD2C20FFF7A5FDFFF796
:10C70000C7FD0020EE4DEF4FEC4C0646B968890797
:10C71000FCD54100695A0A0A09020A43FA60A16875
:10C72000401CB61C8E42F1D360780028DED102F0A6
:10C7300047FDE568A1682888AD1C4018A06004A8E2
:10C7400002F0C4FB0020E1E7002E09D10EAC0DCCB5
:10C750000399FFF733FD2C20FFF776FDFFF798FDD7
:10C76000D7480024159002982546274600287DD0FA
:10C77000002000E090E11A90002E78D06946CB8D21
:10C780008A8D03990E98FFF719FD2C20FFF75CFDA9
:10C79000FFF77EFD69462A20085E0A8A0346504359
:10C7A0001690C88D18185043189015986100405A7B
:10C7B000641CC6B2000A4100C348405A0C90684647
:10C7C000018A2846FFF762FC02910D990C98884275
:10C7D00003D1AD1901201A9057E01A98002802D110
:10C7E000029800281BD102990E98401880B213902D
:10C7F00028460F99FFF74AFC0399401880B212901F
:10C80000FFF738FD109B0F9A12991398FFF7D6FC8B
:10C810002C20FFF719FDFFF73BFD00201A9016981A
:10C82000AD19854231D969462820085E02998842AF
:10C830000AD98919814228D9081AC6B26846808D5A
:10C84000B04210D2C6B20EE06946898D029A4018F5
:10C8500090421AD99219904205D2029A801AC6B211
:10C86000B14200D2CEB297490C9801E082E025E0B7
:10C870000C9A000A12021043002E06D08A68920712
:10C88000FCD5C860761EF6B2F6E71898854270D2DD
:10C890008A4EBF1CB068874287D37078002868D161
:10C8A00002F08EFCF068811C15910088B168401878
:10C8B000B06004A802F00AFB002476E71598610036
:10C8C000405A641CC6B2000A41007F48405A0D9984
:10C8D0000C90814203D1AD1901201A9033E01A98CF
:10C8E000002805D128460F99FFF7D0FB00291AD15F
:10C8F00028460F99FFF7CAFB0E9A891889B213913F
:10C900000399401880B21290FFF7B4FC01230F9AEC
:10C9100012991398FFF752FC2C20FFF795FCFFF7B4
:10C92000B7FC00201A900C980C9AAD19000A12025C
:10C930006449104305E08A689207FCD5C860761EFA
:10C94000F6B2002EF7D15D4EBF1CB0688742B5D35A
:10C95000707800280DD102F033FCF068811C15912D
:10C960000088B1684018B06004A802F0AFFA002453
:10C97000A4E78DE0002E6DD06846C38D828D0399AB
:10C980000E98FFF71BFC2C20FFF75EFCFFF780FCE6
:10C9900068462A21415E028A0B4651430D91C08DA3
:10C9A000181850430E9015986100405A641CC6B286
:10C9B000000A41004448405A0C906846018A2846C3
:10C9C000FFF764FB0D98AD19854229D96A462820E6
:10C9D000105E884209D98919814221D9081AC6B244
:10C9E000908DB0420DD2C6B20BE0938DC018884234
:10C9F00016D98A19904204D2401AC6B2B34200D264
:10CA0000DEB20C980C9A000A2E4912021043002E36
:10CA100006D08A689207FCD5C860761EF6B2F6E7A3
:10CA20000E98854234D2254EBF1CB0688742BAD3D7
:10CA3000707800282CD102F0C3FBF0680146801CFE
:10CA400015900888B1684018B06004A802F03EFA5A
:10CA50000024A8E71C4D15986100415A194AC8B234
:10CA6000090A49006B5A190A1B021943641C05E0A4
:10CA700093689B07FCD5D160401EC0B20028F7D157
:10CA80000E4EBF1CB0688742E5D37078002805D0F1
:10CA900002F096FBFFF7EEFB1BB0F0BD02F090FB3F
:10CAA000F0680146801C15900888B1684018B06095
:10CAB00004A802F00BFA0024CDE70000700000206B
:10CAC0005A03002000380040580100203EB50C46B3
:10CAD0000021C9430091810004236A46022002F02C
:10CAE00043FB00281CD0082301AA0220009902F071
:10CAF0003BFB002814D0083CE00F0019C005000ED5
:10CB00004207C108520F01A801F05CF80006009925
:10CB1000800D411804236A460220091D02F024FBFF
:10CB200000983EBD10B5012304E00A2C01D15B1C26
:10CB30009BB2401C0478002CF7D118465B1E48437A
:10CB40005343C01880B210BD30B500234D080AE031
:10CB5000240603D55B189BB2801C02E0EB189BB245
:10CB6000401C9B189BB20478002C01D00A2CEFD1FA
:10CB7000002B01D0981A00E0002080B230BD0000E8
:10CB8000F0B5074697B00020042310AA0146109084
:10CB900002F0EAFA002879D01098874276D2B900DC
:10CBA000042312AA0020091D02F0DEFA00286BD02F
:10CBB000042310AA0020129902F0D6FA002863D0AC
:10CBC000504D3946EB6B50A0109A98471298001DB3
:10CBD000002412904AE0A0001299149041180423F6
:10CBE00013AA002002F0C0FA002842D01398EA6B82
:10CBF000060E31464AA09047002C48D040224B49AF
:10CC00006846FFF76DFA00206946C2008A5CB242AE
:10CC10006DD1C000401840780090002824D000F06A
:10CC2000E5FF434E1499726889180861002863D0A3
:10CC3000139902460902090A0020009B02F094FAA7
:10CC4000002816D0002003900490149871684018B2
:10CC5000006903A9FFF774FC1498716835A24018A5
:10CC600000690099FFF7CEFC641CE4B2109884427E
:10CC7000B1D32F484168002942D00770A96A002922
:10CC800001D038468847012017B0F0BD38E01420A5
:10CC9000059010988000001F80B21430029000F0C0
:10CCA000A5FF234E002870601ED00299FFF731FACD
:10CCB0001398059B0102090A0020726802F054FAD9
:10CCC0000028D6D01DA218217068FFF79BFC706861
:10CCD0000B2141701099491EC174002103910491E8
:10CCE00003A9FFF72DFCBFE717A0E96B06E0401C86
:10CCF000C0B2082889D3B7E7E96B1AA08847B8E71C
:10CD00000020C1E780000020706167652025642055
:10CD10007769646765742073697A652025640A0001
:10CD2000747970652025640A0000000080F4000812
:10CD30003C0000206368696C64000000726F6F74CF
:10CD40002077696E646F7700437265617465207245
:10CD50006F6F742077696E646F77206661696C21EC
:10CD600021210A00437265617465206368696C64FF
:10CD700072656E20776964676574206661696C21ED
:10CD800021210A001FB533E00298C0B2032806D063
:10CD9000042808D005280AD0062829D125E002A8B1
:10CDA00000F078F824E002A800F050F820E000F04D
:10CDB000F3F802980004000EFFF7E2FE002817D0F7
:10CDC0000398002814D00D480822416868460C4694
:10CDD000891DFFF785F969460398088003980014B8
:10CDE0004880204602F0E9FA02E002A800F008F8C4
:10CDF00002A801F071FC0028C6D11FBD3C00002034
:10CE0000F8B5114E07467568002D1BD00024143567
:10CE100014E0A300E85800280ED080883A688446C1
:10CE2000120A904208D378681018604504D3581845
:10CE300040693946FFF784FB641CE4B27168C87C22
:10CE4000A042E6D8F8BD00003C00002070B50546C1
:10CE500000240E4E0CE0A10008184069002805D0FF
:10CE60008178C90602D52946FFF76AFB641CE4B243
:10CE70007068002802D0C17CA142ECD80448426A04
:10CE8000002A02D003CD000A904770BD3C0000206C
:10CE90008000002070B5194C0646606800280ED04E
:10CEA0003168090A0CD0A068002808D03146FFF785
:10CEB00047FB3068000A012801D10020A06070BD46
:10CEC000C57C6D1E17E06168A80040184069002805
:10CED0000FD071680A1409B202F03CFA002808D099
:10CEE0006168A800401840693146A060FFF728FB40
:10CEF00070BD6D1E2DB2002DE5DA70BD3C00002026
:10CF0000FEB51E4C6068002836D0827800211C4E89
:10CF1000D2070CD0F268B168009101926946FFF720
:10CF20000FFB6068418849084900418001210025C4
:10CF300019E0AF0038184269002A12D09278D2075F
:10CF40000FD0726931690091019240696946FFF71B
:10CF5000F7FA6068381840694188490849004180FB
:10CF600001216D1CEDB26068C27CAA42E1D80029A3
:10CF700002D00448006A8047FEBD00003C0000204B
:10CF800010F400088000002010B5024B9B68984701
:10CF9000012010BDCC0000207CB5144C6068002836
:10CFA00023D01349002503C9019100900EE0AE0083
:10CFB00030184069002807D06946FFF7C1FA606859
:10CFC0003018406900F070FE6D1CEDB26068C17CE5
:10CFD000A942ECD86946FFF7B3FA606800F064FE36
:10CFE00000206060A060FF2020707CBD3C0000201D
:10CFF00010F4000838B5044683881E4859000068BC
:10D00000405A0102000A0143208A09B2401802B2C4
:10D01000684602801220205E904205DD6288D204BC
:10D020000AD51420205E07E01425655F954205DAD5
:10D030006288D20400D428466A4610806A460020DE
:10D04000105E814214D001020004000E014310461C
:10D05000118001460222184600F08AFF0648836BC1
:10D06000002B05D068460088A28881B220469847E8
:10D0700038BD00005C0000208000002070B5044630
:10D0800008680D46C1B20026002905D0042927D022
:10D09000062914D0701E70BD208AA18A4018E08134
:10D0A000E08A0A2803D90A21FEF7F0FF00E00120F8
:10D0B000E08220466683294602F059F970BDA188B6
:10D0C000000A814240D36A68801888423CD31F48D6
:10D0D00049000068405A0102000A0143208A2DE0FD
:10D0E0006188C90430D5000A0A282DD1208B002878
:10D0F00002D0618B814227D0E18A6868FEF7C6FFC3
:10D10000002921D1A08A401C80B2A082628A218A93
:10D11000511A814210DA0E48A682416B002901D0D3
:10D1200020468847208B002806D0608B401C80B2A8
:10D130006083218B884207D0218AA08A0818E08169
:10D140000021204602F002F9002070BD5C000020A2
:10D150008000002010B5002181824183018AC181B5
:10D16000002102F0F3F810BD41880122120311439F
:10D1700041807047418801221203914341807047EA
:10D18000084900284A680AD0031D006889684008D9
:10D190005118C018091F884200D30020704710465C
:10D1A000704700005000002010B5C91C02688908B3
:10D1B000890052088A4203D30B1D9A4200D81146B7
:10D1C0008A420ED0021D521813685B085B00136080
:10D1D0000468DB076408641ADB0F6400083C23431F
:10D1E00013600278D207D20F49000A43026010BDD3
:10D1F00070B504460868C1B2022934D0032902D0B0
:10D200000020C04370BD1E49030A0825CA6A002BCE
:10D2100003D0000A01281DD030E0002A02D00021EE
:10D2200020469047608881040AD5010701D5A843AC
:10D2300000E0284360800021204602F087F81DE0CE
:10D24000C104F6D516221421A25E615EE07C00F0D6
:10D250007FFE13E0002A02D001212046904760881B
:10D260008104E4D50AE0A078000702D521461031F8
:10D2700001E021460E31204602F03EF8002070BD4C
:10D280008000002010B508234288002901D01A43ED
:10D2900000E09A434280002102F058F810BD0000DF
:10D2A000FFB584680394C6680769029743693246EC
:10D2B0001D463A40B5432A43FE4D019352190D686D
:10D2C000B446641912191924E24195192C463A46BC
:10D2D0003440AA431443F84A8560A2184C681B19CD
:10D2E000D2181423DA4153191C4632462C409A4373
:10D2F0001443F24A4361A2188C683C1912190F2496
:10D30000E241D7183A462C461A40BC432243EC4C23
:10D3100007611219CC68341912190A24E241D6198E
:10D3200034461A463C40B2431443E64AC660A2184B
:10D330000C692C1912191924E24195192A463C4608
:10D340003240AC432243E04C856012194C691B19F2
:10D35000D2181423DA4153191A4634462A409C4302
:10D360002243DA4C436112198C693C1912190F24BB
:10D37000E241D21814462F461C4097433C43D44FF9
:10D380000261E419CF69F619A4190A26F441A41818
:10D3900026461F461640A7433E43CE4FC460F619AB
:10D3A0000F6AED1975191926F5412F193D461646D4
:10D3B0002540BE433543C84E8760AD194E6A9B1960
:10D3C000EB181425EB41DE1935463D402346B343A7
:10D3D0001D43C24B4661EB188D6A52199A180F23F0
:10D3E000DA4193191A463D4632409D432A43BC4DCB
:10D3F00003615219CD6A9E46641914190A22D44158
:10D40000E418224635461A40A5432A43B54DC46068
:10D4100052190D6B7D1955191922D5412A19174634
:10D42000274093431F438260AF4B4D6BFB18751928
:10D430005B191425EB419D182F4623461740AB433B
:10D440001F43AA4B4561FE188F6B7346DB19F31817
:10D450000F26F3415B191E4617462E409F433E435D
:10D46000A34F0361F619CF6BE41934190A26F4416E
:10D47000E41826461F462E40AF433E439D4FC460EE
:10D48000F6194F68D219B2181B26F24117193A46FD
:10D4900026461A409E433243974E876092198E6902
:10D4A000AD1952191725EA41D61932463D46224098
:10D4B000A5432A43914D46615219CD6A5B19D21892
:10D4C0001223DA419219134635463B40BD432B43A4
:10D4D0008B4D02615B190D6864191B190C24E34123
:10D4E0009D182B4614463340B4432343854CC560F6
:10D4F0001B194C693C191B191B24E3415B191C4681
:10D500002F46144097433C437F4F8360E4198F6A52
:10D51000F619A4191726F441E41826461F462E4092
:10D52000AF433E43794F4461F619CF6BD219B2181D
:10D530001226F2411219174626461F409E433743D2
:10D54000734E0261BE190F69ED1975190C26F5416C
:10D55000AD182E4617462640A7433E436D4FC56083
:10D56000F6194F6ADB19F3181B26F3415B191E46A7
:10D570002F46164097433E43674F8360F6198F6BE3
:10D58000E41934191726F441E618466137461C465B
:10D590002F40AC432743614C00963C19CF68D21909
:10D5A000A2181224E2419219174634461F409C43A8
:10D5B00027435B4C02613C190F6AED1964190C2575
:10D5C000EC41A5182C4617463440B743554E3C4312
:10D5D000A419C5604E6B9B19E3181B24E3415C1929
:10D5E00023462E461340964333434F4E84609E1984
:10D5F000009B8F68DB19F3181726F3411B191E4691
:10D6000027462E40AF433E43484F4361F619CF694A
:10D61000D219B2181226F241D21817461E462740D8
:10D62000A6433743424E0261BE190F6BED197519BF
:10D630000C26F541AD18C5604E693E4FA6192C4623
:10D6400054405C40E41934191C26F4416419846088
:10D650000E6A394F9B1926466E405640F6199B19A3
:10D660001526F3411B194361CE6A1F469219674084
:10D67000324E6F40BE1992191026F241D218026143
:10D680008E6B2F4FAE1915465D406540ED1975192B
:10D690000926F541AD18C5604E682A4FA4192E46DB
:10D6A00056405E40F619A4191C26F44164198460A2
:10D6B0000E6949E078A46AD756B7C7E8DB70202422
:10D6C000EECEBDC1AF0F7CF52AC68747134630A802
:10D6D000019546FDD8988069AFF7448BB15BFFFF99
:10D6E000BED75C892211906B937198FD8E4379A609
:10D6F0002108B44962251EF640B340C0515A5E2647
:10D70000AAC7B6E95D102FD65314440281E6A1D80A
:10D71000C8FBD3E7E6CDE121D60737C3870DD5F4A3
:10D72000ED145A4505E9E3A9F8A3EFFCD9026F67A8
:10D730008A4C2A8D4239FAFF81F6718722619D6DEC
:10D740000C38E5FD44EABEA49B1927466F40AE4E57
:10D750005740BE199B191526F3411B194361CE6929
:10D76000AA4F96191A4662406A40D219B21810267A
:10D77000F241D21802618E6AA54FAE1915465D407E
:10D780006540ED1975190926F541AE18C6604D6B57
:10D790006719344654409F4D5C4064193C191C2560
:10D7A000EC41A51985600C681F192B4673409A4CF3
:10D7B00053401B19FB181524E3415B194361CC68E6
:10D7C0001F4612196F40954C77403C1912191024CE
:10D7D000E241D41804618A699E46B61822465A402E
:10D7E0008F4F6A40D219B6180922D6413619C66041
:10D7F0004A6A3746AD1867405F408A4A1C23BA1808
:10D80000AA18DA41951985600A6B73469F182B4652
:10D810007340854A63409A18BA181523DA415219A1
:10D820004261CB6B814FE41813466B407340DB19A8
:10D83000E3181024E3419C1804618B682746F6180E
:10D8400057407B4B6F40FB18F3180926F3411B1917
:10D85000C3600E68D743AD191E463E43754F664000
:10D86000F619AD191A26F541ED188560CE6996199D
:10D87000E7432A463A43704F5A40D219B218162647
:10D88000F241521942618E6B1746A419DE433743A9
:10D890006A4E6F40BE19A4191126F441A6180661FC
:10D8A0004C69EF431B1934463C43654F5440E4191F
:10D8B0001B190B24E3419C19C4600B6BD743ED1873
:10D8C00023463B435F4F7340DB19EB181A25EB41AE
:10D8D0001D198560CB682F46D218F3431F435A4B5E
:10D8E0006740FB18D2181623DA41531943618A6A3C
:10D8F000E743B6181A463A43544F6A40D219B21851
:10D900001126F241D61806614A68EF43A418324640
:10D910003A434F4F5A40D219A2180B24E2419419AE
:10D92000C4600A6ADF43AD1822463A43494F724049
:10D93000D219AA181A25EA4115198560CA6B2F4613
:10D940009B18F2431743444A6740BA189A181623A3
:10D95000DA41521942618B69E743F61813463B439B
:10D960003E4F6B40DB19F3181126F3419B180361FE
:10D970004E6BEF43A4191E463E43394F5640F619ED
:10D98000A4190B26F441E418C4600E692746AD19AA
:10D99000D6433743334E5F40BE19AD191A26F541C1
:10D9A0002D198560CE6ADF4396192A463A432E4FD9
:10D9B0006240D219B2181626F241521942618E689D
:10D9C000E7439B1916463E43284F6E40F6199B19B4
:10D9D0001126F3419B180361496A254E6118EC43F7
:10D9E0001C435440A41909190B24E141039CC91894
:10D9F0002C1961448460C160029959180161019930
:10DA000051184161FFBD0000A9CFDE4B604BBBF652
:10DA100070BCBFBEC67E9B28FA27A1EA8530EFD432
:10DA2000051D880439D0D4D9E599DBE6F87CA21F1E
:10DA30006556ACC4442229F497FF2A43A72394AB2C
:10DA400039A093FCC3595B6592CC0C8F7DF4EFFF3A
:10DA5000D15D84854F7EA86FE0E62CFE144301A3C0
:10DA6000A111084E827E53F735F23ABDBBD2D72AB8
:10DA700091D386EBF8B50E460546144620212F4873
:10DA8000FEF747FB224631462C48FEF729FB2B4880
:10DA9000082200192AA1FEF747FB6E68012E09D162
:10DAA000264930310846FEF7B1FA2449303108469C
:10DAB000FEF7D2FA25492046B1430830002905D1A6
:10DAC000B102890C142901D90A3400E00446204F20
:10DAD0002146FA6B1FA09047234E2248706001F048
:10DAE00091FB164810213030FEF713FB134A2146F4
:10DAF0003032124800F050F8372030600F4872681A
:10DB0000303029460D3290470C4A10213032501ADD
:10DB100000F042F80948726830302946593290477F
:10DB200000F02CF8286C3168884201D101F050FBDC
:10DB3000F96B0EA08847286CF8BD0000E4000020B7
:10DB40007A6B6B65726E656C00000000550000AA70
:10DB500080000020636865636B666C617368203ABF
:10DB600025640A0058010020640000206175746873
:10DB7000207375636573730A0000000010B50548D3
:10DB800023224168002003468400401C0B51904230
:10DB9000FAD310BD6400002070B5054696B0164655
:10DBA0000C461046FEF7B5FA6846FEF7C1FB224662
:10DBB00029466846FEF7CEFB69463046FEF772FB03
:10DBC00016B070BD30B50446635CFF25521C0020C2
:10DBD0009540AB4302E05A1E1340401C002BFAD183
:10DBE000002902D0491E635CF8E730BDF8B5002873
:10DBF00022D0C01C85080027AD003C4601262046E7
:10DC0000FFF7BEFA040012D020682946C2070AD1E5
:10DC10004008884207D32046FFF7C6FA2068304301
:10DC2000271D206000E00027002FE8D003E0034814
:10DC3000C16B03A088473846F8BD00008000002073
:10DC4000436F756C646E277420616C6C6F636174D4
:10DC500065206D656D6F72790A00000010B50020B7
:10DC600003E02078C00703D02046FFF789FA08E0D8
:10DC7000002C08D0204611E00268D10704D000280B
:10DC800001D00400EDD110BD216852084B089A184C
:10DC90005200C907C90F08320A432260FFF770FA21
:10DCA0000028E9D110BD000010B500281ED0041FC7
:10DCB00020684008400020600F480178491CC9B224
:10DCC0000170102913D220460CE00168CA070DD15B
:10DCD00022684908530859184900D207D20F083161
:10DCE00011432160FFF74CFA0028EED110BD00214E
:10DCF0000170FFF7B3FF10BD50000020F8B51D4DB7
:10DD00000C460A4607460146EB6B1BA09847214E7E
:10DD1000384677602146B460FEF7FBF9EB6B16A03E
:10DD2000B268716898477468EB6B042221461AA0A8
:10DD300098472068400840002060E96B1CA0884795
:10DD40002078B168C007C00F490008390843206037
:10DD5000E96B1BA088472068EB6B4208C107C90F1D
:10DD60001CA09847EB6B394603A0B2689847012086
:10DD7000F8BD00008000002066795F6D656D5F6909
:10DD80006E69743A2578202073697A653A25640AA9
:10DD90000000000050000020626C6F636B3A257831
:10DDA00020424C4F434B5F53495A453A25640A0081
:10DDB00073657420626C6F636B20757365640A0011
:10DDC00073657420626C6F636B202073697A650AD7
:10DDD00000000000626C6F636B2D3E757365643AE2
:10DDE00025782020626C6F636B2D3E73697A653AEB
:10DDF00025640A000C4A002152680DE08B009B1834
:10DE00005B69002B06D01B78834203D18800801801
:10DE100040697047491CC9B2002A02D0D37C8B42AA
:10DE2000ECD80020704700003C000020014800783A
:10DE3000704700003C000020FFB5154619C881B0AE
:10DE4000224A0C9F19C2214840224038FEF748F967
:10DE50001E48182229460C30FEF742F91C4C0025BA
:10DE6000657001F0E5F90126A670A560FF206560E8
:10DE7000207018490B980860174807800A99049881
:10DE8000FFF73CFF00281DD000F052FC002819D0FD
:10DE900001F0E8F8002815D00C4D403D2868002816
:10DEA00012D0804700280FD0A86800280CD08047E7
:10DEB000002809D06868002806D08047002803D0D1
:10DEC0006670012005B0F0BD0020FBE7C000002017
:10DED0003C0000205C00002060000020F8B50646F1
:10DEE000408801273843114D7080A87800281CD045
:10DEF000002414E0A100081800914169002914D001
:10DF0000B01D891D01F02CF8002806D00098696822
:10DF100040184069418839434180641CE4B2686814
:10DF2000002802D0C17CA142E4D8F8BD3C0000200A
:10DF30001CB5064A0002116A526AC9B2014368461A
:10DF40000192009100F0E0FB1CBD000010F40008FD
:10DF50001CB5064B00029B6ADBB203431004084366
:10DF600001900093684600F0CFFB1CBD10F4000840
:10DF70007CB505460E4814460088854201D900202C
:10DF80007CBD0C4B68001B686200C018FEF7A8F847
:10DF9000002C01D0641EE4B2074829028069019474
:10DFA000C0B208430090684600F0AEFB7CBD0000A4
:10DFB000600000205C00002010F4000810B5094843
:10DFC000407800280CD0084CA069002800D0804779
:10DFD000E069002800D08047FEF7D4FEFEF790FFEE
:10DFE00010BD00003C0000208000002010B58AB267
:10DFF000002804D0012804D002280ED104E00848EB
:10E0000000E00848028008E0002900D0012106480D
:10E0100081700648C26B06A09047002010BD00002A
:10E0200072000020740000203C00002080000020CE
:10E03000455F5345544152475F574944474554490A
:10E040004E56414C55445F414C4C3A2025640000EB
:10E050003EB50978022902D00020C0433EBD002110
:10E0600001910291428969460A8182894A814188E7
:10E070000C4AC9040BD5018A009108210624045FCB
:10E08000C389415ED56801AA2046A84708E0082157
:10E090000624045FC389415E956801AA2046A8470B
:10E0A00000203EBDD0F50008F0B504460B6892484C
:10E0B0000A46DEB20025016893B0002E04D0022E7D
:10E0C00035D0062E74D114E0A08800280CD08B4ADD
:10E0D0001288904208D24000085A002804D0010259
:10E0E000000A0143217520E00021204601F02EF9AD
:10E0F000FBE05668A2881B0A20469A4258D39B1917
:10E100009342FBD343889B0409D55200895A1430AB
:10E110000A02090A0A4391B200F012FBE4E7520036
:10E120008A5A1102120A114301756575DCE721460E
:10E130000E31204601F0E0F8042311AA194603200D
:10E14000119501F011F80028D2D01198411CCFD0C0
:10E15000218A04238900091811AA0320091D01F04E
:10E1600003F800287ED00C950D950E9510230CAA6F
:10E170000F950320119900F0F7FF002872D0119835
:10E180000626103011900820A65F205E002507901B
:10E1900003E06D1CEDB2102D03D26019007D002844
:10E1A000F7D1A088002801D0002D02D0002098E0EF
:10E1B0009EE00125002008902018007DC10810294C
:10E1C00072D242070CA8520F405C012393401842C0
:10E1D0006AD00CA8FFF7F6FC00061199400D411813
:10E1E000082305AA0320083900F0BEFF002875D0D7
:10E1F0000898002821D160880321890202460A403C
:10E2000001218902521A45D08A4206D16946C98A3B
:10E2100062896943511A89190EB2810B0120890361
:10E220008003091A41D0814207D16946A089098B30
:10E23000401A0799401800B20790684686800799EF
:10E24000C180C18A0181018B418101AA1146A01DB3
:10E2500000F0A3FE00283DD06A469088801B00B2E3
:10E26000908000E042E0D2880799254F511A09B208
:10E270006A46D1806288D20422D5628A00926A46B8
:10E28000938A079AFF688918801909B200B201AA17
:10E29000B8471FE06946C98A62896943511A09B2C1
:10E2A000CA0F51184910B6E718E06946A089098BD2
:10E2B000401A00B2C10F0818411007980818BAE7B1
:10E2C0006A46938A079ABF688918801909B200B212
:10E2D00001AAB8476846C08A801906B20898401C4F
:10E2E000C0B20890A84200D266E7002013B0F0BD8B
:10E2F0000020C043FAE700005C000020600000201E
:10E30000D0F5000810B500290BD000228B5C8418D2
:10E3100023758B5C002B06D0521CD2B2102AF5D389
:10E3200001E000210175002101F010F810BD10B5C9
:10E330000A68D3B2032B04D0042B17D00020C043AB
:10E3400010BD130A1021002B03D0120A012A09D094
:10E3500017E0C28A002A02D042880A434280FEF7B0
:10E3600049FE0EE042888A4342800AE0120A0A2AE5
:10E3700007D10446C28A48681146FDF787FE002986
:10E3800001D0002010BD2046E9E770B500250C46FD
:10E390000A2804D2303020704D70012070BD0A214F
:10E3A000FDF774FE0E462146FFF7EFFF002000E068
:10E3B000401C215C0029FBD1314630312154211809
:10E3C0004D70401C70BD0000F0B504460B68A948B4
:10E3D0000D461A06016895B0120E06D0012A2FD0FC
:10E3E000022A37D0062A77D11CE0207CEF22104089
:10E3F0002074A088002810D09F4A90420DD0400081
:10E400000A5A002A09D04118204600F037F9294657
:10E41000204600F0ACFF15B0F0BDA08A00F06AFE07
:10E42000A061F4E7A2881B0A20469A4254D36C6884
:10E430001B199342FAD35200511800F01FF907E05C
:10E44000207CC00604D4A069002801D0FFF72CFC72
:10E450000020E0E721460E31204600F04DFFA06984
:10E460000028D8D0207C617C4009FEF72FFB129059
:10E47000401CD0D0207C400904D0617C0020FEF7F5
:10E4800025FB00E012981390607CC11DC9080E9115
:10E49000491C49080F910E9941430B910F9948432C
:10E4A00008900B98FFF7A2FB05900028B3D0A06955
:10E4B000049006250826207C655FA65FC1070CD066
:10E4C000A27D617C0498FEF73FFB6189081A00B2C7
:10E4D000C10F0818401009E0C8E0800708D5A27DE8
:10E4E000617C0498FEF730FB6189081A401905B277
:10E4F000207C41070BD5E27D617C0498FEF712FB7E
:10E50000A189081A00B2C10F0818401008E00007DE
:10E5100008D5E27D617C0498FEF704FBA189081A06
:10E52000801906B20020A71D0C9095E00A280BD098
:10E530000021C943029101066CD5217C49090129BA
:10E5400026D002292DD03FE00625207C655FC1073B
:10E550000CD00498A27D617C401CFEF7F5FA61891D
:10E56000081A00B2C10F0818401009E0800709D549
:10E570000498A27D617C401CFEF7E6FA6189081AC6
:10E58000401905B2617CE07D0818801906B25FE091
:10E59000049A0C99A13851185E2250434978A13849
:10E5A00010E0049A0C99511849787F2904D2BE22B0
:10E5B00081385043403805E0802905D9BE22813892
:10E5C00050434138081802900B9902980B9B48431E
:10E5D0001299059A4118022000F0C6FD002837D094
:10E5E0000298401C21D0618A00220E98009101926D
:10E5F00002900397637C31462846059AFDF7C8FFD1
:10E60000617CA07D0818401905B20C98401C80B2AE
:10E610000C901DE00899089B48431399059A4118EE
:10E62000022000F0A1FD002812D0618A0F9801227B
:10E630000091019202900397637C31462846059A27
:10E64000FDF7A6FF607CA17D40084019081805B2BF
:10E650000C98401C80B20C900C990498405C0028E7
:10E6600002D0FF2800D061E70598EFE60020C04304
:10E67000D1E600005C000020FFFF000070B50446FA
:10E68000007C0D46C00604D4A069002801D0FFF725
:10E690000BFB207CEF21084020740020A061002D9E
:10E6A0000ED0287800280BD02846FDF74AFD401CE4
:10E6B000FFF79CFAA061002802D02946FDF748FD2B
:10E6C0000021204600F042FE70BD10B541820021BD
:10E6D00000F03CFE10BD0000024610B5094801687C
:10E6E000814201D1002010BD0846083818C818C260
:10E6F0000CC908391A6006C908384A60FFF7D4FA0D
:10E70000012010BD4800002010B504461020FFF77E
:10E710006DFA002808D006CC06C0044901604A689A
:10E72000426010604860012010BD000048000020D9
:10E73000024800604060012070470000480000204F
:10E740001FB50446080003D52D2121704042641CEA
:10E750006946FFF71AFE024669462046FDF7C0FCEF
:10E760001FBD0000F0B50446087893B00006000E07
:10E7700007D0022813D0062803D00020C04313B0CE
:10E78000F0BDA08841008E480068415A0802090A7D
:10E790000843A0820021204600F0D8FD0EE121466A
:10E7A0000E31204600F0A8FD002504230AAA1946D0
:10E7B00003200A9500F0D8FC0028EFD00A98411CED
:10E7C000ECD0218A0423890009180AAA0320091D14
:10E7D00000F0CAFC0028D2D00B950C950D950E9533
:10E7E000A67D002E3ED0029503950495142705952D
:10E7F000E75F002F01DD384600E0784200B20025D7
:10E800000FE00A21FDF758FC02AA30315155711E64
:10E8100000B2A94203D16D1CEDB22E2151556D1CE1
:10E82000EDB2AE42EDD80028EBD102A9481920384C
:10E83000C07F2E2803D1302048556D1CEDB2002F2B
:10E8400003DA2D2048556D1CEDB200200BAA06E01E
:10E850002B1A5B18203BDB7F1354401CC0B2A8422C
:10E86000F6D304E01421615E0BA8FFF769FF0A9854
:10E8700010300A900620205E03900820205E0025BC
:10E88000069003E06D1CEDB2102D03D20BA8415D84
:10E890000029F7D100268EE00BA8805D302801D337
:10E8A0002E3800E02D380A99C0004118082304AA28
:10E8B000032000F059FC00287BD0002E22D1608874
:10E8C00003218902012201409202891A48D0914213
:10E8D00008D16946498A62896943511A039A89189D
:10E8E00009B20391810B012089038003091A43D0E7
:10E8F000814207D16946A089898A401A0699401841
:10E9000000B206906846039981800699C180418AC9
:10E910000181818A418101AA1146A01D00F03DFBC1
:10E92000002840D06A4691880398081A00B2908067
:10E93000D2880699511A09B26A46D1806288D204F7
:10E9400025D5628A00926A46138A069A8918039A24
:10E9500009B280181B4A00B2D76801AAB84722E062
:10E960006946498A62896943511A09B2CA0F511826
:10E970004A1003995118B3E76946A089898A401A59
:10E9800000B2C10F0818411006980818B8E76A4687
:10E99000138A069A8918039A09B28018094A00B2A4
:10E9A000976801AAB8476846418A0398081800B2D8
:10E9B0000390761CF6B2AE4200D26DE70020DEE690
:10E9C0005C000020D0F5000830B50022054CA525DC
:10E9D00004E0835CE35C6B408354521C8A42F8DBA6
:10E9E00030BD0000C0F40008FEB504460868C24A05
:10E9F000030612681B0E23D0022B45D0032B04D034
:10EA0000062B2FD00020C043FEBD030A0822002B96
:10EA100003D0000A012803D005E06088104301E01C
:10EA200060889043608048682189020C511A0AB2BC
:10EA3000E188401A01B22046FDF75CFD01461FE067
:10EA4000A088002809D04000105A0102000A0143A2
:10EA500089B2204600F056F94BE10021204600F033
:10EA600075FC46E1A388000A8342F5D34968401843
:10EA70009842F1D35800105A0102000A014389B2AA
:10EA8000204600F049F934E16788F8047ED5A08972
:10EA9000E67D0025B04208D9618B801B4843218B5D
:10EAA000FDF70AFB7108401885B2B8054BD5002068
:10EAB00000900190618968468180A0898F4F411B39
:10EAC0006846C18008210620BE68E389615E205E39
:10EAD0006A46B04768464188C0886A460918684651
:10EAE0004180C5802089BE68401801B20620238A73
:10EAF000205EB047A07D0028AED0E07D0028ABD0DE
:10EB00000021684641800180A27D8280E17DC18034
:10EB1000638A0381A078000705D5A08A784B9842C4
:10EB200001D06B4618816089A389801A228900B2BE
:10EB3000D218521B4908511AC30FE2881818401006
:10EB400009B2101893E0E18868460180218941806C
:10EB500061898180A089694E411B6846C1807268C5
:10EB6000E189904768464188C08809186846418015
:10EB7000C5807268218A9047A17D0029BCD0E07DC4
:10EB80000028B9D068468180E27D00E017E0C280AD
:10EB90006089401A00B2C30FE188181840100918A4
:10EBA000684601802189A0890818401B5108411A34
:10EBB00093E0A08A002801D06946088195E0608929
:10EBC000A67D0025B04208D9618B801B4843218B6C
:10EBD000FDF772FA7108401885B2B8054DD50020CE
:10EBE0000090019068468580A189C1800821434F2B
:10EBF0000620BE68238A615E205E6A46B04768468A
:10EC000000884119684601806089421B68468280FD
:10EC1000E088BE684018082100B2E389615E6A4658
:10EC2000B047A07D002864D0E07D002861D000219D
:10EC3000684641800180A27D8280E17DC180638A37
:10EC40000381A078000705D5A08A2D4B984201D0FA
:10EC50006B461881A0895208401A00B2C30F21895F
:10EC600018184010081801B2E0884019801A6A4646
:10EC7000BC6800B21389A0473BE0E1886846018088
:10EC8000218941808580A1891C4EC1807268218ABA
:10EC90009047684600884119684601806089411B99
:10ECA000684681807268E1899047A17D002920D063
:10ECB000E07D00281DD068468180E27DC280E0882A
:10ECC00049084019411A68460180A0892189801AA3
:10ECD00000B2C20F10184010091868464180618ABE
:10ECE0000181A078000700D563E768467268018952
:10ECF00090470020FEBD00005C000020D0F5000819
:10ED0000FFFF000010B5028B8A4200D211464183FA
:10ED1000002100F01BFB10BD10B50446008B88429B
:10ED200000D20146608B88420AD006486183026B9C
:10ED3000002A01D0204690470021204600F006FB23
:10ED400010BD000080000020F0B510250526360714
:10ED5000B562264C2073A0688007FCD5080C207390
:10ED6000A0688007FCD5080A2073A0688007FCD53E
:10ED70002173A0688007FCD500272773217B1C48DE
:10ED80000170A1688907FCD52773217B0170A168F8
:10ED90008907FCD52773217B0170A1688907FCD501
:10EDA0002773217B0170A1688907FCD52773217B1C
:10EDB0000170D018001F06E0A1688907FCD52773F1
:10EDC000217B1170521C8242F6D3A0680006FCD44D
:10EDD000B561042B01D2002005E004230020217B33
:10EDE0001170401C521C9842F9DBF0BD003001400C
:10EDF0006C00002010B5102205231B079A620E48F4
:10EE00009F21017381688907FCD500210173846803
:10EE1000A407FCD501738468A407FCD5017381683D
:10EE20000906FCD49A61017B027B037B017B100401
:10EE30001A021043084310BD00300140F8B5214CC0
:10EE400005461F4F0830E760FDF78BF94600281D87
:10EE5000FDF787F9014633461B4A012000F084F98B
:10EE6000284610300090FDF77CF906462846FF251D
:10EE70000C300135202E01DA20260DE0AE420BDDEC
:10EE8000FDF76FF9E26801462B460120921C00F065
:10EE90006BF9E06805800DE0FDF763F9E268014673
:10EEA00033460120921C00F05FF90098FDF759F9F4
:10EEB000E16808803888A1684018A060F8BD0000AB
:10EEC000580300207000002058010020F8B5224CA3
:10EED00006462078002801D0002000E001202070A4
:10EEE000FF21C0B2033148431C4947183046103057
:10EEF000E7600090FDF735F9A568A84202D8012027
:10EF00006070F8BD3146EA1D0C31F932904214D2DE
:10EF1000461B202E00DA20260846FDF722F941196B
:10EF20003346BA1C012000F035F90098FDF719F9B5
:10EF30002189401AE1680880F8BD0846FDF711F9FB
:10EF40004119FF2501352B46BA1C012000F022F99A
:10EF5000E0680580F8BD0000700000205803002024
:10EF600010B50022825E8388D4180023CB5E9C42B9
:10EF700011DD8C881B1993420DDD0222825EC08850
:10EF800013180220085E834205DDC98840189042AC
:10EF900001DD012010BD002010BD70B5002300254B
:10EFA000C35E84884D5F8E88E418761924B236B229
:10EFB0009D4200DD2B461380A64200DA3446E31A58
:10EFC000002B00DC00239DB2958002230224C35E47
:10EFD0000C5FC088C988C018091900B209B29C42E8
:10EFE00000DD23465380814200DA0846C01A00281B
:10EFF00000DC002080B2D080002D03D0002801D09A
:10F00000012070BD002070BD00220023825ECB5E17
:10F010009A420FD102220223825ECB5E9A4209D12C
:10F0200082888B889A4205D1C088C988884201D1DC
:10F03000012070470020704710B50023C35E8B424B
:10F040000DDC84881B198B4209DD0221415E91424F
:10F0500005DCC0880818904201DD012010BD0020A9
:10F0600010BD0000F8B5FF2214211548FDF74AF83D
:10F07000144C15A0E16B8847042269460020FDF777
:10F0800083FF002803D014490098884205D0E26B22
:10F0900012A0009990470020F8BD0425084E0024D6
:10F0A000A000811904222846FDF76EFF002805D034
:10F0B000641C2D1DE4B2ADB2052CF1D30120F8BDC6
:10F0C00044010020800000207265736F75726365D3
:10F0D0005F696E6974200A005A4B00006D616769B0
:10F0E00063202558206973206E6F74206D617463EE
:10F0F00068210A001CB504460020009001460190DA
:10F1000004236A46032000F02FF8002823D000983B
:10F11000411C20D0A100091804236A460320091DC0
:10F1200000F022F8002817D0042301AA0320009938
:10F1300000F01AF800280FD00198FEF757FD0400E0
:10F140000FD0009902460320091D019B00F00CF826
:10F15000002802D005E000201CBD2046FEF7A4FDDB
:10F16000002420461CBD000010B5144605280DD211
:10F17000820007488058421C08D040181A46214691
:10F18000FDF702FF002801D0012010BD002010BDB6
:10F190004401002010B505280CD28400064800590F
:10F1A000441C07D0401811461A46044BDB689847A8
:10F1B000012010BD002010BD44010020CC00002023
:10F1C00010B5024800698047012010BDCC00002026
:10F1D000F0B50A4F0A4E0024A000C1190968315049
:10F1E000851904212846FFF7EFFB28460421FDF787
:10F1F000DFF8641C052CEFDBF0BD000000C0000848
:10F200000000002030B5084823224068074C002148
:10F210008B001D192D68491CC5509142F8D39100EF
:10F22000FFF7D2FB30BD00006400002000C00008E2
:10F2300070B5BAB0FFF7DEFD0146009028480825FA
:10F24000C26B28A090472A4900982A4C884202D0D5
:10F25000491C884225D11023264A00214B20FFF764
:10F2600073FD102500200F210B1A225CE65C26544A
:10F27000401CE2540828F7DBFF22202131A8FCF7CC
:10F2800041FF10221B4931A8FCF72AFF03226946DF
:10F2900035A8FCF725FF174A132131A8FEF77CFC9F
:10F2A0000FE00823134A00214B20FFF74DFD0020FB
:10F2B0000722131A215CE65C2654401CE154042802
:10F2C000F7DB0121C02301AA09034820FFF73CFD19
:10F2D0002A46084901A8FEF7CDFB3AB070BD0000F0
:10F2E0008000002069646C656E203A25780A000071
:10F2F00017405E00240100207CB54388124A9C051B
:10F300001DD5DB0509D50B8808210625455F9468C6
:10F31000415E821D2846A0477CBD002300930193D7
:10F3200044896B469C808489DC800B8808210624F4
:10F33000045F415E95686A462046A8477CBD5268D6
:10F340000988801D90477CBDD0F5000810B5FEF7F8
:10F35000C5FD10BD10B583785B0706D5801DFFF78E
:10F360006BFE002801D0012010BD002010BD10B59B
:10F3700009780906090E04D0022906D00020C043EE
:10F3800010BD0021FFF7E2FF03E001460E31FFF759
:10F39000B3FF002010BD10B54288920503D4C1818F
:10F3A0000021FFF7D3FF10BD10B54288920503D5A9
:10F3B000C1810021FFF7CAFF10BDF8B504460F4612
:10F3C000801DFFF721FE002820D10621385E615EF6
:10F3D0000822461A02200821385E615E451A394625
:10F3E000A01DFCF77DFE00200DE081000A19516987
:10F3F000002906D0CB889B19CB8051690A89521904
:10F400000A81401CC0B2E17C8142EED8F8BD000008
:10F4100001000000000000000200000000000000E9
:10F4200002000000000000000600000000000000D4
:10F4300005000000000000000500000000000000C2
:10F440000014000051E00008011C0000C9E300089E
:10F45000021C00007DD00008031C0000F1D1000850
:10F46000041C0000E9E9000805240000A9E00008E8
:10F47000071800002FE300080818000065E70008DF
:10F480000014000051E00008011C0000C9E300085E
:10F49000021C00007DD00008031C0000F1D1000810
:10F4A000041C0000E9E9000805240000A9E00008A8
:10F4B000071800002FE300080818000065E700089F
:10F4C0008F3AF07E795FA6CB58CE71A897B6D81642
:10F4D000C8CCA57D639B67BDA9EC5D86D15698EA33
:10F4E0009D420D6FB0DC25D2B2B3A754091D83E74E
:10F4F0001A3F50E061C18DBBC4528B27E819396DAA
:10F50000E1CAEF9F732CF99AFBAFE3C04075DFDED1
:10F510000736FE2D60C5D3D029FC622BBF3712FD04
:10F5200017F44AB57F0EF34194B7EE9CA33ED55530
:10F530005C4EA07C76BAAD8881ED2FC9536606D4A7
:10F54000110ADD4F31261F5B4368356CA433BC03C1
:10F55000701402D772C74C8EB1643469AB999E4562
:10F56000227AC2D94604E53C48FF101C0B800C32BD
:10F57000EB15D665FA6B4DB449E2CDC33D284B443B
:10F580008400C6F70F3B187BA2B9825EDA6E2A921E
:10F590008CF1A1E908DB38F5960559AEAC6A771B0A
:10F5A0005A23CF47B8F2518791AA203089F67801C3
:10F5B00024851E93958A9057F813E6BE2E7421E495
:10F5C000C2EC2EF2466759117B1F51A28C0F2A8480
:10F5D000CDC3000869C4000801C4000835C4000890
:04000005080000C12E
:00000001FF
